:100000000C9493020C9461360C9436360C940B3697
:100010000C94E0350C94B5350C948A350C945F350E
:100020000C9434350C94C4020C94C4020C94C40295
:100030000C94C4020C94C4020C94C4020C94C40228
:100040000C94C4020C94C4020C94C4020C94C40218
:100050000C94C4020C94C4020C94C4020C94EA34B0
:100060000C94C4020C94C4020C94C4020C94C402F8
:100070000C94C4020C94C4020C94C4020C94C402E8
:100080000C94C4020C94C4020C94C4020C94C402D8
:100090000C94C4020C94C4020C94C4020C94C63395
:1000A0000C94C4020C94C4020C94C4020C94C402B8
:1000B0000C94C4020C94C4020C94C4020C94C402A8
:1000C0000C94C4020C94C4020C94C4020C94C40298
:1000D0000C94C4020C94C4020C94C4020C94C40288
:1000E0000C94C4020C94F80C0C94F6030C94AF24FA
:1000F0000C944C2B0C94C6020C941A320C94C7022C
:100100000C9462040C94D11F0C942F2A0C94542448
:100110000C94DB240C947A0E0C946C080C94DD4C3B
:100120000C9429220C94F60C0C9465280C94BC2A8F
:100130000C945D200C947E040C9437160C944304AC
:100140000C9476240C946E080C94FB0C0C94BC0C50
:100150000C943A280C9455040C942E1F0C9488157A
:100160000C9406160C949E2E0C94A7280C94ED1556
:100170000C94DE2C0C9484040C945E080C94BA1C31
:100180000C947A040C946C040C94B1150C94EC0C43
:100190000C948B030C94F9270C9476040C94030DA7
:1001A0000C94B50E0C946E2E0C946C140C94C2032B
:1001B0000C9451040C94D2160C945E040C94531EAF
:1001C0000C940E0C0C940D0B0C9439240C944323BA
:1001D0000C9412200C9470140C9465080C94C90EA5
:1001E0000C94A9160C94952C0C9464140C9474140F
:1001F0000C94E31E0C9458040C941C310C94CA16F5
:100200000C9456370C94EF150C9447160C94B10CC3
:100210000C94C8020C944D040C94B3030C949A15DE
:100220000C94E80C0C94C9030C94B90E0C94DA16D7
:100230000C94B4290C941C220C9468140C948C2CEF
:100240000C94F6260C9468040C94250C0C948703EB
:100250000C940C1A0C9483040C94F22D0C949F298A
:100260000C94DC260C94A7310C94D00E0C94C81579
:100270000C9412150C94931E0C94722C0C94630E17
:100280000C94B10E0C9449040C9488040C94B42C76
:100290000C94D20C0C9470040C94142A0C942B160D
:1002A0000C9476080C9460140C94CF204E414E4967
:1002B0004E495459494E46CDCCCC3D0AD7233C1724
:1002C000B7D13877CC2B329595E6241FB14F0A0071
:1002D0000020410000C84200401C4620BCBE4CCA61
:1002E0001B0E5AAEC59D7400407A10F35A00A072DE
:1002F0004E18090010A5D4E80000E8764817000061
:10030000E40B54020000CA9A3B000000E1F505002E
:100310000080969800000040420F000000A0860177
:10032000000000102700000000E803000000006447
:1003300000000000000A00000000000100000000B2
:10034000002C76D888DC674F0823DFC1DFAE59E187
:10035000B1B796E5E3E453C63AE651997696E8E6F6
:10036000C28426EB898C9B62ED407C6FFCEFBC9CC9
:100370009F40F2BAA56FA5F490055A2AF75C936BDB
:100380006CF9676DC11BFCE0E40D47FEF520E6B596
:1003900000D0ED902E0300943577050080841E0870
:1003A0000000204E0A000000C80C333333330F988E
:1003B0006E12831141EF8D2114893BE65516CFFE55
:1003C000E6DB18D1844B381BF77C1D901DA4BBE4E1
:1003D00024203284725E228100C9F124ECA1E53D23
:1003E00027005EBCE2613FDD83C29C7E20A3FD1F2F
:1003F00041009D23BE46DB65F88C11AF32CA57E938
:100400007400000A0B02090C0D0E0807030401001A
:1004100000000000000000000000000000000000DC
:100420000000000000000000000000000012111099
:1004300000000000000000000000000000000000BC
:100440000000000000000000002200250028002B12
:10045000002E003100340002010000050108010BEC
:100460000100002100240027002A002D0030003365
:100470000001010000040107010A0100002000231F
:1004800000260029002C002F00320000010000038C
:100490000106010901050505050705080808080208
:1004A0000202020A0A08080404040401010101010D
:1004B0000101010303030303030303040707070CFC
:1004C0000C0C0C0C0C0C0C020202020606060606B2
:1004D0000606060B0B0B0B0B0B0B0B01021020205F
:1004E0000808102040102040800201020108040288
:1004F00001010204081020408080402010080402FE
:100500000180040201804020100804020108040256
:10051000010102040810204080010204081020405C
:1005200080005637DD4C11241FBECFEFD1E2DEBF75
:10053000CDBF00E00CBF16E0A0E0B2E0E2EBF1EBD3
:1005400000E00BBF02C007900D92A631B107D9F7AA
:1005500022E1A6E1B6E001C01D92A430B207E1F7A6
:1005600012E0C2E9D2E000E006C021970109802F25
:10057000FE010E947E53C139D10780E00807A9F728
:100580000E94953D0C94C7580C940000089508955E
:100590009091C6078091C5072FEF3FEF981748F459
:1005A000E92FF0E0E050F94F208130E09F5F909319
:1005B000C607C90108959091C6078091C5072FEF1E
:1005C0003FEF981748F4E92FF0E0E050F94F208111
:1005D00030E09F5F9093C607C9010895CF92DF92E4
:1005E000EF92FF92CF93DF93B091F40CA0E08111D2
:1005F000AB2F8091F50C90E0880F991FAC01455806
:100600005B4FC090FA0CD090FB0CE090FC0CF0908B
:10061000FD0C30E020E0FA01C591D491E881B901E8
:1006200090E080E0EB23EA130AC02F5F3F4F6C1588
:100630007D058E059F0578F36FEF7FEFCB01DF918E
:10064000CF91FF90EF90DF90CF900895E82FE29543
:10065000EF70F0E0EE0FFF1FE651F24F2081318185
:10066000482F4F7081E090E0A0E0B0E004C0880F18
:10067000991FAA1FBB1F4A95D2F7662329F0822B28
:10068000932B918380830895809590958223932363
:10069000F8CF8CBD9DBD0895CF93DF93D62F9C01DD
:1006A00064E0369527956A95E1F7C1E0213A4FE07D
:1006B00034070CF4C0E0213A4FE03407F8F4F901B4
:1006C000EE0FFF1FE651F24FA081B18154E0220FDF
:1006D000331F5A95E1F7821B930B41E050E060E035
:1006E00070E004C0440F551F661F771F8A95D2F72C
:1006F000DD2341F04A2B5B2B518340838C2FDF910C
:10070000CF910895409550954A235B23F5CFFC0186
:10071000818D928D0895089520918706260F3327A5
:10072000331F21323105ECF420914607FC0190E0A3
:1007300080E0243069F082E00895A091870621913D
:10074000AC014959594FA40FB52FB11D2C930196F7
:10075000861798F380918706680F6093870680E07C
:10076000089581E00895E091C6078091C507E817D4
:1007700030F4F0E0E050F94F808190E008958FEF81
:100780009FEF08958091C5079091C607891B990B2B
:100790000895CF92DF92EF92FF920F931F93CF9322
:1007A000DF937C01CB018A0120914C07222389F041
:1007B000EB016B01C40ED51ECC15DD0569F0699106
:1007C000D701ED91FC910190F081E02DC7011995C1
:1007D000F3CF642F0E948C03C801DF91CF911F914A
:1007E0000F91FF90EF90DF90CF900895CF93DF931C
:1007F0001F92CDB7DEB7698320914C072223F9F011
:100800002091C307203258F021E030E0FC0133830F
:10081000228390E080E00F90DF91CF910895809146
:10082000C407E82FF0E0E35BF84F998190838F5F76
:100830008093C4078093C30781E090E0ECCF61E030
:10084000CE0101960E948C03F7CF8150823108F0CF
:100850005AC0E82FF0E08827EF5CFB4F8F4F0C94D5
:100860007E5351045504430449044D048304580441
:100870005E04620468046C04700476047A048304E1
:100880007E0484048804809180008F7780938000A8
:100890000895809180008F7DF9CF80918000877FBF
:1008A000F5CF84B58F7784BD089584B58F7DFBCF58
:1008B0008091B0008F778093B00008958091B00050
:1008C0008F7DF9CF809190008F778093900008956D
:1008D000809190008F7DF9CF80919000877FF5CF38
:1008E0008091A0008F778093A00008958091A00050
:1008F0008F7DF9CF8091A000877FF5CF8091200177
:100900008F77809320010895809120018F7DF9CF0A
:1009100080912001877FF5CF1F93CF93DF93282FFE
:1009200030E0F901EF5FFB4F8491F901E552FB4F95
:10093000D491F901EB56FB4FC491CC23A9F0162FAB
:1009400081110E942504EC2FF0E0EE0FFF1FE95B00
:10095000FB4FA591B4918FB7F894EC91111108C099
:10096000D095DE23DC938FBFDF91CF911F91089547
:10097000DE2BF8CF1092460781E080934507109256
:10098000200761E084E10E948C0461E085E10E941F
:100990008C04E9EBF0E080818E7F808380818D7F05
:1009A000808388E48093B80085E48093BC00089538
:1009B000CF93DF9391E0909366068823B9F0C091BE
:1009C000B800D091BA008091BC008A7B8093BC00B3
:1009D00060E084E10E948C0460E085E10E948C0468
:1009E0000E94BA04D093BA00C093B800DF91CF91AF
:1009F0000895CF93DF9390E0FC01E552FB4F2491E3
:100A00008B569B4FFC0184918823C9F090E0880F9E
:100A1000991FFC01EF59FB4FA591B491FC01E95BD3
:100A2000FB4FC591D49161110DC09FB7F8948C9183
:100A3000209582238C938881282328839FBFDF9170
:100A4000CF910895623051F49FB7F8943C91822F72
:100A5000809583238C93E8812E2BEFCF8FB7F8946A
:100A6000EC912E2B2C938FBFEACF3FB7F894809157
:100A7000620690916306A0916406B091650626B562
:100A8000A89B05C02F3F19F00196A11DB11D3FBFC6
:100A9000BA2FA92F982F8827BC01CD01620F711D95
:100AA000811D911D42E0660F771F881F991F4A958F
:100AB000D1F70895CF92DF92EF92FF920F931F9399
:100AC000CF93DF93D091C30781E0D13208F09CC06F
:100AD000C0916D070E9435056B017C01809146072E
:100AE00081116CC082E08093460781E080934507C6
:100AF0008FEF8093440710924307D0934207ADE4F1
:100B0000B7E0E2E2F7E080E0D8138DC01092210751
:100B100080912107CC0FC82BC0932107809120071B
:100B2000813009F084C0109220070E9435056B01C6
:100B30007C01809121078093BB00809148079091B0
:100B40004907A0914A07B0914B07892B8A2B8B2B21
:100B5000A1F00E94350500914807109149072091A6
:100B60004A0730914B076C197D098E099F090617BA
:100B700017072807390708F442C08091BC0083FD9D
:100B8000D8CF85EC8093BC000E9435056B017C01B9
:100B900080914607823009F44CC0809144078F3F12
:100BA00009F469C080914407803209F466C08091DD
:100BB0004407803309F463C084E026C0809148076D
:100BC00090914907A0914A07B0914B07892B8A2B36
:100BD0008B2B09F483CF0E943505009148071091B3
:100BE000490720914A0730914B076C197D098E09FE
:100BF0009F09061717072807390708F06FCF80915C
:100C000047070E94D80485E01092C4071092C307DA
:100C100010924C07DF91CF911F910F91FF90EF90B1
:100C2000DF90CF9008959D9191938F5F6DCF85EE6A
:100C3000A9CF8091480790914907A0914A07B091A8
:100C40004B07892B8A2B8B2B09F4A2CF0E943505E9
:100C5000009148071091490720914A0730914B07AE
:100C60006C197D098E099F09061717072807390790
:100C700008F08ECFC4CF80E0C7CF82E0C5CF83E03D
:100C8000C3CF8F929F92AF92BF92CF92DF92EF929B
:100C9000FF920F931F93CF93DF93D82FC62F142F5C
:100CA000613208F09CC00E9435056B017C01809187
:100CB000460781116FC081E0809346071093450776
:100CC0009FEF90934407109243079C0F9093420725
:100CD0008093210780912107DD0FD82BD093210726
:100CE00080912007813009F07CC0109220070E947B
:100CF00035056B017C01809121078093BB008091B9
:100D0000480790914907A0914A07B0914B07892B5A
:100D10008A2B8B2BA1F00E9435050091480710917A
:100D2000490720914A0730914B076C197D098E09BC
:100D30009F09061717072807390708F44CC0809148
:100D4000BC0083FDD8CF85EC8093BC000E943505A4
:100D50006B017C0180914607813009F444C0809189
:100D600043078C1710F4C0914307E2E2F7E0A0E0DC
:100D7000B7E080E08C1359C08C2FDF91CF911F9189
:100D80000F91FF90EF90DF90CF90BF90AF909F902A
:100D90008F9008958091480790914907A0914A0744
:100DA000B0914B07892B8A2B8B2B09F480CF0E94A3
:100DB00035058090480790904907A0904A07B09069
:100DC0004B076C197D098E099F0986169706A806A0
:100DD000B90608F06CCF809147070E94D804C0E0A4
:100DE000CBCF85EEB1CF8091480790914907A09174
:100DF0004A07B0914B07892B8A2B8B2B09F4AACF7A
:100E00000E943505009148071091490720914A0733
:100E100030914B076C197D098E099F09061717073A
:100E20002807390708F096CFD6CF91919D938F5F11
:100E3000A1CF8F929F92AF92BF92CF92DF92EF920B
:100E4000FF926B017C010E9435054B015C01C114CE
:100E5000D104E104F104B9F00E943505681979095B
:100E60008A099B09683E73408105910580F321E062
:100E7000C21AD108E108F10888EE880E83E0981EB6
:100E8000A11CB11CE4CFFF90EF90DF90CF90BF90FA
:100E9000AF909F908F9008952FB7F89460915E0661
:100EA00070915F0680916006909161062FBF089552
:100EB000CF92DF92EF92FF920F931F93CF93DF9326
:100EC000CDB7DEB7C054D1400FB6F894DEBF0FBE29
:100ED000CDBF0E944C070091F60C1091F70C2091A9
:100EE000F80C3091F90C6B017C01C01AD10AE20AAE
:100EF000F30A97018601003D17402105310590F462
:100F00008091FE0CC05CDE4F0FB6F894DEBF0FBEC2
:100F1000CDBFDF91CF911F910F91FF90EF90DF90A8
:100F2000CF9008956093F60C7093F70C8093F80CB3
:100F30009093F90C1092F10C1092F00C1092EF0CAF
:100F40001092EE0C1092ED0C62E08091F20C0E9477
:100F5000F90461E070E080E090E00E94190761E030
:100F60008091F20C0E94F90460E08091F20C0E94E2
:100F70008C048091F30C8551823020F58BE291E155
:100F80000197F1F762E08091F20C0E94F9048091E0
:100F9000FF0C90E08230910538F0880F991F880F80
:100FA000991F05970197F1F7F89480E00E94EE02EF
:100FB0006F3F7F4F8F4F9F4F61F41092FE0C7894DC
:100FC00080E0A0CF64E170E080E090E00E9419072B
:100FD000D9CF81E00E94EE026F3F7F4F8F4F9F4F2E
:100FE00061F38E010F5F1F4F6E012FEBC21A2EEFC0
:100FF000D20A780180E00E94EE02F70160837183DB
:101000008283938381E00E94EE02F70164837583FB
:1010100086839783F8E0EF0EF11CEC14FD0451F782
:10102000789430E020E0F801C080D180E280F38045
:101030004481558166817781FFEFCF16DF06EF0689
:10104000FF0631F04F3F8FEF58076807780719F414
:101050001092FE0CB5CFF90183E0F595E7958A95DE
:10106000E1F7E351F34F8081880FC416D506E606F9
:10107000F70610F180832F5F3F4F085F1F4F283224
:10108000310589F64091F10C2091ED0C8091EE0C28
:10109000280F3327331F8091EF0C280F311D8091CB
:1010A000F00C820F932F911D99274817190681F68E
:1010B00081E08093FE0C26CF8160DCCF82E090E05F
:1010C00090932D0280932C02089583E090E09093FA
:1010D0002D0280932C020895A89508950895DC01AF
:1010E000ED91FC910190F081E02D19940895CF923B
:1010F000DF92EF92FF920F931F93CF93DF93EC0158
:101100000E944C070E811F81288539850617170715
:101110002807390729F16B017C01C01AD10AE20ABC
:10112000F30A97018601C880D980EA80FB800C15FC
:101130001D052E053F05C0F06E837F838887998744
:10114000EC81FD81309781F08A8581110DC0DF919E
:10115000CF911F910F91FF90EF90DF90CF90199456
:1011600000E010E09801DFCFDF91CF911F910F9148
:10117000FF90EF90DF90CF900895CF92DF92EF92A3
:10118000FF920F931F93CF93DF93FC0120892223BB
:1011900049F1EC010E944C07088519852A853B8599
:1011A0006B017C01C01AD10AE20AF30A0C851D8585
:1011B0002E853F850C151D052E053F0598F4688783
:1011C00079878A879B87E881F9810280F381E02D06
:1011D000CE01DF91CF911F910F91FF90EF90DF90A3
:1011E000CF901994DF91CF911F910F91FF90EF90C5
:1011F000DF90CF900895FC01EB59FF4F20813181A2
:1012000039964081442351F03B9740815181452BD1
:1012100029F089599F4FFC0120813181C90108952E
:101220000F931F93CF93DF93EC01FC01E259FF4F23
:10123000808181113FC03B97808191810197D1F1DD
:10124000CE0181960E94BD08CE010E94BD082DA945
:101250008C8981111EC02223C1F1FE01EB59FF4F81
:1012600080819181039789F183E090E0918380836D
:10127000FE01E559FF4F008111810115110529F18A
:10128000CE010E94FB08F801DF91CF911F910F91D1
:101290001994FE01EB59FF4F80819181211105C006
:1012A000019799F081E090E0E1CF029771F082E040
:1012B00090E0DCCFFE01E759FF4F808191813297AA
:1012C000208131818217930789F6DF91CF911F9199
:1012D0000F9108950F931F93CF93DF93EC018B0130
:1012E00062307105E1F06330710539F161307105EB
:1012F00011F5FC01ED59FF4F80819181892BD9F0C7
:10130000CE010E94FB080197B1F0C759DF4F198346
:10131000088381E0DF91CF911F910F910895FC0127
:10132000ED59FF4F80819181892B29F0CE010E94D8
:10133000FB08029751F780E0EDCFFC01ED59FF4F1C
:1013400080819181892BB9F3CE010E94FB0803971C
:10135000E1F6F1CF4F925F926F927F928F929F92C0
:10136000AF92BF92CF92DF92EF92FF920F931F93B3
:10137000CF93DF93EC012AA13BA188EE93E0289F55
:101380004001299F900C389F900C1124092C000CCF
:10139000AA08BB080E944C07EE8CFF8C0CA11DA173
:1013A0002EA13FA12B013C01401A510A620A730A87
:1013B000A3019201C501B4010E942D53CA01B901D4
:1013C0000E94B1514B015C01B70190E080E00E94A6
:1013D000B1519B01AC01C501B4010E9412522CA96C
:1013E0003DA94EA95FA90E940E54688379838A8320
:1013F0009B838E8D9F8D99A388A30E944C076CA31D
:101400007DA38EA39FA320E030E040E752E46881F3
:1014100079818A819B810E940E546B017C01C88274
:10142000D982EA82FB82AC019B01688579858A8535
:101430009B850E94A253688779878A879B8720E0D3
:1014400030E0A901C701B6010E94AC5120E030E0B4
:10145000A90181114EC06C817D818E819F810E9486
:10146000B6541816ACF588A599A5AAA5BBA54889B8
:1014700059896A897B89481759076A077B0720F4CD
:10148000888B998BAA8BBB8B4C895D896E897F89F0
:10149000411551056105710529F084179507A607C7
:1014A000B70720F48C8B9D8BAE8BBF8B6CA57DA575
:1014B0008EA59FA528A939A94AA95BA90E94FB521C
:1014C000288F398F4A8F5B8F18A619A61AA61BA6DC
:1014D000DF91CF911F910F91FF90EF90DF90CF9010
:1014E000BF90AF909F908F907F906F905F904F9044
:1014F00008956C817D818E819F810E94AC51811104
:101500000BC088A999A9AAA9BBA90196A11DB11DC3
:1015100088AB99ABAAABBBAB8AA19BA1092E000CEF
:10152000AA0BBB0B48A559A56AA57BA5480F591F57
:101530006A1F7B1F48A759A76AA77BA74CA55DA573
:101540006EA57FA5840F951FA61FB71F8CA79DA70B
:10155000AEA7BFA7BDCFFC019B01672BB1F0A8EEE2
:10156000B3E00E944F53638B748B858B968B25A1C0
:10157000211109C0648F758F868F978F60A371A327
:1015800082A393A321E0822F089520E0FCCFFC01E9
:101590009B01672BA9F0A8EEB3E00E944F53678729
:1015A000708B818B928B25A1222361F0648F758FC4
:1015B000868F978F60A371A382A393A3822F089530
:1015C00020E0FCCF21E0FACFDC01ED91FC911197F6
:1015D0000280F381E02D19966C911994CF93DF93DB
:1015E000EC0181E08DA3EEA5FFA5309729F02A85B7
:1015F0009985291380E01995CE01DF91CF910C9444
:10160000E40ADC0119966C91199721E06227ED91AB
:10161000FC910280F381E02D199423E030E0FC017D
:10162000368725870C94010BFC01258536852230F1
:10163000310551F421E030E03687258725A12111BD
:101640000C94E40A0C94010B0895CF93DF93EC0102
:101650001DA2EEA5FFA5309731F081E02A8599857E
:10166000291380E01995CE01DF91CF910C94010BE5
:101670008F929F92AF92BF92CF92DF92EF92FF92A2
:10168000CF93DF93EC010E944C076B017C018D85A9
:101690009E859C01225031092230310508F48DC00D
:1016A000892B09F48AC08CA18823D9F0C88ED98EE1
:1016B000EA8EFB8E8F89882309F48BC08F859889E9
:1016C000A989BA898C8F9D8FAE8FBF8FCE010E9462
:1016D000EE0A8C8D9D8DAE8DBF8D88A399A3AAA394
:1016E000BBA3888D998DAA8DBB8D812C912C540123
:1016F0008C159D05AE05BF0531F046015701881ACE
:10170000990AAA0ABB0A8C8D9D8DAE8DBF8D881655
:101710009906AA06BB0608F443C04F855889698913
:101720007A898DA1882309F460C08AA59BA5ACA500
:10173000BDA5840F951FA61FB71F8AA79BA7ACA79F
:10174000BDA78B899C89AD89BE898C8F9D8FAE8FFB
:10175000BF8F8B859C85019739F4E881F9810480DE
:10176000F581E02DCE0119958B859C85029789F432
:1017700088A599A5019699A788A72EA13FA18217B0
:10178000930739F4E881F9810680F781E02DCE01D5
:101790001995CE010E94250BC88ED98EEA8EFB8E3C
:1017A0008C8D9D8DAE8DBF8D88199909AA09BB09B5
:1017B00088A399A3AAA3BBA31CA281E0DF91CF9128
:1017C000FF90EF90DF90CF90BF90AF909F908F9061
:1017D00008958B899C89AD89BE898C8F9D8FAE8F32
:1017E000BF8FCE010E94250B74CF4C8F5D8F6E8F03
:1017F0007F8FCE010E94EE0ACFCF21E0FC0120872F
:101800000C94010BCF93DF93EC0169858A810E94D0
:101810008C0489858A87DF91CF9108950F931F9358
:10182000CF938C01C62FFC018085882319F0C185D8
:1018300081E0C8276C2FF80182810E948C04F80196
:10184000C287CF911F910F910895CF92DF92EF92AF
:10185000FF920F931F93CF93DF93EC012A813B817B
:101860003327F901EF5FFB4F8491F901E552FB4FFC
:101870000491F901EB56FB4F1491112379F081117A
:101880000E942504E12FF0E0EE0FFF1FE558FB4F0B
:10189000A591B491EC910E2381E009F480E0817070
:1018A000898B9B89891731F00E944C076F8B788F49
:1018B000898F9A8F0E944C070F89188D298D3A8D38
:1018C0006B017C01C01AD10AE20AF30A9701860172
:1018D0004D895E8970E060E089898B8B40175107E4
:1018E0006207730718F58C8BEB8DFC8D309711F028
:1018F00090E019952F8D38A121153105B9F089890E
:101900009A89891799F041E050E0992311F042E05B
:1019100050E08A8B2230310591F02330310591F06F
:101920002130310519F44130510561F0DF91CF913B
:101930001F910F91FF90EF90DF90CF90089542306C
:101940005105A1F7ED8DFE8D309781F36A817B8182
:10195000DF91CF911F910F91FF90EF90DF90CF908B
:101960001994FC019485FB018485981303C081E0E0
:10197000983008F080E00895CF93DF931F92CDB7A1
:10198000DEB76983DC01ED91FC910280F381E02DEB
:1019900041E050E0BE016F5F7F4F19950F90DF91DE
:1019A000CF910895CF93DF931F92CDB7DEB76983B0
:1019B000DC01ED91FC910280F381E02D41E050E0EB
:1019C000BE016F5F7F4F19950F90DF91CF91089502
:1019D000FC01768765870895DC01ED91FC91068C0A
:1019E000F78DE02D199591E089270895862F0895A8
:1019F00081E08627089521E0FC018485883008F085
:101A000020E0822F08950895FC0120812EBD9B01C6
:101A10002150310941F051810DB407FEFDCF4EB583
:101A20005EBD4193F5CF61507109860F971F0DB4CC
:101A300007FEFDCF2EB5FC0120830895E091F3064B
:101A4000F091F40680819091F206892B80830895AD
:101A5000E091F306F091F40690818091F206809572
:101A60008923808308958EBD00000DB407FEFDCF4D
:101A70008EB50895AF92BF92CF92DF92EF92FF9210
:101A80000F931F93CF93DF9300D000D01F921F922C
:101A9000CDB7DEB78C017B016A018091F6068333F6
:101AA000E1F45801A40EB51EA016B10609F46FC0EA
:101AB0000E94280D80EF0E94330D812F0E94330D6C
:101AC000802F0E94330D0F5F1F4FF70181917F011F
:101AD0000E94330D0E941E0DE7CF5B01A40EB51EC0
:101AE0008433C1F40E94280D19830A838D2D8068E8
:101AF0008B83CC8264E070E0CE0101960E94040DDD
:101B0000AE14BF0409F441C0F70181917F010E9426
:101B1000330DF6CF0E94280D0F3F110509F028F470
:101B200019820A8384E08B830CC017FD17C01982C9
:101B30000A8333E0169507953A95E1F7007E0C602D
:101B40000B8386E0C816D104A0F5F701DE011496D8
:101B5000EA15FB0599F081918D93FACFC80126E033
:101B6000969587952A95E1F7807E19830A8301155A
:101B7000104C10F48461D7CF8C61D5CFB6016D5F66
:101B80007F4FCE0101960E94040D0E941E0DC601DA
:101B900028960FB6F894DEBF0FBECDBFDF91CF9170
:101BA0001F910F91FF90EF90DF90CF90BF90AF907B
:101BB000089563E070E0CE0101960E94040DF701E4
:101BC00081917F010E94330DAE14BF04C1F7DDCFB8
:101BD000CF93DF931F92CDB7DEB7898341E050E00A
:101BE000BE016F5F7F4F90E080E00E943A0D0F9042
:101BF000DF91CF91089590E02091F606233339F4D8
:101C00000C96982F990F990F990F80E00895489698
:101C1000F8CFDA01E091F706F0E0FE2FEE27E60FAD
:101C2000F71F90E0982F8827A901BD018E0F9F1FF5
:101C30000C943A0DCF93DF931F921F92CDB7DEB76E
:101C400079836A8322E030E0AE014F5F5F4F60E14D
:101C500070E00E94090E0F900F90DF91CF910895D0
:101C6000CF93DF931F921F92CDB7DEB779836A833C
:101C700022E030E0AE014F5F5F4F64E070E00E9411
:101C8000090E0F900F90DF91CF910895CF93DF93BE
:101C90001F92CDB7DEB72091F70630E0322F222712
:101CA000260F371F90E0982F8827498341E050E0A6
:101CB000BE016F5F7F4F820F931F0E943A0D0F90FE
:101CC000DF91CF910895CF93DF931F92CDB7DEB709
:101CD0006983DC01ED91FC910280F381E02D41E00C
:101CE00050E0BE016F5F7F4F19950F90DF91CF914C
:101CF00008950895FF920F931F93CF93DF93EB0105
:101D0000FC01178A168A2A81211109C02B81211111
:101D100006C02C81211103C02D81222301F1411520
:101D20005105E9F08A01FC01F08C80E591E00E9408
:101D30004903AE014E5F5F4F24E030E06CE070E09D
:101D40008F2D0E94090EB8018F2D0E941A0E81E07E
:101D500090E0DF91CF911F910F91FF90089580E067
:101D6000F7CFFC01848595850895FC0184899589C8
:101D7000089522E233E0FC0131832083FB01408996
:101D8000518962897389FC0142835383648375831B
:101D90000895DC01ED91FC91048CF58DE02D1994F2
:101DA00090E080E00895282F30E094E03595279565
:101DB0009A95E1F7922F990F990F291B220F820F05
:101DC00008956093290670932A0680932B069093BA
:101DD0002C06645D7E4F8F4F9F4F60932506709356
:101DE0002606809327069093280682E090E0909341
:101DF000300680932F060E944C0760932106709353
:101E00002206809323069093240608950F931F9330
:101E10000E944C078B019C014091210650912206A3
:101E200060912306709124068091290690912A06DC
:101E3000A0912B06B0912C06041B150B260B370B1B
:101E4000083E134021053105C0F00196A11DB11DCA
:101E50008093290690932A06A0932B06B0932C0614
:101E600048515C4F6F4F7F4F40932106509322069D
:101E70006093230670932406CBCF409125065091A2
:101E80002606609127067091280684179507A607F5
:101E9000B70770F0E0912D06F0912E06309741F0D3
:101EA0001995611571058105910569F00E94E10E92
:101EB0006091290670912A0680912B0690912C063C
:101EC0001F910F9108958091290690912A06A09163
:101ED0002B06B0912C06845D9E4FAF4FBF4F809371
:101EE000250690932606A0932706B093280681E046
:101EF00090E020912F0630913006232B11F490E0D2
:101F000080E09093300680932F06D2CF4F925F925D
:101F10006F927F928F929F92AF92BF92CF92DF92F9
:101F2000EF92FF920F931F93CF93DF93FC011681E3
:101F3000A12FB0E020E833E341EE51E00E941A53B4
:101F40004B015C01C2EBD7E09D0104E610E080E9A3
:101F5000E82EFF24F394CE01825B9740821793070B
:101F60009CF14580512C2E54384FC90164E670E035
:101F70000E946A537C01C90160E971E00E946A53C2
:101F80006C010CE412E0C1E0D0E0390183E068228A
:101F90007724C415D5050CF040C0C230D10571F5C9
:101FA0006114710459F5E114F10419F4C114D10458
:101FB00029F5B0E88B0EBBE39B1EB6E2AB1EB11C4D
:101FC00021960F5F1F4FE5CFCE0183709927892B94
:101FD00099F4CE01B8010E946A53892B31F4CE01E5
:101FE000B7010E946A53892B39F4A0E88A0EA1E553
:101FF0009A1EA1E0AA1EB11C2196ADCFD8018C91EA
:10200000A82FB0E020E831E541E050E00E941A53EB
:10201000860E971EA81EB91ED3CF228130E0A0E104
:10202000BEE00E944F536B017C01218130E0ACE3A4
:10203000B0E00E944F53C60ED71EE81EF91E8081E5
:10204000C80ED11CE11CF11CA481A150BB0B20E8DF
:1020500031E541E050E00E9425536C0D7D1D8E1D41
:102060009F1D680D791D8A1D9B1DDF91CF911F91CA
:102070000F91FF90EF90DF90CF90BF90AF909F9027
:102080008F907F906F905F904F9008956F927F92A6
:102090008F929F92AF92BF92CF92DF92EF92FF9278
:1020A0000F931F93CF93DF936B017C01EA018CE3C5
:1020B000882E912CA12CB12CC701A50194010E945E
:1020C0002D536883CA01B901A50194010E942D53C3
:1020D0006983C701B60120E13EE040E050E00E9484
:1020E0002D53CA01B90128E130E040E050E00E94E0
:1020F0002D536A83C701B60120E831E541E050E085
:102100000E942D5369017A01CA01B9016C5F7F4FAA
:102110008F4F9F4F27E030E040E050E00E942D536A
:102120006F5F6B83812C912C540140E094E6692E03
:10213000712C00E911E0242F30E02E54384FF901C2
:10214000E370FF273097F9F4C901B3010E946A5385
:10215000892B31F4C901B8010E946A53892B99F483
:102160008EE691E0A0E0B0E0880E991EAA1EBB1E8C
:10217000D501C401AA27BB27C816D906EA06FB0663
:1021800038F04F5FD8CF8DE691E0A0E0B0E0ECCF23
:102190004E83C90164E670E00E946A538C01C90154
:1021A00060E971E00E946A53309729F40115110526
:1021B000E1F40097D1F04DE651E060E070E0841A60
:1021C000950AA60AB70AC818D908EA08FB08ACE4B9
:1021D000B2E020E0213071F4309791F5011511053E
:1021E00011F4009769F54DE106C04EE651E060E05C
:1021F00070E0E5CF4C9150E070E060E031E0320FEC
:10220000C416D506E606F70640F0C41AD50AE60A53
:10221000F70A1196232F3C30E9F62F5F2D83C394E4
:10222000CC82DF91CF911F910F91FF90EF90DF90C3
:10223000CF90BF90AF909F908F907F906F900895B8
:102240004CE1D9CFCF92DF92EF92FF92C0901D0662
:10225000D0901E06E0901F06F0902006C616D70606
:10226000E806F90671F06B017C0149EF56E00E9427
:102270004610C0921D06D0921E06E0921F06F092F4
:102280002006FF90EF90DF90CF9008958F929F925D
:10229000AF92BF92CF92DF92EF92FF920F931F9374
:1022A000CF93DF93CDB7DEB763970FB6F894DEBF59
:1022B0000FBECDBF5F87798BF42EE42E41110BC08A
:1022C0006F5FEE24E3946D3030F02FEFC21AD20A24
:1022D000EE24E39461E089898B831A82198281E07C
:1022E0008D836E833EE4C30ECF82CE0101960E94A1
:1022F000860F4B015C010F8510E00E942211809136
:10230000FC069801281B3109C901079667E070E0B7
:102310000E946A53DC0137E0E39EA00DB11D112439
:10232000179720E831E541E050E00E942553680D01
:10233000791D8A1D9B1DF11004C060587A438940A5
:10234000910963960FB6F894DEBF0FBECDBFDF9143
:10235000CF911F910F91FF90EF90DF90CF90BF90A2
:10236000AF909F908F9008958F929F92AF92BF925F
:10237000CF92DF92EF92FF920F931F93CF93DF9351
:102380006C01E090F407F090F5070091F6071091CA
:10239000F7072091F8073091F9074091FA0750911B
:1023A000FB076091FC077091FD078091FE079091FB
:1023B000FF070E944611C4EFD7E068A379A38AA360
:1023C0009BA3E0E0F8E0E080F180028113812481AA
:1023D00035814681578160857185828593850E940C
:1023E00046116B017C01CCA2DDA2EEA2FFA2AE8958
:1023F000BF892CE330E00E94865308A119A12AA1CD
:102400003BA148015901861A970AA80AB90AD501C1
:10241000C401888F998FAA8FBB8FAA85BB852CE3B7
:1024200030E00E948653C61AD70AE80AF90ACC8E11
:10243000DD8EEE8EFF8EDF91CF911F910F91FF9079
:10244000EF90DF90CF90BF90AF909F908F900895C6
:10245000CF92DF92EF92FF920F931F93CF93DF9370
:102460006B017C018A010E942211C091FF06D0E01D
:10247000CE54D84F60910C0870910D0880910E08D1
:1024800090910F080E9422118091FF0690E08E54D7
:10249000984F8C179D0759F0C701B6010E94221171
:1024A0008091FF0690E08E54984F0E94B411C701AE
:1024B000B6010E942211C091FF06D0E0CE54D84F41
:1024C00060910C0870910D0880910E0890910F0892
:1024D0000E9422118091FF0690E08E54984F8C1735
:1024E0009D0759F0C701B6010E9422118091FF0695
:1024F00090E08E54984F0E94B41140911008509172
:102500001108609112087091130880910C08909145
:102510000D08A0910E08B0910F08481759076A07D7
:102520007B0779F084179507A607B707A0F4C816AC
:10253000D906EA06FB0628F0C416D506E606F70615
:10254000A0F080E098E0F80191838083A0910A08D0
:10255000B0910B0813C0C416D506E606F70628F09E
:10256000C816D906EA06FB0660F384EF97E0F80187
:1025700091838083A091FE07B091FF072CE330E0A8
:102580000E9486536C0D7D1D8E1D9F1DDF91CF9186
:102590001F910F91FF90EF90DF90CF900895DC0195
:1025A00080E0615090F09D919827E92FEF70F0E066
:1025B000EF51FC4F2491E92FE295EF70F0E0EF50DE
:1025C000FC4FE491822F8E27ECCF0895DC012C91F3
:1025D0001196ED91FC91F8948181822B81839281F7
:1025E000322F30959323928387E090E00197F1F7A3
:1025F00081818323818383E290E00197F1F79081C9
:102600007894EFECF0E03197F1F7922381E009F450
:1026100080E00895FC0190810180F281E02D292F56
:10262000209560FF14C0F894828182238283818187
:10263000892B8183A3E2B0E01197F1F78281982B77
:102640009283789487ED90E00197F1F70895F894DC
:102650008281822382838181892B8183AFEFB0E0E5
:102660001197F1F78281982B928378948FE090E014
:10267000EBCFDF92EF92FF920F931F93CF93DF93F5
:10268000EC01D62EE42E08E010E0FF24F39461E084
:102690008D2D8F2109F460E0CE010E940A13FF0CFA
:1026A00001501109A1F7E11010C0F894E981FA81F5
:1026B00091818881809589238183E981FA81928142
:1026C00088818095892382837894DF91CF911F91AF
:1026D0000F91FF90EF90DF900895EF92FF920F938C
:1026E0001F93CF93DF938C017B0140E065E50E944F
:1026F0003913E70188E0E80EF11C699140E0C80158
:102700000E943913CE15DF05C1F7DF91CF911F91DC
:102710000F91FF90EF900895FC0190810180F2816C
:10272000E02DF8948181292F20958223818378944C
:102730003DE743E050E0315029F1DA011197F1F71C
:1027400080818923C1F3F8948281822382838181ED
:10275000892B81837894ABE7B7E01197F1F7F89470
:10276000818182238183A3E1B1E01197F1F7808118
:10277000982381E009F080E07894E3E6F6E0319771
:10278000F1F7089580E008956F927F928F929F9263
:10279000AF92BF92CF92DF92EF92FF920F931F936F
:1027A000CF93DF938C01EB018091D10C9091D20CEF
:1027B0000E948C13882309F43FC0B8018091D10C8A
:1027C0009091D20C0E946D1340E06EEB8091D10C81
:1027D0009091D20C0E9439137E016E0189E0C80EDF
:1027E000D11C8E01A090D10CB090D20C88E0882E24
:1027F000912C712C66246394C5010E94E61281110C
:102800007628660CE1E08E1A9108B1F7F801719212
:102810008F01CE16DF0631F78091D10C9091D20C4A
:102820000E948C13813041F4F70181917F01811165
:1028300005C0E017F107C1F790E008C068E0CE01DD
:102840000E94CF1291E028852813F6CF892FDF91BF
:10285000CF911F910F91FF90EF90DF90CF90BF909D
:10286000AF909F908F907F906F900895CF93DF935C
:1028700000D000D000D0CDB7DEB7BE016F5F7F4F74
:102880000E94C413882331F08D818F33A9F020F486
:102890008F31A1F080E007C08F3521F08F37D1F75D
:1028A0008CE001C08BE029960FB6F894DEBF0FBE16
:1028B000CDBFDF91CF9108958AE0F5CF89E0F3CFC6
:1028C00087EA9CE00C94010B87EA9CE00C94E40AF4
:1028D0008DEB9CE00C94010B8DEB9CE00C94E40AD6
:1028E00082EB9CE00C94010B82EB9CE00C94E40ADC
:1028F0003F924F925F926F927F928F929F92AF9290
:10290000BF92CF92DF92EF92FF920F931F93CF93DC
:10291000DF9300D01F92CDB7DEB79C838B83DC01A1
:102920006D917D918D919C91AE014F5F5F4F0E94A3
:1029300028124B015C01EB81FC81648175818681E9
:102940009781AE014F5F5F4F0E9428122B013C011F
:102950000E94060FAE014F5F5F4F0E9428126B016D
:102960007C010E9422110091FB068CE3382E039D0E
:1029700080011124C701B6010E9422118091FA063C
:10298000080F111DC301B2010E942211C090FB0665
:10299000C39C60011124C301B2010E9422118091E5
:1029A000FA06C80ED11CC501B4010E942211609024
:1029B000FB06639C30011124C501B4010E94221161
:1029C0003090FA06630C711CC614D70414F5061572
:1029D00017051CF4C016D106FCF0AB81BC8118961B
:1029E000ED91FC9119950F900F900F900F90DF9142
:1029F000CF911F910F91FF90EF90DF90CF90BF90FC
:102A0000AF909F908F907F906F905F904F903F908E
:102A1000089506151705F4F6AB81BC811A96ED9161
:102A2000FC91E0CF1F93CF93DF93EC98CEE6D8E0F4
:102A3000D0931102C093100280EA9DE00E94AA097F
:102A40008091BE0D9091BF0D9093C10D8093C00DEC
:102A50001092BF0D1092BE0DED98D0931302C0934B
:102A6000120288E69DE00E94AA098091860D90914D
:102A7000870D9093890D8093880D1092870D109289
:102A8000860D60911A0670911B06C091640DD0915D
:102A9000650D9091630D11E0190F1093630D24E003
:102AA000929FC0011124C80FD91F90E080E00E94BE
:102AB000B151688379838A839B839091610D191743
:102AC00010F01092630D8091620D891718F48F5FDA
:102AD0008093620D1092600D82ED96E19093110249
:102AE0008093100280916A00836080936A00EC9A60
:102AF0008AEC96E1909313028093120280916A000F
:102B00008C6080936A00ED9ADF91CF911F910895B8
:102B100083EE98E00E94FB088330910529F490939E
:102B2000670880936608089581309105C1F382E0BB
:102B300090E0F5CF8230910569F08330910571F016
:102B4000019771F48DEB9CE00E94FD0B8DEB9CE0F6
:102B50000C94020C8DEB9CE00C94FD0B1092C50CB8
:102B600008958230910569F08330910571F00197E5
:102B700071F487EA9CE00E94FD0B87EA9CE00C94CC
:102B8000020C87EA9CE00C94FD0B1092AF0C0895A8
:102B90008230910599F083309105C1F00197E1F4FD
:102BA00082E090E09093250C8093240C87E19CE0D8
:102BB0000E94FD0B87E19CE00C94020C9093250C85
:102BC0008093240C87E19CE00C94FD0B10921F0C69
:102BD00087E19CE00C94140B08950C94C815823086
:102BE000910569F08330910571F0019771F482EBE2
:102BF0009CE00E94FD0B82EB9CE00C94020C82EBAB
:102C00009CE00C94FD0B1092BA0C08958230910553
:102C100099F083309105C1F00197E1F482E090E0F2
:102C20009093550C8093540C87E49CE00E94FD0B1C
:102C300087E49CE00C94020C9093550C8093540C08
:102C400087E49CE00C94FD0B10924F0C87E49CE011
:102C50000C94140B08958091D30B811104C081E072
:102C60009CE00C94020C81E09CE00C94FD0B8091A4
:102C7000910B811108C08091F40B882321F08CE026
:102C80009CE00C94E40A8CE09CE00C94010BCF9245
:102C9000DF92EF92FF92EB988EE698E090931B0202
:102CA00080931A020E944C07C0901606D090170617
:102CB000E0901806F09019066C157D058E059F05AD
:102CC000B9F10E944C07C0901606D0901706E0900C
:102CD0001806F09019069B01AC012C193D094E090C
:102CE0005F09A0EDB7E00E941A53605A7F40810946
:102CF000910928EE33E040E050E00E942D53213D41
:102D000087E0380720F430931B0620931A0689EADF
:102D100096E190931B0280931A0280916900806C67
:102D200080936900EB9AFF90EF90DF90CF90089529
:102D3000C0901606D0901706E0901806F09019067D
:102D40000E944C07A7019601261B370B480B590B15
:102D5000C8CFCF93DF93EB98C0E1D2E08EE698E046
:102D60009B878A870E944C0760931606709317060C
:102D7000809318069093190687E496E19B878A87CB
:102D8000E9E6F0E080818F7380688083EB9ADF91C1
:102D9000CF910895E8E6FDE0868D978D0196978F97
:102DA000868F0895E0EAFDE0868D978D0196978FD6
:102DB000868F0895CF93DF9300D000D01F92CDB7B8
:102DC000DEB781E080934C0788E680936D07109210
:102DD000C4071092C30760E087EC97E00E94F603F7
:102DE0000E945A0581113BC041E067E088E60E94DD
:102DF00041061092C6078093C5070E94DB028F77B9
:102E00000E94D30E89830E94DB020E94D30E8A8324
:102E10000E94DB028F7B0E94D30E8B830E94DB0219
:102E20008C830E94DB020E94D30E8D830E94DB0202
:102E30008F770E94D30E8E830E94DB020E94D30EF6
:102E4000825E8F83CE0101960E94860F27960FB671
:102E5000F894DEBF0FBECDBFDF91CF91089560E043
:102E600070E0CB01F3CFFF920F931F93CF93DF93CB
:102E7000EC0101E000934C0788E680936D07109207
:102E8000C4071092C30760E087EC97E00E94F60346
:102E900028818AE0F82E822F6F2D0E945E53682FC2
:102EA000660F680F660F620F87EC97E00E94F603CB
:102EB0002981822F6F2D0E945E53682F660F680F45
:102EC000660F620F87EC97E00E94F6032A81822F3B
:102ED0006F2D0E945E53682F660F680F660F620F9A
:102EE00087EC97E00E94F6036B8187EC97E00E94E5
:102EF000F6032C81822F6F2D0E945E53682F660F80
:102F0000680F660F620F87EC97E00E94F6032D8131
:102F1000822F6F2D0E945E53682F660F680F660F19
:102F2000620F87EC97E00E94F6032E812E51822FCC
:102F30006F2D0E945E53682F660F680F660F620F39
:102F400087EC97E00E94F6030E945A05C82F009371
:102F50004C071092C4071092C3076FE087EC97E00C
:102F60000E94F6030E945A0581110CC041E061E005
:102F700088E60E9441061092C6078093C5070E940A
:102F8000DB02182F81E080934C071092C407109247
:102F9000C3076FE087EC97E00E94F603612F6F771D
:102FA00087EC97E00E94F6030E945A058C2FDF9170
:102FB000CF911F910F91FF900895BF92CF92DF9212
:102FC000EF92FF920F931F93CF93DF93EC01B62EF6
:102FD000C72E8D85811105C0CE010E948C138111F1
:102FE0000EC01B861D861C8680E0DF91CF911F914D
:102FF0000F91FF90EF90DF90CF90BF90089540E049
:1030000060EFCE010E94391301E0E12CD12C11E0D8
:10301000CE010E94E612F82ECE010E94E61291E047
:10302000F91218C0813099F51134D8F2DB86D1102D
:1030300002C081E08D878B81882399F22396EB2D46
:10304000FC2DCF01089629912193E817F907D9F7AC
:1030500081E0CBCFEE2DF0E0F8120FC08B85181772
:10306000A0F4DE01AE0FBF1F13968C91802379F47C
:10307000F12C193008F41C87D12EEC0FFD1F838131
:10308000902F9095892383830AC08113F1CFFE018D
:10309000EE0DF11D8381802B8383FF24F3946F2D2C
:1030A000CE010E940A131F5F000F11F4E39401E0A8
:1030B00087E08E1508F0ACCFB7CFFF920F931F9328
:1030C000CF93DF938C01F62EE091D10CF091D20CCE
:1030D000138615861486128611861086178216822C
:1030E000158214821382C0E0B8018091D10C9091B6
:1030F000D20C0E94DD17D82F882329F0FC1629F066
:10310000CF5FFC1688F7D0E008C067E0C8010E94D6
:10311000CF12F80197818913F3CF8D2FDF91CF91D3
:103120001F910F91FF900895EF92FF920F931F93BD
:10313000CF93DF9300D000D000D0CDB7DEB78C01A5
:10314000FC018081FF24F394803109F46FC0BE013B
:103150006F5F7F4FC8010E94C413F82E882309F4C3
:1031600065C08D818F3109F461C08FE18D838091BD
:10317000D10C9091D20C0E948C13B8018091D10C8B
:103180009091D20C0E946D1340E06EE48091D10CBE
:103190009091D20C0E94391340E06B818091D10C48
:1031A0009091D20C0E94391340E06C818091D10C37
:1031B0009091D20C0E943913F8018081803141F046
:1031C00040E06D818091D10C9091D20C0E94391316
:1031D000E090CE0C8091D10C9091D20CEE2009F4AD
:1031E00062C00E948C13882309F1B8018091D10C30
:1031F0009091D20C0E946D134091C80C68E48091AC
:10320000D10C9091D20C0E9439138091C80C81117D
:1032100031C064E170E080E090E00E941907809185
:10322000D10C9091D20C0E948C13FE2C89E08093DB
:10323000CB0C8091CF0C8230D8F110E08091CF0C74
:103240001817B0F58091CB0C8C3091F1612FCE0125
:1032500001960E945D188981803141F1CE0101966D
:103260000E9436149091CB0C981710F48093CB0CDD
:103270001F5FE4CF8091C90C882329F060E0809122
:10328000CA0C0E948C0464E170E080E090E00E942F
:1032900019078091C90C882311F261E08091CA0C52
:1032A0000E948C04BCCF0E948C13C0CF8CE0DACF7C
:1032B0008F2D29960FB6F894DEBF0FBECDBFDF91DC
:1032C000CF911F910F91FF90EF900895DF92EF92B1
:1032D000FF920F931F93CF93DF938C01C62FD42EB1
:1032E000E52E41E060E2FC0185890E944106F82E4E
:1032F0001092C6078093C5070E94DB02F801818FF8
:10330000CC2369F0CD2DDE2D8091C607F81639F05B
:103310000E94DB0289938111F7CF0E945A05F801C0
:10332000818DDF91CF911F910F91FF90EF90DF90F2
:103330000895BF92CF92DF92EF92FF920F931F9367
:10334000CF93DF93CDB7DEB7E0970FB6F894DEBF2B
:103350000FBECDBF8C01B62EAE014F5F5F4F61E057
:103360000E946619813071F5D801ED91FC910480BD
:10337000F581E02DBE016F5F7F4FC80119956B018C
:103380007C01D8015196ED91FC915297309741F014
:10339000BB2031F0BC01A60116968D919C91199528
:1033A000C701B601E0960FB6F894DEBF0FBECDBFE1
:1033B000DF91CF911F910F91FF90EF90DF90CF9011
:1033C000BF900895C12CD12C80E8E82E8FEBF82E09
:1033D000E7CFCF93DF93EC018F89811118C08D89DE
:1033E00091E090934C0780936D071092C407109260
:1033F000C30762E787EC97E00E94F6030E945A0534
:103400008F8991E089278F8BDF91CF91089561E0BB
:10341000CE010E949919F4CFCF93DF93FC01228D46
:10342000338D21303105E9F02230310521F0DF9173
:10343000CF910C94E919208D222399F0EC0150E0F2
:1034400040E060E00E946619813041F48E8D9F8DCE
:10345000A8A1B9A18AA39BA3ACA3BDA3188E1B8E60
:103460001A8EDF91CF91089585ED8093BC008091F5
:10347000480790914907A0914A07B0914B070796DA
:10348000A11DB11D23E0B695A795979587952A951F
:10349000D1F72091BC0024FD03C010924607089587
:1034A000409148075091490760914A0770914B0736
:1034B000452B462B472B69F30097A105B10541F039
:1034C00025E32A95F1F700000197A109B109E1CFA1
:1034D000809147070C94D804CF93DF931F921F92DB
:1034E000CDB7DEB79A83898342E050E0CE010196E2
:1034F0000E94E3520F900F90DF91CF910895CF92E9
:10350000DF92EF92FF92CF93DF93CDB7DEB769974B
:103510000FB6F894DEBF0FBECDBF82E0898F41E0C9
:1035200050E070E060E0CE0149960E94E35280ECEA
:10353000C82E8CE3D82E89E9E82E8AE5F82EC982B8
:10354000DA82EB82FC8244E050E061E070E0CE0180
:1035500001960E94E352CD82DE82EF82F88644E03B
:1035600050E069E070E0CE0105960E94E35290EED3
:10357000C92E99E3D92E9AE9E92E9AE5F92EC98642
:10358000DA86EB86FC8644E050E065E070E0CE0130
:1035900009960E94E352CD86DE86EF86F88A44E0E3
:1035A00050E06DE070E0CE010D960E94E35280E79E
:1035B00095E9A9EEBBE5898B9A8BAB8BBC8B44E07C
:1035C00050E06FE470E0CE0141960E94E35280E04B
:1035D00094E1AAEEBBE58D8B9E8BAF8BB88F44E058
:1035E00050E061E570E0CE0145960E94E35261E152
:1035F00070E088E097E00E946C1A65E170E088E076
:1036000097E00E946C1A67E170E084E893E00E9402
:103610006C1A69E170E08CE89AE00E946C1A69E12A
:1036200070E08CE89AE00E946C1A63E270E085E03A
:1036300090E00E946C1A65E270E08CE390E00E94DA
:103640006C1A67E270E085E090E00E946C1A61E21B
:1036500070E08AE090E00E946C1A69E270E08CE30E
:1036600090E00E946C1A6FE170E089E190E00E94A6
:103670006C1A6DE170E08CE494E00E946C1A6BE1CE
:1036800070E08CE390E00E946C1A6DE270E082E0E2
:1036900090E00E946C1A6BE270E082E090E00E9481
:1036A0006C1A65E470E082E090E00E946C1A67E4B6
:1036B00070E082E090E00E946C1A69E470E082E0C1
:1036C00090E00E946C1A6BE470E082E090E00E944F
:1036D0006C1A6DE470E082E090E00E946C1A6996CA
:1036E0000FB6F894DEBF0FBECDBFDF91CF91FF9034
:1036F000EF90DF90CF900895CF93DF9300D01F928B
:10370000CDB7DEB719821A821B821C8244E050E0DA
:10371000BC01CE0101960E94D35269817A818B81CE
:103720009C810F900F900F900F90DF91CF91089593
:10373000CF93DF931F921F92CDB7DEB71A82198203
:1037400042E050E0BC01CE0101960E94D352898133
:103750009A810F900F90DF91CF91089585E090E0CE
:103760000E947C1B6093390670933A0680933B0657
:1037700090933C0680E694E19093400680933F0648
:1037800081E090E00E947C1B6093350670933606C2
:10379000809337069093380684E694E190933E0632
:1037A00080933D068DE090E00E947C1B609345066F
:1037B00070934606809347069093480688E694E106
:1037C00090934C0680934B0689E090E00E947C1B0E
:1037D000609341067093420680934306909344069B
:1037E0008CE694E190934A068093490681E590E047
:1037F0000E947C1B6093510670935206809353067F
:103800009093540680E794E190935806809357066E
:103810008FE490E00E947C1B60934D0670934E06EF
:1038200080934F069093500684E794E19093560658
:103830008093550687E190E00E94981BBC0187E4C5
:103840009CE00E94C70A89E190E00E94981BBC019D
:1038500087E49CE00E94AB0A81E190E00E94981B03
:10386000BC0187E19CE00E94C70A85E190E00E94CC
:10387000981BBC0187E19CE00E94AB0A8BE190E0C1
:103880000E94981BBC0190E080E00E94B15120E0B2
:1038900030E040E251E40E940E5460935A08709365
:1038A0005B0880935C0890935D0883E290E00E943F
:1038B000981B009721F090936D0880936C0885E227
:1038C00090E00E94981B009721F090936F088093DE
:1038D0006E0887E290E00E94981B009721F0909379
:1038E0007108809370088DE290E00E94981B8330ED
:1038F0009105D1F5909367088093660885E490E080
:103900000E94981BBC018EE09BE00E946A0987E43C
:1039100090E00E94981BBC0182E599E00E946A0930
:1039200089E490E00E94981BBC018FE99AE00E9414
:103930006A098BE490E00E94981BBC0180E39AE046
:103940000E946A098DE490E00E94981BBC0181EC02
:1039500099E00E946A098DE290E00E94981BBC01E8
:1039600083EE98E00C946A098130910519F282E0A7
:1039700090E0C0CF0E94E555FB0101900020E9F7DF
:103980003197AF01461B570BDC01ED91FC91028092
:10399000F381E02D19946CE373E00C94BC1CFC01E2
:1039A000858991E090934C0780936D071092C4072E
:1039B0001092C30787EC97E00E94BC1C0C945A0538
:1039C000CF93DF93EC016FE373E00E94CF1C6CE2B6
:1039D00071E080E090E00E94190750E040E060E074
:1039E000CE010E94661991E0813009F090E0892FA4
:1039F000DF91CF9108958F929F92AF92BF92EF92F5
:103A0000FF920F931F93CF93DF93CDB7DEB7A197AC
:103A10000FB6F894DEBF0FBECDBF7C01FA01CB011B
:103A200019A2223008F42AE08E010F5D1F4F822E6A
:103A3000912CB12CA12CBF01A50194010E942D5302
:103A4000F901CA016A300CF5605DD8016E938D01F1
:103A5000232B242B252B79F790E080E0109721F081
:103A6000BD01C7010E94BC1CA1960FB6F894DEBF31
:103A70000FBECDBFDF91CF911F910F91FF90EF90BF
:103A8000BF90AF909F908F900895695CDECFAB019F
:103A900070E060E02AE00C94FB1C8F929F92AF9242
:103AA000BF92CF92DF92EF92FF920F931F93CF932B
:103AB000DF93EC016A017B01AB019601CB01B601FA
:103AC0000E94BB5469E473E0811126C0460157018E
:103AD000E894B7F82FEF3FEF4FE75FE7C501B40178
:103AE0000E94BB5481110CC02FEF3FEF4FE75FE7FF
:103AF000C501B4010E94AC516DE473E0181664F086
:103B00002FEF3FEF4FE75FE4C701B6010E94B654C5
:103B100018168CF461E573E0CE01DF91CF911F910F
:103B20000F91FF90EF90DF90CF90BF90AF909F905C
:103B30008F900C94BC1C2FEF3FEF4FE75FECC70159
:103B4000B6010E94AC5187FDE5CF20E030E0A9012D
:103B5000C701B6010E94AC5110E000E087FF09C028
:103B60006DE2CE010E946F088C01F7FAF094F7F82D
:103B7000F0942AE037ED43EA5BE3C701B6010E9407
:103B8000A2536B017C010E9487544B015C010E948F
:103B9000B1519B01AC01C701B6010E94A1536B0159
:103BA0007C012AE0B501A401CE010E94FB1C080F94
:103BB000191F6EE2CE010E946F08080F191F20E046
:103BC00030E040E251E4C701B6010E9412524B01BD
:103BD0005C010E9487546B01CE010E94471D080FB3
:103BE000191FB60190E080E00E94B1519B01AC0129
:103BF000C501B4010E94A15320E030E040E251E44D
:103C00000E9412520E948754CE010E94471D800FCD
:103C1000911FDF91CF911F910F91FF90EF90DF9057
:103C2000CF90BF90AF909F908F900895CF92DF92EA
:103C3000EF92FF920F931F93CF93DF936B01770F58
:103C4000EE08FF08F7FE1BC0EC016DE20E946F0852
:103C50008C0144275527BA014C195D096E097F096B
:103C60002AE0CE010E94FB1C800F911FDF91CF91B3
:103C70001F910F91FF90EF90DF90CF9008952AE071
:103C8000B701A601DF91CF911F910F91FF90EF90A7
:103C9000DF90CF900C94FB1C462F50E070E060E06A
:103CA0002AE00C94FB1C8F929F92AF92BF92CF920E
:103CB000DF92EF92FF920F931F93CF93DF937C01DC
:103CC0008B014C0182E0880E911C5701E5E0AE0E9D
:103CD000B11CD0E0C0E0F40161914F01C8010E9425
:103CE0004C1E6C016EE2C8010E946F088C0D9D1D78
:103CF000C80FD91F8A149B0471F7F7016581C801A9
:103D00000E944C1E8C0F9D1FDF91CF911F910F9130
:103D1000FF90EF90DF90CF90BF90AF909F908F90EB
:103D200008950C94BC1CFF920F931F93CF93DF93C5
:103D30008C01EB01F42E65E573E0CE010E94911E2B
:103D4000F80162817381CE010E94161E6BE573E05B
:103D5000CE010E94911EF8018681978161E4892B32
:103D600009F464E4CE010E946F0867E673E0CE01B7
:103D70000E94911EF80144855585668577852AE065
:103D8000CE010E94FB1C69E773E0CE010E94911EE8
:103D9000F801608970E0CE010E94161E69E873E0A8
:103DA000CE010E94911EFF2041F0CE01DF91CF9104
:103DB0001F910F91FF900C94CB1CDF91CF911F911D
:103DC0000F91FF900895FF920F931F93CF93DF936E
:103DD0008C01EB01F42E65E573E0CE010E94911E8B
:103DE000F80162817381CE010E94161E6CE873E0B7
:103DF000CE010E94911EF801618581E0682770E084
:103E0000CE010E94161E6AE973E0CE010E94911E47
:103E1000F801608570E0CE010E94161E67EA73E02B
:103E2000CE010E94911EF801628570E0CE010E94D1
:103E3000161E69E873E0CE010E94911EFF2041F03A
:103E4000CE01DF91CF911F910F91FF900C94CB1C6D
:103E5000DF91CF911F910F91FF900895FF920F93E3
:103E60001F93CF93DF938C01EB01F42E40E00E946F
:103E7000E31E66EB73E0CE010E94911EF8014785B8
:103E80005089618972892AE0CE010E94FB1C61ED94
:103E900073E0CE010E94911EF8014389548965891F
:103EA00076892AE0CE010E94FB1C6EEE73E0CE0103
:103EB0000E94911EF801678970E0CE010E94161ED3
:103EC0006CEF73E0CE010E94911EF80140A151A158
:103ED00062A173A12AE0CE010E94FB1C60E174E0A4
:103EE000CE010E94911EF80163857485CE010E9467
:103EF000161E6CE174E0CE010E94911EF8016585EA
:103F00007685CE010E94161E69E274E0CE010E9401
:103F1000911EF80166A177A1CE010E94471D62E4BF
:103F200074E0CE010E94911EF80160A571A5CE013A
:103F30000E94471D65E574E0CE010E94911EF801C4
:103F400042A553A564A575A52AE0CE010E94FB1CDD
:103F50006AE873E0CE010E94911EFF2041F0CE017D
:103F6000DF91CF911F910F91FF900C94CB1CDF91AB
:103F7000CF911F910F91FF9008951F93CF93DF93DF
:103F8000EB01142F40E00E942E1F112331F0CE01CF
:103F9000DF91CF911F910C94CB1CDF91CF911F919A
:103FA0000895FF920F931F93CF93DF938C01EB0142
:103FB000F42E40E00E94931E67E674E0CE010E945A
:103FC000911EF801648970E0CE010E94161E66E71A
:103FD00074E0CE010E94911EF80165897689CE01B8
:103FE0000E94471D65E874E0CE010E94911EF80111
:103FF000678D70A1CE010E94161E6AE873E0CE01A3
:104000000E94911EFF2041F0CE01DF91CF911F91C0
:104010000F91FF900C94CB1CDF91CF911F910F91CA
:10402000FF900895FF920F931F93CF93DF938C011E
:10403000EB01F42E69E974E0CE010E94911EF801B3
:104040006589CE010E944C1E67EA74E0CE010E9491
:10405000911EF80146A157A160A571A5CE010E944D
:104060004D1D6CEA74E0CE010E94911EF80142A140
:1040700053A164A175A1CE010E944D1D65EC74E0B1
:10408000CE010E94911EF801618DCE010E944C1E4E
:104090006AE873E0CE010E94911EFF2041F0CE013C
:1040A000DF91CF911F910F91FF900C94CB1CDF916A
:1040B000CF911F910F91FF900895FF920F931F933F
:1040C000CF93DF938C01EB01F42E6EEC74E0CE0104
:1040D0000E94911EF8016589CE010E944C1E6BED75
:1040E00074E0CE010E94911EF80146A157A160A57F
:1040F00071A5CE010E944D1D60EE74E0CE010E94BC
:10410000911EF80142A553A564A575A5CE010E9494
:104110004D1D66EE74E0CE010E94911EF80146A589
:1041200057A560A971A9CE010E944D1D61EF74E0F1
:10413000CE010E94911EF80142A953A964A975A954
:10414000CE010E944D1D6CEA74E0CE010E94911ECA
:10415000F80142A153A164A175A1CE010E944D1D99
:1041600065EC74E0CE010E94911EF801618DCE01D4
:104170000E944C1E6AE873E0CE010E94911EFF204F
:1041800041F0CE01DF91CF911F910F91FF900C94E0
:10419000CB1CDF91CF911F910F91FF9008952F922B
:1041A0003F924F925F926F927F928F929F92AF92C7
:1041B000BF92CF92DF92EF92FF920F931F93CF9314
:1041C000DF9300D01F92CDB7DEB78C017C836B8369
:1041D00064E075E08B819C810E94911E68012EE352
:1041E000C20ED11CF60140815181628173818B81A5
:1041F0009C810E944D1D69E075E08B819C810E942D
:10420000911E7801FEE4EF0EF11CF70160817181CF
:104210008B819C810E94161E68E175E08B819C81D8
:104220000E94911EF801E05BFF4F608171818B81DC
:104230009C810E94471D65E275E08B819C810E94F4
:10424000911EF801EE5AFF4F608171818B819C8134
:104250000E94471D66E375E08B819C810E94911E40
:10426000F801EC5AFF4F608171818B819C810E9423
:10427000471D65E475E08B819C810E94911EF801C9
:10428000E65BFF4F608171818B819C810E94161ECD
:1042900063E575E08B819C810E94911EF801EA5ACA
:1042A000FF4F608170E08B819C810E94161E66E644
:1042B00075E08B819C810E94911EF80142AD53AD47
:1042C00064AD75AD8B819C810E944D1D6BE675E0E0
:1042D0008B819C810E94911E1801F2E42F0E311CEB
:1042E000F10180809180A280B38020E030E0A901BC
:1042F000C501B4010E94AC5198012A5B3F4F3A833B
:10430000298381112FC0F90180809180A280B38020
:1043100020E030E0A901C501B4010E94AC51811137
:1043200008C08DEC882E8CEC982E8CE4A82E8DE3A2
:10433000B82EF6014080518062807380F701808141
:104340009181892B09F06FC0A501940160E070E0B4
:1043500080E89FE30E94A153A30192010E941252A0
:104360004B015C01B501A4018B819C810E944D1D14
:104370006BE775E08B819C810E94911EF101408169
:104380005181628173818B819C810E944D1D64E803
:1043900075E08B819C810E94911EE981FA814081A8
:1043A0005181628173818B819C810E944D1D63E9E3
:1043B00075E08B819C810E94911EF801E95AFF4FA4
:1043C000608170E08B819C810E94161E69EA75E015
:1043D0008B819C810E94911E61E070E0F8019285C2
:1043E0008185981711F070E060E08B819C810E94BC
:1043F000161E8B819C810F900F900F900F90DF9174
:10440000CF911F910F91FF90EF90DF90CF90BF90D1
:10441000AF909F908F907F906F905F904F903F9064
:104420002F900C94CB1C20E030E040E85FE3C50106
:10443000B4010E94A25390CFCF93DF93EC01CB0144
:104440000E94AD4D6EA37FA388A799A7DF91CF915E
:104450000895CF93DF93EC01CB0166EB75E00E94EA
:10446000B14D0E94AD4D6EA37FA388A799A766EBBF
:1044700075E090E080E00E94B14D0E94AD4D6AA7CA
:104480007BA78CA79DA766EB75E090E080E00E947B
:10449000B14D0E94AD4D6EA77FA788AB99AB66EB7F
:1044A00075E090E080E00E94B14D0E94AD4D6AAB96
:1044B0007BAB8CAB9DAB6EA17FA188A599A5DF914D
:1044C000CF9108950F931F93CF93DF93CDB7DEB7AE
:1044D000E0970FB6F894DEBF0FBECDBF8C0168EB3E
:1044E00075E00E94CF1C6CE271E080E090E00E94D9
:1044F0001907AE014F5F5F4F61E0C8010E94661966
:104500008130F1F466EB75E0CE0101960E94B14D69
:104510000E94AD4D66EB75E090E080E00E94B14DE9
:104520000E94AD4D0E948054CB01E0960FB6F894E6
:10453000DEBF0FBECDBFDF91CF911F910F910895C8
:104540008FEF9FEFF2CF0F931F93CF93DF93CDB7F2
:10455000DEB7E0970FB6F894DEBF0FBECDBF8C017B
:104560006EEB75E00E94CF1C6CE271E080E090E0A1
:104570000E941907AE014F5F5F4F61E0C8010E94C2
:1045800066198130A9F466EB75E0CE0101960E94B0
:10459000B14D0E94AD4D66EB75E090E080E00E9469
:1045A000B14D0E94AD4DF80162A373A384A395A3FE
:1045B000E0960FB6F894DEBF0FBECDBFDF91CF916E
:1045C0001F910F9108958F929F92AF92BF92CF92B9
:1045D000DF92EF92FF920F931F93CF93DF93CDB7AC
:1045E000DEB764970FB6F894DEBF0FBECDBF7C0177
:1045F0004A015B0182E090E0F701938F828F878907
:10460000882331F060E0C7010E949919F701178AE9
:104610006E01FBE0CF0ED11C860121E044E0C50114
:10462000B4010E94EB4CDF92CF9282EC95E09F9315
:104630008F930A5011091F930F930E94F155B801EF
:10464000C7010E94CF1C81E0F701808F868E978E74
:10465000A0A2B1A20F900F900F900F900F900F900B
:1046600064960FB6F894DEBF0FBECDBFDF91CF9139
:104670001F910F91FF90EF90DF90CF90BF90AF9080
:104680009F908F9008954091280250912902609147
:104690002A0270912B0280911C06882389F082E007
:1046A00090E090932D0280932C0280E09DE00E9488
:1046B000E32280911C0691E0892780931C060895CF
:1046C00083E090E090932D0280932C0286E39DE09E
:1046D000EECFAF92BF92CF92DF92EF92FF920F9305
:1046E0001F93CF93DF9300D01F92CDB7DEB78C011D
:1046F0006B017A018091F6068333E9F45B0168016E
:10470000C40ED51EC016D106A9F10E94280D8FE057
:104710000E94330D812F0E94330D802F0E94330D94
:104720000F5F1F4F80E00E94330DF50181935F0101
:104730000E941E0DE7CF843369F50E94280D19836E
:104740000A838F2D8F778B83EC8264E070E0CE013B
:1047500001960E94040DA70170E060E0C6010E946E
:10476000EA55E114F10421F0B701C6010E94040DDD
:104770000E941E0DC7010F900F900F900F90DF91B8
:10478000CF911F910F91FF90EF90DF90CF90BF904E
:10479000AF9008950E94280D0F3F110509F030F4E5
:1047A00019820A831B8263E070E0D1CF17FD0BC032
:1047B00019820A8333E0169507953A95E1F7007E52
:1047C00008600B83F0CFC80126E0969587952A955F
:1047D000E1F7807E19830A830115104C18F480617B
:1047E0008B83E1CF8861FCCFCF93DF931F92CDB74E
:1047F000DEB72091F70630E0322F2227260F371F31
:1048000090E0982F882741E050E0BE016F5F7F4F16
:10481000820F931F0E94692389810F90DF91CF91AE
:104820000895CF93C82F462F61E070E00E94460E96
:1048300061E070E08C2F0E94F4238111F9CFCF91B9
:104840000895CF93C82F80E591E00E94490368E066
:1048500070E08C2FCF910C941124CF93C82F80E55A
:1048600091E00E94490360E170E08C2FCF910C949D
:104870001124CF93DF93EC01888D883020F40E94BF
:104880002D2488E0888FDF91CF91089563E070E058
:104890000C94F423CF93C82F80E591E00E94490344
:1048A0008C2FCF910C944624CF93DF93EC018C8511
:1048B0008830D0F40E944A24843189F0882379F02A
:1048C000883169F021E08C3159F4E881F981008464
:1048D000F185E02DCE01199521E0892B09F420E026
:1048E000822FDF91CF91089580E0FBCFCF92DF92AE
:1048F000EF92FF92CF93DF93EC018C85883068F4C0
:104900000E9421240E944C076B017C018C850E942F
:104910004A24811109C088E08C87DF91CF91FF90F4
:10492000EF90DF90CF90089561E070E080E090E03C
:104930000E9419070E944C07AB01BC014C195D098C
:104940006E097F098D859E85B0E0A0E04817590764
:104950006A077B07D8F28C850E942D24DCCFEF926A
:10496000FF920F931F93CF93DF937C018091F60604
:10497000D4E0833309F0D8E002EE16E0C0E0F8019D
:10498000219131918F01F701848195812817390791
:1049900029F0CF5FDC13F3CF80E006C08C2F0E949C
:1049A0004A248431B1F781E0DF91CF911F910F91BB
:1049B000FF90EF900895CF93FC01C08D80E591E0CA
:1049C0000E94490360E270E08C2F0E94112462E093
:1049D00070E08C2F0E94F42384FD16C062E070E02A
:1049E0008C2F0E94F42383FF0AC048E162E070E04C
:1049F0008C2F0E94460E80E090E0CF91089580E5D4
:104A000091E00E944903E3CF40E162E070E08C2F27
:104A10000E94460E81E0F0CFCF93DF931F92CDB777
:104A2000DEB741E050E0BE016F5F7F4F90E080E075
:104A30000E94692389810F90DF91CF910895CF93D0
:104A4000DF93C4E1D0E00E940C25882361F061E08F
:104A500070E080E090E00E9419072197A1F780E0C4
:104A6000DF91CF91089581E0FBCFCF92DF92EF925B
:104A7000FF921F93CF93DF93CDB7DEB76A970FB640
:104A8000F894DEBF0FBECDBFFA0122E233E03A83D5
:104A900029835FEF5B835C835D831E8238872F836E
:104AA000C280D380E480F580C986DA86EB86FC86F6
:104AB000FB0142815381648175814F87588B698BDB
:104AC0007A8B3C8B2B8BFC0182819381A481B581F5
:104AD0008D8B9E8BAF8BB88F8091F80681119BC018
:104AE00060E372E080E090E00E9419071FB7F8943D
:104AF0008091F506811127C0EAECF4E08491E0E1B1
:104B0000F5E09491E82FF0E0EE0FFF1FEF59FB4F17
:104B1000A591B491EC91E92321F461E085E30E9431
:104B20008C0461E085E30E94F9048CB580618CBD42
:104B30008CB580648CBD61E084E30E94F90461E07F
:104B400083E30E94F9048091F5068F5F8093F50658
:104B50001FBFEFE9F4E0E491F0E0EE0FFF1FE95B27
:104B6000FB4F859194919093F4068093F306E5EEC4
:104B7000F4E0E491E093F20661E08AE00E94F90437
:104B80000E941E0D80E591E00E94490384E380931A
:104B9000F60680E80E94E80D0E941F25882309F48C
:104BA0006EC088E00E94E80D0E940C25883009F054
:104BB00066C080E10E94E80D0E940C25803109F05A
:104BC0005EC080E00E94E80D0E940C25182F811124
:104BD00056C041E050E0BE01675E7F4F8FE190E03C
:104BE0000E946923898D833009F049C080E4809355
:104BF000F70642E06EE170E0812F0E94460E42E02F
:104C00006FE170E0812F0E94460E1F5F183089F718
:104C100081E08093F80680E591E00E94490346E038
:104C200050E060E372E089E090E00E943A0D44E0D9
:104C300050E0BE016B5E7F4F8FE090E00E943A0D26
:104C400044E050E0BE01675F7F4F81E090E00E944A
:104C50003A0D44E050E0BE016D5F7F4F85E090E08B
:104C60000E943A0D8F859889A989BA898093B507E2
:104C70009093B607A093B707B093B80769C087E3CE
:104C80008093F60680E80E94E80D0E941F25882385
:104C900029F188E00E94E80D0E940C258830F1F48B
:104CA00080E10E94E80D0E940C25182F8031B1F49C
:104CB00080E00E94E80D0E940C2581110FC041E0A8
:104CC00050E0BE01675E7F4F89E390E00E94692358
:104CD000898D843019F41093F7069ACF83E380937B
:104CE000F60680E80E94E80D0E941F25882371F1D6
:104CF00080E10E94E80D0E940C25803139F582E1A7
:104D00000E94E80D0E940C25823101F580E00E948E
:104D1000E80D0E940C25811119C084E08093F706EC
:104D200015E51A8F41E050E0BE01665E7F4F8BE1D2
:104D300090E00E943A0D198F41E050E0BE01675E9D
:104D40007F4F8AE190E00E943A0D62CF1092F60602
:104D50006A960FB6F894DEBF0FBECDBFDF91CF913C
:104D60001F91FF90EF90DF90CF9008951F93CF9306
:104D7000DF931F92CDB7DEB7182F80E591E00E9438
:104D80004903812F0E94FB0D27E0129FF00111249F
:104D9000E655F94F22813381377041E050E0BE0182
:104DA0006F5F7F4F820F931F0E94692389810F904D
:104DB000DF91CF911F910895CF93DF93FC0124855C
:104DC000283028F08FEF9FEFDF91CF910895EC010D
:104DD0000190F081E02D0084F185E02D1995892B5B
:104DE00089F38C850E94B62690E0EECFFC01808D81
:104DF000883040F4218D328D232B21F00E94B6267D
:104E000090E008958FEF9FEF0895DA01E091F706A3
:104E1000F0E0FE2FEE27E60FF71F90E0982F88278F
:104E2000A901BD018E0F9F1F0C9469238F929F9241
:104E3000AF92BF92CF92DF92EF92FF920F931F93A8
:104E4000CF93DF93CDB7DEB760970FB6F894DEBF90
:104E50000FBECDBF7C019091F606911115C018E0F0
:104E6000812F60960FB6F894DEBF0FBECDBFDF91E5
:104E7000CF911F910F91FF90EF90DF90CF90BF9057
:104E8000AF909F908F90089508E0933309F404E069
:104E90006B0180E591E00E9449039E012F5F3F4F27
:104EA0005901490110E0812F0E944624F4018193A9
:104EB0004F018823C1F01F5F0113F5CF00E0F5011A
:104EC00081915F018D3149F0883139F08A5182300A
:104ED00020F00F5F1013F3CFC2CF60E170E0802F9E
:104EE0000E941124102FA12EB12CF501EE0FFF1FEF
:104EF000EE51F94F1182108283EE93E00197F1F7A2
:104F000042E870E060E0812F0E94460E4FEF62E0C1
:104F100070E0812F0E94460EB601C114D10491F4B5
:104F200080912E0290912F0201968115F0EC9F073F
:104F300008F45CC090932F0280932E0260912E02A1
:104F400070912F02812F0E94300E86E0E0E4F2E0A3
:104F5000DE01199601900D928A95E1F7F7018381A0
:104F60008F778C8784818D8785818E87A7014E5F9F
:104F70005F4F24E030E06CE070E0812F0E94090E6A
:104F8000B601812F0E941A0E26E030E0AE01475F85
:104F90005F4F66E070E0812F0E94090E61E070E0D3
:104FA000812F0E94112427E02A9DC0012B9D900D86
:104FB00011249C012655394F7901F9011182108283
:104FC00022E030E0AE01415F5F4F68E270E0812F88
:104FD0000E9405278F859889982789279827F701A8
:104FE000938382831682158214823ACF80E090ECFC
:104FF000A1CFCF92DF92EF92FF920F931F93CF93A7
:10500000DF9300D000D0CDB7DEB78C016B017A0101
:10501000FC01808D883010F40E942D2482E293E000
:105020009A838983F60182819381A481B5818B83E0
:105030009C83AD83BE83B701CE0101960E941627E3
:10504000F801808F8830A0F4F586E486128E118EE8
:1050500081E026960FB6F894DEBF0FBECDBFDF917C
:10506000CF911F910F91FF90EF90DF90CF90089517
:1050700080E0EFCF0F931F93CF93DF931F921F9288
:10508000CDB7DEB7FC0124852830E0F48C0180E543
:1050900091E00E94490322E030E0AE014F5F5F4F94
:1050A00060E170E0F80184850E94052789819A817A
:1050B0009827892798270F900F90DF91CF911F9104
:1050C0000F91089590E080E0F6CFEF92FF920F935A
:1050D0001F93CF93DF9300D01F92CDB7DEB78C0123
:1050E0007B01FB0184858830A8F082E293E0F8011F
:1050F000918380831282138214821582C8010F90DB
:105100000F900F900F90DF91CF911F910F91FF9013
:10511000EF90089580E591E00E94490324E030E09B
:10512000AE014F5F5F4F6CE070E0F70184850E9435
:10513000052782E293E0F8019183808389819A8137
:10514000AB81BC8182839383A483B583D7CF0F9334
:105150001F93CF93DF931F921F92CDB7DEB7FC0151
:1051600024852830E0F48C0180E591E00E94490319
:1051700022E030E0AE014F5F5F4F64E070E0F80185
:1051800084850E94052789819A81982789279827F5
:105190000F900F90DF91CF911F910F91089590E0A4
:1051A00080E0F6CF7F928F929F92AF92BF92CF9284
:1051B000DF92EF92FF920F931F93CF93DF931F9293
:1051C0001F92CDB7DEB7782E8B014A01590122E03C
:1051D00030E0AE014F5F5F4F64E270E00E94052750
:1051E000E980FA80FE24EF24FE24E00EF11E9701F0
:1051F00037704091F606072D10E0433309F042C0A6
:10520000085F1F4F102F0027110F110F110FC90139
:10521000800F911F4733C9F1A9014A0D5B1D413031
:10522000584098F160E078E06B01C21AD30AA601F9
:10523000B4010E943A0DA5014C195D09B4016C0D31
:105240007D1DC8010E943A0DEA0CFB1CF982EA821E
:1052500022E030E0AE014F5F5F4F64E270E0872DE7
:105260000E94090E0F900F90DF91CF911F910F9127
:10527000FF90EF90DF90CF90BF90AF909F908F9076
:105280007F900895005F1F4FBDCFA501B401DACF15
:10529000EF92FF921F93CF93DF931F921F92CDB790
:1052A000DEB7182F22E030E0AE014F5F5F4F60E2C3
:1052B00070E00E940527E980FA80FE24EF24FE2496
:1052C00022E030E0AE014F5F5F4F60E270E0812F7F
:1052D0000E94052789819A81982789279827E816AF
:1052E000F90689F487E0189FF0011124E655F94F7B
:1052F000F582E482C7010F900F90DF91CF911F914B
:10530000FF90EF9008957C01DBCF1F93CF93DF9345
:10531000182F80E591E00E944903812F0E944829BF
:10532000EC01812F0E944624873121F08C3111F04D
:10533000D0E0C0E0CE01DF91CF911F910895CF93CF
:10534000DF93EC018C85883060F40E944A24873119
:1053500011F08C3131F48C850E948529811598409B
:1053600088F3DF91CF910895FC018485883010F493
:105370000C94852990E080E00895CF92DF92EF921F
:10538000FF921F93CF93DF93182F7B01EA014130E7
:10539000584010F0C0E0D8E080E591E00E94490359
:1053A000812F0E9448296C01812F0E944624873159
:1053B00011F08C3121F5CC16DD0670F380E591E01B
:1053C0000E9449039E01A70170E060E0812F0E94C6
:1053D000D22860E270E0812F0E94112462E070E028
:1053E000812F0E94F42384FD0DC0812F0E9446244A
:1053F0008823B9F080E591E00E944903EFCFD0E027
:10540000C0E0DCCF40E162E070E0812F0E94460EF8
:10541000CE01DF91CF911F91FF90EF90DF90CF9061
:105420000895D0E0C0E0F4CF0F931F93CF93DF93A4
:105430008C01EA01FC018485883048F40E94BD2972
:10544000892B39F481E090E0F80193838283D0E0E6
:10545000C0E0CE01DF91CF911F910F9108959F92EF
:10546000AF92BF92CF92DF92EF92FF920F931F9372
:10547000CF93DF938C015B01942EE52EFC01C6884F
:10548000D788F08C80E591E00E9449038F2D0E941F
:105490004829C92DDE2D8C179D0708F4EC019E01CB
:1054A000A501B6018F2D0E94D228F801868997891F
:1054B0008C0F9D1F978B868BCE01DF91CF911F9113
:1054C0000F91FF90EF90DF90CF90BF90AF909F90A3
:1054D0000895FF920F931F93CF93DF931F921F9214
:1054E000CDB7DEB7F82E22E030E0AE014F5F5F4F60
:1054F00066E270E00E94052709811A8110270127C2
:10550000102722E030E0AE014F5F5F4F66E270E0AF
:105510008F2D0E94052789819A81982789279827AE
:105520000817190749F4C8010F900F90DF91CF9128
:105530001F910F91FF9008958C01E3CF1F93CF939C
:10554000DF93182F87E0189FE0011124C655D94F2B
:1055500088819981009761F480E591E00E94490378
:10556000812F0E94692A2E81821B91099983888349
:10557000DF91CF911F910895FC018485883010F44C
:105580000C949E2A90E080E008959F92AF92BF9283
:10559000CF92DF92EF92FF920F931F93CF93DF93FF
:1055A000EC017B018091F606811121C01B821A82D9
:1055B00088EE93E0A0E0B0E08C839D83AE83BF8350
:1055C00080EB92E09983888388E08C8788EE93E073
:1055D0009E878D87CE01DF91CF911F910F91FF9014
:1055E000EF90DF90CF90BF90AF909F90089534E000
:1055F000932E833311F028E0922E82EEC82E86E09F
:10560000D82E10E098E0B92EA12CD6012D913D9115
:105610006D01F701848195812817390791F4812F55
:105620000E944A24082F873111F08C3139F5812FDF
:105630000E949E2A892B59F50C3119F4812F0E9462
:1056400021241F5F9112E1CFA11008C0D701ED9175
:10565000FC910084F185E02DC70119951B821A8207
:1056600088EE93E0A0E0B0E08C839D83AE83BF839F
:1056700080EB92E099838883BC86A8CF843149F07F
:105680008111DFCFF601329711821082DACFB12E6D
:10569000D8CFAA24A394D5CF8F929F92AF92BF92D6
:1056A000CF92DF92EF92FF920F931F93CF93DF93EE
:1056B000CDB7DEB72F970FB6F894DEBF0FBECDBFC4
:1056C0005C014B017A018091F6068823C9F104E060
:1056D000833309F008E0B501CE0101960E94C52A86
:1056E00082EEC82E86E0D82E10E0F601219131918D
:1056F0006F01F501848195812817390751F4812FB5
:105700000E944A24873129F4A701B401812F0E9405
:10571000BD291F5F0113E9CFC7012F960FB6F8947B
:10572000DEBF0FBECDBFDF91CF911F910F91FF90D4
:10573000EF90DF90CF90BF90AF909F908F900895A3
:10574000F12CE12CE9CF4F925F927F928F929F9242
:10575000AF92BF92CF92DF92EF92FF920F931F937F
:10576000CF93DF931F921F92CDB7DEB7782E6B01D8
:105770004A01A82EB12C27E0829FC0011124FC0110
:10578000E655F94F7F010081118180E591E00E948B
:1057900049030815190554F4872D0E94692AF70159
:1057A00026818C01021B110911830083011511054B
:1057B00019F5872D0E944624843159F0882349F039
:1057C00001E010E08C3111F410E000E0119501953A
:1057D0001109C8010F900F90DF91CF911F910F9188
:1057E000FF90EF90DF90CF90BF90AF909F908F9001
:1057F0007F905F904F900895801691060CF484017D
:1058000087E08A9DF0018B9DF00D1124E655F94F3C
:10581000E280F380C114D10451F12701F7E05F2247
:10582000872D0E94FB0D840D951D2091F6062733D0
:1058300009F453C09801240D351D2130384008F477
:105840004CC020E038E0490184189508A401B60155
:105850000E9469232601480C591C6801C818D90800
:10586000872D0E94FB0DA601B2010E946923E00E64
:10587000F11E87E08A9DF0018B9DF00D1124E65505
:10588000F94FF382E28220813181201B310B318379
:1058900020838681800F912F911D8A3F910510F4FE
:1058A000232BF1F487E08A9DF0018B9DF00D1124EC
:1058B000E655F94F1682F982EA8222E030E0AE0125
:1058C0004F5F5F4F68E270E0872D0E94090E60E431
:1058D00070E0872D0E9411247CCFA801B601C5CFAE
:1058E000868377CFCF93DF931F92CDB7DEB741E0AA
:1058F00050E0BE016F5F7F4FFC0184850E94A32BA7
:105900001816190634F4898190E00F90DF91CF9139
:1059100008958FEF9FEFF9CFFC018485883010F454
:105920000C94A32B90E080E00895CF93DF93FC01CB
:10593000218D328D2115310529F48FEF9FEFDF91F5
:10594000CF910895EC01808D4217530708F0A9010B
:105950000E94A32B1816190684F7298D3A8D281B4F
:10596000390B3A8F298FEBCF0F931F93CF93DF9390
:105970001F92CDB7DEB7FC01218D328D232B41F470
:105980008FEF9FEF0F90DF91CF911F910F910895AF
:105990008C0141E050E0BE016F5F7F4FFC01808DC4
:1059A0000E94A32B181619065CF7F801818D928DC1
:1059B0000197928F818F898190E0E4CF0F931F939D
:1059C000CF93DF9300D000D01F921F92CDB7DEB7E8
:1059D0008C01D80159964D915C915A97411551050A
:1059E00051F0ED91FC91048CF58DE02D70E060E0BC
:1059F000C8011995EECFF801808D0E949E2A892B4F
:105A0000B1F148E050E0BE016F5F7F4FD80158967A
:105A10008C910E94A32B18161906F4F4D801509605
:105A200084E0FE01319601900D928A95E1F78D8117
:105A300090E0982F88272E81820F911DF801958B79
:105A4000848B8F81282F30E0322F22278885820F88
:105A5000932F911D928F818F28960FB6F894DEBFF9
:105A60000FBECDBFDF91CF911F910F91089590E0B0
:105A700080E0F2CF8F929F92AF92BF92CF92DF924F
:105A8000EF92FF920F931F93CF93DF9300D000D03C
:105A900000D01F92CDB7DEB79091F606911115C0D8
:105AA00018E0812F2A960FB6F894DEBF0FBECDBF47
:105AB000DF91CF911F910F91FF90EF90DF90CF90EA
:105AC000BF90AF909F908F90089528E0F22E93336F
:105AD00011F494E0F92E6B01082F80E591E00E940B
