:100000000C9482030C94B3030C94B3030C94B303C9
:100010000C94B3030C94B3030C94B3030C94B30388
:100020000C94B3030C94B3030C94B3030C94B30378
:100030000C94B3030C94B3030C94B3030C94B30368
:100040000C94B3030C94B3030C94B3030C94B30358
:100050000C94B3030C94B3030C94B3030C941A5193
:100060000C94B3030C94B3030C94B3030C94B30338
:100070000C94B3030C94B3030C94B3030C94B30328
:100080000C94B3030C94B3030C94B3030C94B30318
:100090000C94B3030C94B3030C94B3030C94F64F79
:1000A0000C94B3030C94B3030C94B3030C94B303F8
:1000B0000C94B3030C94B3030C94B3030C94B303E8
:1000C0000C94B3030C94B3030C94B3030C94B303D8
:1000D0000C94B3030C94B3030C94B3030C94B303C8
:1000E0000C94B3030C9431190C9408120C94370B34
:1000F0000C94F40D0C94481E0C94B4050C94130449
:100100000C94A0240C94EA050C94450B0C94342C0C
:100110000C9487460C9433360C94EA460C94A82F22
:100120000C94CD0D0C94F6320C94574C0C94E84B77
:100130000C94902E0C9496120C94EC1F0C94C50504
:100140000C94B0050C943D460C94EA330C94CC0D01
:100150000C94D73D0C948F2C0C94BC050C947852C5
:100160000C9430050C94562C0C94651F0C94B830EC
:100170000C94C9050C942C230C9429120C94103166
:100180000C94AD320C94734D0C94D64B0C945C1AB9
:100190000C947A1A0C94CC1E0C943E0B0C94DB1924
:1001A0000C94EB050C9467480C9429190C9439199C
:1001B0000C94B8050C94D0210C948D1A0C945C24EA
:1001C0000C947C230C941E120C94340E0C948F12FD
:1001D0000C94EB350C945D050C94B71B0C94420900
:1001E0000C94D0200C94D2420C941B2C0C941A0525
:1001F0000C94C7230C941D100C94D7050C94CC328E
:100200000C947E1A0C942D190C94D6300C9462091F
:100210000C94CE470C9477120C9440120C94CF059A
:100220000C94EF050C947B120C94160F0C94664DF5
:100230000C94F3450C9435190C941A4C0C94FD4B0A
:100240000C94E1050C943D190C94CC330C94B6033A
:100250000C948A1A0C94891C0C94E5050C944C4E51
:100260000C94CD300C94D2400C949F2E0C94881A90
:100270000C94B8280C94B9040C94AA050C944D471E
:100280000C9406100C94BF050C9429050C94394C61
:100290000C9410330C942D6C0C94D3050C94ED2419
:1002A0000C94D3310C9466340C9491340C94AD3B83
:1002B0000C947F120C943A3B0C94BD040C94DD0515
:1002C0000C94B5030C947E380C946F644E414E49E7
:1002D0004E495459494E46CDCCCC3D0AD7233C1704
:1002E000B7D13877CC2B329595E6241FB14F0A0051
:1002F0000020410000C84200401C4620BCBE4CCA41
:100300001B0E5AAEC59D7400407A10F35A00A072BD
:100310004E18090010A5D4E80000E8764817000040
:10032000E40B54020000CA9A3B000000E1F505000E
:100330000080969800000040420F000000A0860157
:10034000000000102700000000E803000000006427
:1003500000000000000A0000000000010000000092
:10036000002C76D888DC674F0823DFC1DFAE59E167
:10037000B1B796E5E3E453C63AE651997696E8E6D6
:10038000C28426EB898C9B62ED407C6FFCEFBC9CA9
:100390009F40F2BAA56FA5F490055A2AF75C936BBB
:1003A0006CF9676DC11BFCE0E40D47FEF520E6B576
:1003B00000D0ED902E0300943577050080841E0850
:1003C0000000204E0A000000C80C333333330F986E
:1003D0006E12831141EF8D2114893BE65516CFFE35
:1003E000E6DB18D1844B381BF77C1D901DA4BBE4C1
:1003F00024203284725E228100C9F124ECA1E53D03
:10040000277B7B696E7428666C6F61742876616CDB
:100410007565292A31302A2A33297D7D007B7B6945
:100420006E7428666C6F61742876616C7565292A14
:1004300031302A2A32297D7D007B7B696E742866E3
:100440006C6F61742876616C7565292A31302A2AAF
:1004500031297D7D00CDCCCC3D0AD7233C17B7D1C7
:100460003877CC2B329595E6241FB14F0A000080D7
:100470003FCDCCCC3D6F12833A95BFD6337D1D90D6
:1004800026B3CE010C000020410000C84200401CF1
:100490004620BCBE4CCA1B0E5AAEC59D74005EBC45
:1004A000E2613FDD83C29C7E20A3FD1F41009D23AE
:1004B000BE46DB65F88C11AF32CA57E974636F6EC4
:1004C0006669670062696E6172795F73656E736FEA
:1004D0007200736C6964657200626F780073746592
:1004E00070006D6178006D696E00636D645F74709B
:1004F0006C006D6F64650073656C656374006F708C
:100500007400726574006F7074696F6E73004E6F63
:100510006E65002F0066616C73650074727565000E
:100520005F00756E69715F69640064657600223AE8
:100530000022007D007B00617674795F74002200E8
:100540002C005D005B006A736F6E5F617474725F94
:1005500074006578705F616674006672635F7570C1
:100560006400756E69745F6F665F6D6561730069C5
:100570006300737461745F636C61006465765F63CC
:100580006C61006F626A5F6964006E616D65007323
:1005900077006D66006D646C0000000A0B02090CA8
:1005A0000D0E080703040100000000000000000019
:1005B000000000000000000000000000000000003B
:1005C00000000000001211100000000000000000F8
:1005D00000000000000000000000000000000063B8
:1005E0006D645F740073656E736F72006E756D621B
:1005F0006572004F4646004F4E0000002200250065
:1006000028002B002E0031003400020100000501FB
:1006100008010B0100002100240027002A002D0002
:100620003000330001010000040107010A016F6678
:10063000666C696E65006F6E6C696E6500737461DF
:10064000745F7400000020002300260029002C00A5
:100650002F00320000010000030106010901050519
:100660000505070508080808020202020A0A080828
:100670000404040401010101010101010303030356
:1006800003030303040707070C0C0C0C0C0C0C0CE5
:100690000202020206060606060606060B0B0B0BF6
:1006A0000B0B0B0B0102102020080810204010201B
:1006B0004080020102010804020101020408102026
:1006C0004080804020100804020180040201804024
:1006D000201008040201080402010102040810208D
:1006E000408001020408102040803031323334351C
:1006F0003637383961626364656600696473000087
:1007000078526F6411241FBECFEFD1E2DEBFCDBFA0
:1007100000E00CBF1BE0A0E0B2E0E4E5F7EE00E093
:100720000BBF02C007900D92AC35B107D9F727E196
:10073000ACE5BBE001C01D92A637B207E1F713E0BC
:10074000C1E8D3E000E006C021970109802FFE0137
:100750000E94B16BC038D10780E00807A9F70E945A
:1007600097590C9498730C94000008950895CF93B2
:10077000DF93EC01FA013296E60FF71FDC019D01D1
:100780002C1B3D0BCF01861B970B4D91442311F081
:100790004193F5CFAC01421B530B640F751FFB0156
:1007A0003297308361507109FB012083DF91CF9133
:1007B00008950F931F93CF93DF9300D01F92CDB76F
:1007C000DEB720E08E010F5F1F4F942F9F77440FFD
:1007D000452F441F550B51954115510509F090685F
:1007E000F801E20FF11D90832F5F4115510569F764
:1007F00030E0FB01E21BF30B84833596D801CD0179
:10080000801B910B821793071CF48D918193F7CF76
:10081000C90101960F900F900F900F90DF91CF912B
:100820001F910F91089590910D0D80910C0D2FEF58
:100830003FEF981748F4E92FF0E0E45DF34F208193
:1008400030E09F5F90930D0DC901089590910D0DBB
:1008500080910C0D2FEF3FEF981748F4E92FF0E04F
:10086000E45DF34F208130E09F5F90930D0DC9014F
:1008700008958CBD9DBD089520E3FC012083329630
:10088000862F82958F706F706A3030F4605D62934E
:10089000682F8111F5CF0895695CF9CFFB01428182
:1008A000538164817581FC01458F568F678F70A3DA
:1008B0002BE537E034A323A312A211A20895CF930E
:1008C000DF9300D000D0CDB7DEB7E091E114F09116
:1008D000E21420813181232BB9F12091EB142111F5
:1008E00033C0FC011092F1141092F0141092F31422
:1008F0001092F21481E08093EB148091DF149091B8
:10090000E01421E533E03A832983428153816481F5
:1009100075814B835C836D837E83BE016F5F7F4FE8
:100920000E944E04E091DF14F091E01484EF9DE00A
:10093000928F818F81E026960FB6F894DEBF0FBEAE
:10094000CDBFDF91CF91089580E0F5CF0F931F9336
:10095000FC0181E0808311868A019B01018312835F
:100960002383348315821682178210861F910F917C
:100970000895FC01818D928D08950895CF93DF93A2
:10098000FC01A481B581109711F480E029C0EC012D
:10099000ED91FC9111970688F789E02DCD0119950D
:1009A0002FA138A5811119C0232B79F78DEF9FEF67
:1009B00098A78FA38C819D81DC01ED91FC9106802D
:1009C000F781E02D19958C819D81DC01ED91FC91E1
:1009D0000488F589E02D1995D8CF81E0232BA9F65D
:1009E000DF91CF9108952091C30B260F3327331F3A
:1009F00021323105ECF42091720CFC0190E080E092
:100A0000243069F082E00895A091C30B2191AC01DC
:100A10004D55544FA40FB52FB11D2C930196861739
:100A200098F38091C30B680F6093C30B80E0089527
:100A300081E00895E0910D0D80910C0DE81730F4E0
:100A4000F0E0E45DF34F808190E008958FEF9FEF39
:100A5000089580910C0D90910D0D891B990B0895AF
:100A6000CF92DF92EF92FF920F931F93CF93DF937A
:100A70007C01CB018A012091780C222389F0EB01C3
:100A80006B01C40ED51ECC15DD0569F06991D70147
:100A9000ED91FC910190F081E02DC7011995F3CF04
:100AA000642F0E94F304C801DF91CF911F910F9131
:100AB000FF90EF90DF90CF900895CF93DF931F9238
:100AC000CDB7DEB769832091780C2223F9F020910D
:100AD0000A0D203258F021E030E0FC0133832283FC
:100AE00090E080E00F90DF91CF91089580910B0D01
:100AF000E82FF0E0E758F34F998190838F5F809360
:100B00000B0D80930A0D81E090E0ECCF61E0CE0107
:100B100001960E94F304F7CF8150823108F05AC049
:100B2000E82FF0E08827E856FA4F8F4F0C94B16B0E
:100B3000B805BC05AA05B005B405EA05BF05C5059D
:100B4000C905CF05D305D705DD05E105EA05E505AE
:100B5000EB05EF05809180008F77809380000895EA
:100B6000809180008F7DF9CF80918000877FF5CFC5
:100B700084B58F7784BD089584B58F7DFBCF809138
:100B8000B0008F778093B00008958091B0008F7D82
:100B9000F9CF809190008F77809390000895809195
:100BA00090008F7DF9CF80919000877FF5CF809165
:100BB000A0008F778093A00008958091A0008F7D82
:100BC000F9CF8091A000877FF5CF809120018F77AA
:100BD000809320010895809120018F7DF9CF80912D
:100BE0002001877FF5CF1F93CF93DF93282F30E02D
:100BF000F901E756FA4F8491F901EC55F94FD49178
:100C0000F901E25AF94FC491CC23A9F0162F8111B2
:100C10000E948C05EC2FF0E0EE0FFF1FE650FA4F1C
:100C2000A591B4918FB7F894EC91111108C0D095AB
:100C3000DE23DC938FBFDF91CF911F910895DE2BD0
:100C4000F8CF1092720C81E08093710C10924C0CD2
:100C500061E084E10E94F30561E085E10E94F30513
:100C6000E9EBF0E080818E7F808380818D7F8083BF
:100C700088E48093B80085E48093BC000895CF9306
:100C8000DF9391E09093A20B8823B9F0C091B80054
:100C9000D091BA008091BC008A7B8093BC0060E058
:100CA00084E10E94F30560E085E10E94F3050E9463
:100CB0002106D093BA00C093B800DF91CF91089578
:100CC000CF93DF9390E0FC01EC55F94F2491825AC9
:100CD000994FFC0184918823C9F090E0880F991FF7
:100CE000FC01EC5EF94FA591B491FC01E650FA4F7E
:100CF000C591D49161110DC09FB7F8948C91209546
:100D000082238C938881282328839FBFDF91CF91F2
:100D10000895623051F49FB7F8943C91822F8095EA
:100D200083238C93E8812E2BEFCF8FB7F894EC912F
:100D30002E2B2C938FBFEACF3FB7F89480919E0B58
:100D400090919F0BA091A00BB091A10B26B5A89BF1
:100D500005C02F3F19F00196A11DB11D3FBFBA2F4D
:100D6000A92F982F8827BC01CD01620F711D811D0D
:100D7000911D42E0660F771F881F991F4A95D1F792
:100D80000895CF92DF92EF92FF920F931F93CF932C
:100D9000DF93D0910A0D81E0D13208F09CC0C09160
:100DA000990C0E949C066B017C018091720C811150
:100DB0006CC082E08093720C81E08093710C8FEFA5
:100DC0008093700C10926F0CD0936E0CA9E7BCE06E
:100DD000EEE4FCE080E0D8138DC010924D0C8091C1
:100DE0004D0CCC0FC82BC0934D0C80914C0C813016
:100DF00009F084C010924C0C0E949C066B017C018F
:100E000080914D0C8093BB008091740C9091750C77
:100E1000A091760CB091770C892B8A2B8B2BA1F0AB
:100E20000E949C060091740C1091750C2091760C18
:100E30003091770C6C197D098E099F0906171707E9
:100E40002807390708F442C08091BC0083FDD8CF41
:100E500085EC8093BC000E949C066B017C01809114
:100E6000720C823009F44CC08091700C8F3F09F4F1
:100E700069C08091700C803209F466C08091700C5A
:100E8000803309F463C084E026C08091740C909193
:100E9000750CA091760CB091770C892B8A2B8B2B3B
:100EA00009F483CF0E949C060091740C1091750C7C
:100EB0002091760C3091770C6C197D098E099F0971
:100EC000061717072807390708F06FCF8091730CB2
:100ED0000E943F0685E010920B0D10920A0D1092B1
:100EE000780CDF91CF911F910F91FF90EF90DF90E1
:100EF000CF9008959D9191938F5F6DCF85EEA9CF8F
:100F00008091740C9091750CA091760CB091770C37
:100F1000892B8A2B8B2B09F4A2CF0E949C0600916F
:100F2000740C1091750C2091760C3091770C6C1923
:100F30007D098E099F09061717072807390708F04A
:100F40008ECFC4CF80E0C7CF82E0C5CF83E0C3CFD0
:100F50008F929F92AF92BF92CF92DF92EF92FF92C9
:100F60000F931F93CF93DF93D82FC62F142F613287
:100F700008F09CC00E949C066B017C018091720C61
:100F800081116FC081E08093720C1093710C9FEF00
:100F90009093700C10926F0C9C0F90936E0C80933A
:100FA0004D0C80914D0CDD0FD82BD0934D0C8091C2
:100FB0004C0C813009F07CC010924C0C0E949C06B5
:100FC0006B017C0180914D0C8093BB008091740C6F
:100FD0009091750CA091760CB091770C892B8A2B8F
:100FE0008B2BA1F00E949C060091740C1091750C43
:100FF0002091760C3091770C6C197D098E099F0930
:10100000061717072807390708F44CC08091BC0061
:1010100083FDD8CF85EC8093BC000E949C066B01B9
:101020007C018091720C813009F444C080916F0C76
:101030008C1710F4C0916F0CEEE4FCE0ACE2BCE065
:1010400080E08C1359C08C2FDF91CF911F910F91AD
:10105000FF90EF90DF90CF90BF90AF909F908F90D8
:1010600008958091740C9091750CA091760CB091BC
:10107000770C892B8A2B8B2B09F480CF0E949C063E
:101080008090740C9090750CA090760CB090770CBA
:101090006C197D098E099F0986169706A806B90660
:1010A00008F06CCF8091730C0E943F06C0E0CBCF5C
:1010B00085EEB1CF8091740C9091750CA091760C57
:1010C000B091770C892B8A2B8B2B09F4AACF0E9425
:1010D0009C060091740C1091750C2091760C309147
:1010E000770C6C197D098E099F09061717072807C9
:1010F000390708F096CFD6CF91919D938F5FA1CFFE
:101100008F929F92AF92BF92CF92DF92EF92FF9217
:101110006B017C010E949C064B015C01C114D1044F
:10112000E104F104B9F00E949C06681979098A0962
:101130009B09683E73408105910580F321E0C21A46
:10114000D108E108F10888EE880E83E0981EA11C02
:10115000B11CE4CFFF90EF90DF90CF90BF90AF90A5
:101160009F908F9008952FB7F89460919A0B70918B
:101170009B0B80919C0B90919D0B2FBF0895EF923C
:10118000FF920F931F93CF93DF938C01EB017A01B2
:101190000E94BE048823C1F1F8016681778145E091
:1011A00050E0CE010E94B703EC01A7014550510960
:1011B000480F591FF8016681778181E30E94D903A6
:1011C000F801A481B581C80FD91F259725E030E02B
:1011D000281B390B66817781620F731FED91FC919B
:1011E00011970280F381E02DAE01CD0119957C01AC
:1011F0000E94B308F801608B718B828B938B81E026
:10120000CE15DF0509F080E0DF91CF911F910F919E
:10121000FF90EF900895EF92FF920F931F93CF935B
:10122000DF937C01862FEA018901A901BE010E949A
:10123000D9039C01D70114968D919C913327020FFD
:10124000131FBE01621B730B6B5F7F4FDC01ED91BF
:10125000FC910280F381E02DA8011995EC010E9418
:10126000B308F701608B718B828B938B81E00C1735
:101270001D0709F080E0DF91CF911F910F91FF9042
:10128000EF900895EF92FF920F931F93CF93DF9308
:10129000EC018B017A010E94B308688B798B8A8BF1
:1012A0009B8B8C819D81DC01ED91FC910280F3810F
:1012B000E02DA701B801DF91CF911F910F91FF9011
:1012C000EF9019941F93CF93DF93EC01162F0E9498
:1012D000B308688B798B8A8B9B8B8C819D81DC0119
:1012E000ED91FC910190F081E02D612FDF91CF9184
:1012F0001F9119948F929F92AF92BF92CF92DF92DB
:10130000EF92FF920F931F93CF93DF93EC018B012A
:101310000E94B3084B015C018C819D81DC01ED9141
:10132000FC910084F185E02D1995892BA9F40E9488
:10133000B3086B017C01C818D908EA08FB082C85A2
:101340003D85A8EEB3E00E945E6BC616D706E806A0
:10135000F90610F380E00CC08C819D81DC01ED91D9
:10136000FC910284F385E02D1995F801808381E0DA
:10137000DF91CF911F910F91FF90EF90DF90CF9071
:10138000BF90AF909F908F9008953F924F925F9241
:101390006F927F928F929F92AF92BF92CF92DF9285
:1013A000EF92FF920F931F93CF93DF93CDB7DEB7EA
:1013B00064970FB6F894DEBF0FBECDBF8C016B01F2
:1013C000DC0116966D917C910E947A0981111BC0F7
:1013D00060E070E0CB0164960FB6F894DEBF0FBEFC
:1013E000CDBFDF91CF911F910F91FF90EF90DF90D4
:1013F000CF90BF90AF909F908F907F906F905F90B5
:101400004F903F900895D8011696ED91FC91308051
:101410001982E1E0F0E0FB83EA83412C512C320198
:10142000812C912C54018394BE016F5F7F4FC801C2
:101430000E947A09882361F2EA80FB80BFEFEB1AF1
:10144000FB0A8981D8011696ED91FC912A813B8196
:10145000E20FF31F8083E981AE2FAF77B0E0A501E3
:1014600094010E94296B460E571E681E791E37E0B4
:10147000880C991CAA1CBB1C3A95D1F7E7FD44C007
:10148000332D307F332E8FEF8E0DD6018C93B0E34A
:101490003B1353C0F801668177816E0D7F1DC80133
:1014A0000E947A09882309F493CFD80116966D918A
:1014B0007C918A819B810296680F791FC8010E94E6
:1014C0007A09882309F484CFEA80FB80B3E0EB0E2D
:1014D000F11CD8011696ED91FC91D6018C91DF019B
:1014E000A80FB11D11968C91119790E0982F882725
:1014F00012962C91820F911D208121FD0296F2E01F
:10150000E0E030E020E01FC0FB82EA829701253056
:10151000310509F089CF8FEF9FEFD80198969C9302
:101520008E93979714968D919C91DC01ED91FC918F
:101530000488F589E02D19954BCFF0E0E0E030E02C
:1015400020E090E080E0A70170E060E08F2E9E2E0A
:10155000A32EB22E481959096A097B094E835F836D
:10156000688779879C0150E040E02B873C874D8756
:101570005E874E815F8168857985480D591D6A1D9A
:101580007B1D4A835B836C837D8384149504A6044E
:10159000B70408F051C0BE016F5F7F4FC8010E94C1
:1015A0007A09882309F414CFD80195960D90BC913F
:1015B000A02DBC8BAB8BAB2B49F1B0E33B1226C00B
:1015C000F60120814EEF5FEF6FEF7FEF421B510975
:1015D000610971098A819B81AC81BD81480F591FC6
:1015E0006A1F7B1F8B859C85AD85BE8584179507FB
:1015F000A607B70758F4AB89BC89ED91FC91119708
:101600000190F081E02D6981CD011995F801808567
:101610009185E816F90650F489810680F781E02D5E
:10162000EE0DFF1D8083FFEFEF1AFF0A2FEF821AE6
:10163000920AA20AB20A9DCFD80195968D919C91EB
:101640009697892B81F418968D919C91B0E0A0E03B
:101650002A813B814C815D8182179307A407B507DE
:1016600010F4F12CE12CB70190E080E0B4CE82E0E0
:1016700090E09093110280931002089583E090E02F
:1016800090931102809310020895A8950895DC01AB
:10169000ED91FC910190F081E02D1994CF93DF93AF
:1016A000DC01C0911A0DD0911B0DEA81FB8187816D
:1016B000811107C0ED91FC91119724853585232B6D
:1016C00009F11496ED91FC91159712969C91129741
:1016D00021E0290F12962C9327E0929FE00DF11D37
:1016E000112422E030E03183208327E335E0348386
:1016F0002383882351F0AA81BB8115968D919C91FB
:1017000096838583DF91CF91089590E080E0F8CFB4
:101710009B012D7F21303105D9F4DC011496ED9128
:10172000FC91159712962C91129731E0320F129678
:101730003C93B7E02B9FE00DF11D112483E090E076
:1017400091838083628314821382168215820895A6
:101750000C944E0BDC018D919C911197892BC9F053
:1017600061157105B1F01496ED91FC9115971296E3
:101770008C91129791E0980F12969C9397E0899F15
:10178000E00DF11D112482E090E091838083748349
:1017900063830895DC0161157105E1F04115510580
:1017A000C9F01496ED91FC91159712968C911297B1
:1017B00091E0980F12969C9397E0899FE00DF11DA0
:1017C000112481E090E0918380832283748363837A
:1017D0005683458308952F923F924F925F926F9266
:1017E0007F928F929F92AF92BF92CF92DF92EF92B1
:1017F000FF920F931F93CF93DF9300D000D000D0C0
:10180000CDB7DEB7FC018081882309F491C0418007
:1018100052806380748085809680878188879085D8
:101820009983B42DD52C730184011C019201A3016D
:10183000B401A0E00E94086D3CF40E94AF6CB22F8E
:10184000D32E7A018B011C01FE83ED83B987FD2D18
:10185000EE2DFA820B831C83A1E0AF8329853F2FF5
:101860004E2F5A816B817C81C101A9E00E94086DD5
:10187000B9F0B4F0EAE0AE2EB12CC12CD12CE12CA1
:10188000F12C00E010E00E94216C2987F32FE42F57
:101890005A836B837C831C01BF81BF5FBF83DECF14
:1018A0009201A301B40188859981A0E00E94086D8E
:1018B0001CF48F818F5F8F83AD81BE8119961C913F
:1018C0008F811123D1F029853F2F4E2F5A816B81B3
:1018D0007C81C101A0E00E94086D61F19201A30129
:1018E000B401888599810E94086D04F583E0810F19
:1018F000BF81B81710F08B2F8F5F29960FB6F89421
:10190000DEBF0FBECDBFDF91CF911F910F91FF9032
:10191000EF90DF90CF90BF90AF909F908F907F908F
:101920006F905F904F903F902F90089582E0DFCFAF
:1019300080E0E3CF81E0E1CF2F923F924F925F9220
:101940006F927F928F929F92AF92BF92CF92DF92CF
:10195000EF92FF920F931F93CF93DF9300D000D0AD
:10196000CDB7DEB7FC017B018081882399F04180EF
:1019700052808380948025812E8336813D83278009
:1019800030849201A4016E817D81C101A0E00E949A
:10199000086DF1F480E3D7018C9381E090E0269606
:1019A0000FB6F894DEBF0FBECDBFDF91CF911F9170
:1019B0000F91FF90EF90DF90CF90BF90AF909F90EE
:1019C0008F907F906F905F904F903F902F900895F1
:1019D0008F01CF010E94EB0B782E9201A4016E8142
:1019E0007D81C101A0E0F7010E94086D4CF40E94C6
:1019F000AF6C29014A016E837D831C018DE28193C6
:101A0000D80119968C91882339F0DF0190E39D93DA
:101A10008150E8F78EE28183E72DE150FF0BFA83D6
:101A2000E9833F016E0C7F1CD80119968C918823A5
:101A300001F1E81BF109CF01F701E80FF91FFC8361
:101A4000EB832B813C8162167306B1F4EEE2D30185
:101A5000EC93F1E06F1A71089201A4016E817D810F
:101A6000C101A0E00E94086D61F789819A81019609
:101A700096CF1C821B82E5CF8AE0A82EB12CC12C08
:101A8000D12CE12CF12C00E010E09201A4016E8138
:101A90007D81C1010E941F6C205DD3012C939201B6
:101AA000A4016E817D81C1010E94216C29014A013E
:101AB0006E837D831C01CDCF0F931F93CF93DF9354
:101AC000EC01942F81E0888349879B0150E040E03E
:101AD0008FEF890F8330D8F4E82FF0E0EE0FFF1F6F
:101AE000E754FD4F6081718190E080E00E946D6B52
:101AF0008B019C0169831A838B833C831D821E8228
:101B00001F821886DF91CF911F910F91089561E098
:101B100070E080E090E0EACFCF92DF92EF92FF9208
:101B2000CF93DF93EC016A017B0181E088832987F1
:101B3000215061E070E080E090E0233050F4E22F2B
:101B4000F0E0EE0FFF1FE754FD4F6081718190E0E0
:101B500080E00E94C069A70196010E94216A0E944C
:101B6000F36D29833A834B835C836D837E838F83FC
:101B70009887DF91CF91FF90EF90DF90CF900895FD
:101B8000FC01108211821282138214821582168245
:101B90001782108611860895089508950F931F9354
:101BA000CF93DF93DC010D911C91EB01FE01649159
:101BB000662359F0D801ED91FC910190F081E02D60
:101BC000C80119952196892B89F7DF91CF911F9133
:101BD0000F910895DC018D919C91DC01ED91FC91B8
:101BE0000280F381E02D1994AF92BF92CF92DF92E1
:101BF000EF92FF920F931F93CF93A0901A0DB09086
:101C00001B0DA114B10431F16A017B018C01D501D6
:101C10001496ED91FC91309709F01995C0E0F5010B
:101C2000818DC817B8F48C2F90E0880F991F038C12
:101C3000F48DE02DE80FF91F80819181DC01ED9199
:101C4000FC910680F781E02D9601A701B801199556
:101C5000CF5FE5CFCF911F910F91FF90EF90DF9075
:101C6000CF90BF90AF9008950895CF92DF92EF92FA
:101C7000FF920F931F93CF93DF93FC0126852111D1
:101C800031C0EC010E94B3080A851B852C853D8577
:101C90006B017C01C01AD10AE20AF30AF7FE08C000
:101CA000F094E094D094C094C11CD11CE11CF11CB0
:101CB000088119812A813B81C016D106E206F3060C
:101CC00088F06A877B878C879D87E885F9853097C0
:101CD00049F0DF91CF911F910F91FF90EF90DF902E
:101CE000CF901994DF91CF911F910F91FF90EF90BA
:101CF000DF90CF900895CF92DF92EF92FF920F93F3
:101D00001F93CF93DF93FC012089222349F1EC013B
:101D10000E94B308088519852A853B856B017C01E3
:101D2000C01AD10AE20AF30A0C851D852E853F856B
:101D30000C151D052E053F0598F4688779878A875D
:101D40009B87E881F9810280F381E02DCE01DF914C
:101D5000CF911F910F91FF90EF90DF90CF9019944A
:101D6000DF91CF911F910F91FF90EF90DF90CF9077
:101D70000895FC019B01A8EEB3E00E945E6B638BAB
:101D8000748B858B968B25A1211108C0648F758F6C
:101D9000868F978F60A371A382A393A381E0089598
:101DA000FC019B01672BA9F0A8EEB3E00E945E6BDB
:101DB0006787708B818B928B25A1222361F0648FC2
:101DC000758F868F978F60A371A382A393A3822FB1
:101DD000089520E0FCCF21E0FACFDC01ED91FC91E9
:101DE00011970280F381E02D19966C911994CF938D
:101DF000DF93EC0181E08DA3EEA5FFA5309729F0DC
:101E00002A859985291380E01995CE01DF91CF911C
:101E10000C94ED0EDC0119966C91199721E0622764
:101E2000ED91FC910280F381E02D199423E030E0E4
:101E3000FC01368725870C940A0FFC012585368521
:101E40002230310551F421E030E03687258725A185
:101E500021110C94ED0E0C940A0F0895CF93DF938B
:101E6000EC011DA2EEA5FFA5309731F081E02A8597
:101E70009985291380E01995CE01DF91CF910C94BB
:101E80000A0F8F929F92AF92BF92CF92DF92EF9202
:101E9000FF92CF93DF93EC010E94B3086B017C01AA
:101EA0008D859E859C01225031092230310508F430
:101EB0007CC0892B09F479C08CA18823D9F0C88E05
:101EC000D98EEA8EFB8E8F89882309F47AC08F859C
:101ED0009889A989BA898C8F9D8FAE8FBF8FCE01CB
:101EE0000E94F70E8C8D9D8DAE8DBF8D88A399A31A
:101EF000AAA3BBA3888D998DAA8DBB8D46015701DE
:101F0000881A990AAA0ABB0A8C8D9D8DAE8DBF8D49
:101F100088169906AA06BB06D8F14F8558896989A3
:101F20007A898DA1882309F458C08AA59BA5ACA500
:101F3000BDA5840F951FA61FB71F8AA79BA7ACA797
:101F4000BDA78B899C89AD89BE898C8F9D8FAE8FF3
:101F5000BF8F8B859C85019719F4CE010E94160FC7
:101F60008B859C85029769F488A599A5019699A708
:101F700088A72EA13FA18217930719F4CE010E94D2
:101F8000160FCE010E942E0FC88ED98EEA8EFB8EC0
:101F90008C8D9D8DAE8DBF8D88199909AA09BB09BD
:101FA00088A399A3AAA3BBA31CA281E0DF91CF9130
:101FB000FF90EF90DF90CF90BF90AF909F908F9069
:101FC00008958B899C89AD89BE898C8F9D8FAE8F3A
:101FD000BF8FCE010E942E0F85CF4C8F5D8F6E8FED
:101FE0007F8FCE010E94F70ECFCF21E0FC0120872A
:101FF0000C940A0FCF93DF93EC0169858A810E94CC
:10200000F30589858A87DF91CF9108950F931F93F8
:10201000CF938C01C62FFC018085882319F0C185E0
:1020200081E0C8276C2FF80182810E94F305F80136
:10203000C287CF911F910F910895CF92DF92EF92B7
:10204000FF920F931F93CF93DF93EC012A813B8183
:102050003327F901E756FA4F8491F901EC55F94F0E
:102060000491F901E25AF94F1491112379F0811189
:102070000E948C05E12FF0E0EE0FFF1FEC5BF94FA3
:10208000A591B491EC910E2381E009F480E0817078
:10209000898B9B89891731F00E94B3086F8B788FE9
:1020A000898F9A8F0E94B3080F89188D298D3A8DD8
:1020B0006B017C01C01AD10AE20AF30A970186017A
:1020C0004D895E8970E060E089898B8B40175107EC
:1020D0006207730718F58C8BEB8DFC8D309711F030
:1020E00090E019952F8D38A121153105B9F0898916
:1020F0009A89891799F041E050E0992311F042E064
:1021000050E08A8B2230310591F02330310591F077
:102110002130310519F44130510561F0DF91CF9143
:102120001F910F91FF90EF90DF90CF900895423074
:102130005105A1F7ED8DFE8D309781F36A817B818A
:10214000DF91CF911F910F91FF90EF90DF90CF9093
:102150001994FC0120812EBD9B012150310941F0D1
:1021600051810DB407FEFDCF4EB55EBD4193F5CF55
:1021700061507109860F971F0DB407FEFDCF2EB574
:10218000FC0120830895E0911F0CF091200C8081C8
:1021900090911E0C892B80830895E0911F0CF09183
:1021A000200C908180911E0C809589238083089556
:1021B0008EBD00000DB407FEFDCF8EB50895AF9221
:1021C000BF92CF92DF92EF92FF920F931F93CF9324
:1021D000DF9300D000D01F921F92CDB7DEB78C01E5
:1021E0007B016A018091220C8333E1F45801A40E33
:1021F000B51EA016B10609F46FC00E94CD1080EF85
:102200000E94D810812F0E94D810802F0E94D810D1
:102210000F5F1F4FF70181917F010E94D8100E942C
:10222000C310E7CF5B01A40EB51E8433C1F40E9436
:10223000CD1019830A838D2D80688B83CC8264E056
:1022400070E0CE0101960E94A910AE14BF0409F4FB
:1022500041C0F70181917F010E94D810F6CF0E9402
:10226000CD100F3F110509F028F419820A8384E08C
:102270008B830CC017FD17C019820A8333E01695B3
:1022800007953A95E1F7007E0C600B8386E0C8164F
:10229000D104A0F5F701DE011496EA15FB0599F0CB
:1022A00081918D93FACFC80126E0969587952A955E
:1022B000E1F7807E19830A830115104C10F48461C4
:1022C000D7CF8C61D5CFB6016D5F7F4FCE01019620
:1022D0000E94A9100E94C310C60128960FB6F89458
:1022E000DEBF0FBECDBFDF91CF911F910F91FF9049
:1022F000EF90DF90CF90BF90AF90089563E070E0D3
:10230000CE0101960E94A910F70181917F010E94E0
:10231000D810AE14BF04C1F7DDCFCF93DF931F9267
:10232000CDB7DEB7898341E050E0BE016F5F7F4FDC
:1023300090E080E00E94DF100F90DF91CF91089530
:1023400090E02091220C233339F40C96982F990FAA
:10235000990F990F80E008954896F8CFDA01E0913F
:10236000230CF0E0FE2FEE27E60FF71F90E0982FEA
:102370008827A901BD018E0F9F1F0C94DF10CF93FA
:10238000DF931F921F92CDB7DEB779836A8322E075
:1023900030E0AE014F5F5F4F60E170E00E94AE1130
:1023A0000F900F90DF91CF910895CF93DF931F92FD
:1023B0001F92CDB7DEB779836A8322E030E0AE01A9
:1023C0004F5F5F4F64E070E00E94AE110F900F907E
:1023D000DF91CF910895CF93DF931F92CDB7DEB7F2
:1023E0002091230C30E0322F2227260F371F90E058
:1023F000982F8827498341E050E0BE016F5F7F4FEF
:10240000820F931F0E94DF100F90DF91CF910895EC
:10241000CF93DF931F92CDB7DEB76983DC01ED91D7
:10242000FC910280F381E02D41E050E0BE016F5F3E
:102430007F4F19950F90DF91CF910895FC019485FE
:10244000FB018485981303C081E0983008F080E098
:102450000895CF93DF931F92CDB7DEB76983DC0178
:10246000ED91FC910280F381E02D41E050E0BE014E
:102470006F5F7F4F19950F90DF91CF910895089569
:10248000FF920F931F93CF93DF93EB01FC01178A09
:10249000168A2A81211109C02B81211106C02C81A5
:1024A000211103C02D81222301F141155105E9F0CD
:1024B0008A01FC01F08C80E591E00E943904AE01B4
:1024C0004E5F5F4F24E030E06CE070E08F2D0E94A3
:1024D000AE11B8018F2D0E94BF1181E090E0DF9115
:1024E000CF911F910F91FF90089580E0F7CFFC01ED
:1024F000848595850895FC0184899589089521E551
:1025000033E0FC0131832083FB01408951896289DA
:102510007389FC0142835383648375830895DC01CE
:10252000ED91FC91048CF58DE02D199490E080E004
:102530000895282F30E094E0359527959A95E1F796
:10254000922F990F990F291B220F820F08956093E4
:10255000910B7093920B8093930B9093940B645D0B
:102560007E4F8F4F9F4F60938D0B70938E0B809398
:102570008F0B9093900B82E090E09093980B809358
:10258000970B0E94B3086093890B70938A0B80931A
:102590008B0B90938C0B08950F931F930E94B3089D
:1025A0008B019C014091890B50918A0B60918B0BA0
:1025B00070918C0B8091910B9091920BA091930B49
:1025C000B091940B041B150B260B370B083E1340E0
:1025D00021053105C0F00196A11DB11D8093910B1D
:1025E0009093920BA093930BB093940B48515C4F34
:1025F0006F4F7F4F4093890B50938A0B60938B0BE7
:1026000070938C0BCBCF40918D0B50918E0B6091C2
:102610008F0B7091900B84179507A607B70770F082
:10262000E091950BF091960B309741F0199561155B
:1026300071058105910569F00E94A7126091910BC7
:102640007091920B8091930B9091940B1F910F912D
:1026500008958091910B9091920BA091930BB09162
:10266000940B845D9E4FAF4FBF4F80938D0B909323
:102670008E0BA0938F0BB093900B81E090E0209194
:10268000970B3091980B232B11F490E080E09093FE
:10269000980B8093970BD2CF4F925F926F927F925D
:1026A0008F929F92AF92BF92CF92DF92EF92FF9262
:1026B0000F931F93CF93DF93FC011681A12FB0E0FE
:1026C00020E833E341EE51E00E94296B4B015C01AD
:1026D000C2EBD7E09D0104E610E080E9E82EFF247C
:1026E000F394CE01825B9740821793079CF145805B
:1026F000512C2E54384FC90164E670E00E949D6B46
:102700007C01C90160E971E00E949D6B6C0101E3ED
:1027100012E0C1E0D0E0390183E068227724C415DB
:10272000D5050CF040C0C230D10571F561147104BB
:1027300059F5E114F10419F4C114D10429F5B0E8F4
:102740008B0EBBE39B1EB6E2AB1EB11C21960F5F46
:102750001F4FE5CFCE0183709927892B99F4CE01C5
:10276000B8010E949D6B892B31F4CE01B7010E9404
:102770009D6B892B39F4A0E88A0EA1E59A1EA1E091
:10278000AA1EB11C2196ADCFD8018C91A82FB0E024
:1027900020E831E541E050E00E94296B860E971E4B
:1027A000A81EB91ED3CF228130E0A0E1BEE00E9476
:1027B0005E6B6B017C01218130E0ACE3B0E00E94F4
:1027C0005E6BC60ED71EE81EF91E8081C80ED11C96
:1027D000E11CF11CA481A150BB0B20E831E541E0D4
:1027E00050E00E94346B6C0D7D1D8E1D9F1D680D89
:1027F000791D8A1D9B1DDF91CF911F910F91FF9035
:10280000EF90DF90CF90BF90AF909F908F907F9090
:102810006F905F904F9008956F927F928F929F92EA
:10282000AF92BF92CF92DF92EF92FF920F931F93DE
:10283000CF93DF936B017C01EA018CE3882E912C0E
:10284000A12CB12CC701A50194010E943C6B6883A7
:10285000CA01B901A50194010E943C6B6983C701BB
:10286000B60120E13EE040E050E00E943C6BCA012E
:10287000B90128E130E040E050E00E943C6B6A83FF
:10288000C701B60120E831E541E050E00E943C6B11
:1028900069017A01CA01B9016C5F7F4F8F4F9F4F69
:1028A00027E030E040E050E00E943C6B6F5F6B83BC
:1028B000812C912C540140E094E6692E712C00E9A2
:1028C00011E0242F30E02E54384FF901E370FF2738
:1028D0003097F9F4C901B3010E949D6B892B31F443
:1028E000C901B8010E949D6B892B99F48EE691E095
:1028F000A0E0B0E0880E991EAA1EBB1ED501C4013F
:10290000AA27BB27C816D906EA06FB0638F04F5F90
:10291000D8CF8DE691E0A0E0B0E0ECCF4E83C901C6
:1029200064E670E00E949D6B8C01C90160E971E072
:102930000E949D6B309729F401151105E1F4009771
:10294000D1F04DE651E060E070E0841A950AA60AE5
:10295000B70AC818D908EA08FB08A1E3B2E020E0EA
:10296000213071F4309791F50115110511F400979C
:1029700069F54DE106C04EE651E060E070E0E5CF5C
:102980004C9150E070E060E031E0320FC416D506A3
:10299000E606F70640F0C41AD50AE60AF70A1196C9
:1029A000232F3C30E9F62F5F2D83C394CC82DF9137
:1029B000CF911F910F91FF90EF90DF90CF90BF903C
:1029C000AF909F908F907F906F9008954CE1D9CFFA
:1029D000CF92DF92EF92FF92C090850BD090860B42
:1029E000E090870BF090880BC616D706E806F9062C
:1029F00071F06B017C0145E25CE00E940C14C09216
:102A0000850BD092860BE092870BF092880BFF909B
:102A1000EF90DF90CF9008958F929F92AF92BF92E8
:102A2000CF92DF92EF92FF920F931F93CF93DF939A
:102A3000CDB7DEB763970FB6F894DEBF0FBECDBF3C
:102A40005F87798BF42EE42E41110BC06F5FEE246B
:102A5000E3946D3030F02FEFC21AD20AEE24E394E3
:102A600061E089898B831A82198281E08D836E836C
:102A70003EE4C30ECF82CE0101960E944C134B015F
:102A80005C010F8510E00E94E8148091280C9801E9
:102A9000281B3109C901079667E070E00E949D6B11
:102AA000DC0137E0E39EA00DB11D1124179720E84B
:102AB00031E541E050E00E94346B680D791D8A1DBC
:102AC0009B1DF11004C060587A43894091096396B8
:102AD0000FB6F894DEBF0FBECDBFDF91CF911F912F
:102AE0000F91FF90EF90DF90CF90BF90AF909F90AD
:102AF0008F9008958F929F92AF92BF92CF92DF9264
:102B0000EF92FF920F931F93CF93DF936C01E090AE
:102B1000490DF0904A0D00914B0D10914C0D2091F4
:102B20004D0D30914E0D40914F0D5091500D6091D3
:102B3000510D7091520D8091530D9091540D0E9442
:102B40000C15C9E4DDE068A379A38AA39BA3E5E59E
:102B5000FDE0E080F180028113812481358146818E
:102B6000578160857185828593850E940C156B0164
:102B70007C01CCA2DDA2EEA2FFA2AE89BF892CE32C
:102B800030E00E94C06B08A119A12AA13BA1480115
:102B90005901861A970AA80AB90AD501C401888F73
:102BA000998FAA8FBB8FAA85BB852CE330E00E944A
:102BB000C06BC61AD70AE80AF90ACC8EDD8EEE8EF3
:102BC000FF8EDF91CF911F910F91FF90EF90DF90DB
:102BD000CF90BF90AF909F908F900895CF92DF924B
:102BE000EF92FF920F931F93CF93DF936B017C01C2
:102BF0008A010E94E814C0912B0CD0E0CE54D84F2B
:102C00006091610D7091620D8091630D9091640DE2
:102C10000E94E81480912B0C90E08E54984F8C17F2
:102C20009D0759F0C701B6010E94E81480912B0C52
:102C300090E08E54984F0E947A15C701B6010E9409
:102C4000E814C0912B0CD0E0CE54D84F6091610DA8
:102C50007091620D8091630D9091640D0E94E81453
:102C600080912B0C90E08E54984F8C179D0759F053
:102C7000C701B6010E94E81480912B0C90E08E549D
:102C8000984F0E947A154091650D5091660D6091A4
:102C9000670D7091680D8091610D9091620DA0910A
:102CA000630DB091640D481759076A077B0779F0E7
:102CB00084179507A607B707A0F4C816D906EA0631
:102CC000FB0628F0C416D506E606F706A0F085E553
:102CD0009DE0F80191838083A0915F0DB091600D1C
:102CE00013C0C416D506E606F70628F0C816D9069E
:102CF000EA06FB0660F389E49DE0F8019183808396
:102D0000A091530DB091540D2CE330E00E94C06BA4
:102D10006C0D7D1D8E1D9F1DDF91CF911F910F9119
:102D2000FF90EF90DF90CF900895DC0180E061503C
:102D300090F09D919827E92FEF70F0E0E356FB4F5C
:102D40002491E92FE295EF70F0E0E355FB4FE49119
:102D5000822F8E27ECCF0895DC012C911196ED91F6
:102D6000FC91F8948181822B81839281322F30955E
:102D70009323928387E090E00197F1F78181832389
:102D8000818383E290E00197F1F790817894EFECF2
:102D9000F0E03197F1F7922381E009F480E00895A3
:102DA000FC0190810180F281E02D292F209560FFA8
:102DB00014C0F8948281822382838181892B81834C
:102DC000A3E2B0E01197F1F78281982B9283789477
:102DD00087ED90E00197F1F70895F89482818223BE
:102DE00082838181892B8183AFEFB0E01197F1F766
:102DF0008281982B928378948FE090E0EBCFDF92E2
:102E0000EF92FF920F931F93CF93DF93EC01D62E97
:102E1000E42E08E010E0FF24F39461E08D2D8F2173
:102E200009F460E0CE010E94D016FF0C0150110998
:102E3000A1F7E11010C0F894E981FA8191818881AD
:102E4000809589238183E981FA81928188818095A7
:102E5000892382837894DF91CF911F910F91FF9006
:102E6000EF90DF900895EF92FF920F931F93CF930F
:102E7000DF938C017B0140E065E50E94FF16E701CE
:102E800088E0E80EF11C699140E0C8010E94FF163D
:102E9000CE15DF05C1F7DF91CF911F910F91FF9004
:102EA000EF900895FC0190810180F281E02DF8946B
:102EB0008181292F20958223818378943DE743E007
:102EC00050E0315029F1DA011197F1F7808189231F
:102ED000C1F3F8948281822382838181892B81834B
:102EE0007894ABE7B7E01197F1F7F89481818223EA
:102EF0008183A3E1B1E01197F1F78081982381E00C
:102F000009F080E07894E3E6F6E03197F1F7089570
:102F100080E008956F927F928F929F92AF92BF92BE
:102F2000CF92DF92EF92FF920F931F93CF93DF9395
:102F30008C01EB018091780E9091790E0E945217CE
:102F4000882309F43FC0B8018091780E9091790EE2
:102F50000E94331740E06EEB8091780E9091790ECD
:102F60000E94FF167E016E0189E0C80ED11C8E0101
:102F7000A090780EB090790E88E0882E912C712C5C
:102F800066246394C5010E94AC1681117628660CF4
:102F9000E1E08E1A9108B1F7F80171928F01CE1617
:102FA000DF0631F78091780E9091790E0E945217CA
:102FB000813041F4F70181917F01811105C0E01753
:102FC000F107C1F790E008C068E0CE010E949516B5
:102FD00091E028852813F6CF892FDF91CF911F919B
:102FE0000F91FF90EF90DF90CF90BF90AF909F90A8
:102FF0008F907F906F900895CF93DF9300D000D093
:1030000000D0CDB7DEB7BE016F5F7F4F0E948A1739
:10301000882331F08D818F33A9F020F48F31A1F016
:1030200080E007C08F3521F08F37D1F78CE001C0E9
:103030008BE029960FB6F894DEBF0FBECDBFDF91AF
:10304000CF9108958AE0F5CF89E0F3CFCF92DF9258
:10305000EF92FF928091780E9091790E0E94521714
:1030600040E06CEC8091780E9091790E0E94FF16F2
:1030700040916F0E64E48091780E9091790E0E94D9
:10308000FF168091730E8823F9F08091740E8823C7
:1030900001F180916F0E81111CC00E94B3086B0179
:1030A0007C018091780E9091790E0E94AC1681304F
:1030B00059F00E94B3086C197D098E099F096E3E74
:1030C00072408105910568F3FF90EF90DF90CF90FB
:1030D0000895E091720EE9508EEE92E0E33038F4FC
:1030E000F0E0EE0FFF1FE154FD4F808191816C01F4
:1030F000F12CE12C8091700E882329F060E0809102
:10310000710E0E94F305C701B6010E9480088091EC
:10311000700E8823C9F261E08091710EFF90EF90EC
:10312000DF90CF900C94F305FA01309741F02481A1
:103130002078286024836083718382839383089539
:10314000FC01A281B3818081918130E020E0A81749
:10315000B90738F4CD010196938382836C9321E003
:1031600030E084819581820F931F95838483089535
:10317000CF93DF93FC0182819381EB01460F571FB0
:10318000A281B38120813181A217B30758F4C417FB
:10319000D50741F02991BD016F5F7F4F7383628333
:1031A0002C93EECFA81BB90B84819581A80FB91F72
:1031B000B583A483DF91CF9108958F929F92AF92B0
:1031C000BF92CF92DF92EF92FF920F931F93CF9314
:1031D000DF93CDB7DEB766970FB6F894DEBF0FBEAC
:1031E000CDBF6C018E01095E1F4F78018AE0882EE9
:1031F000912CA12CB12CCB01BA01A50194010E9404
:103200003C6B942F852F605DF80162938F01A901BB
:10321000692F782F411551056105710561F7A701E7
:103220004E1B5F0BBF01C6010E94B81866960FB611
:10323000F894DEBF0FBECDBFDF91CF911F910F91EC
:10324000FF90EF90DF90CF90BF90AF909F908F90C6
:1032500008958EE49EE00C940A0F8EE49EE00C9498
:10326000ED0E84E69EE00C940A0F84E69EE00C943A
:10327000ED0E89E59EE00C940A0F89E59EE00C9422
:10328000ED0E3F924F925F926F927F928F929F923C
:10329000AF92BF92CF92DF92EF92FF920F931F9364
:1032A000CF93DF9300D01F92CDB7DEB79C838B8383
:1032B000DC016D917D918D919C91AE014F5F5F4FCF
:1032C0000E94EE154B015C01EB81FC8164817581EC
:1032D00086819781AE014F5F5F4F0E94EE152B01F3
:1032E0003C010E94CC12AE014F5F5F4F0E94EE1571
:1032F0006B017C010E94E8140091270C8CE3382EAE
:10330000039D80011124C701B6010E94E814809139
:10331000260C080F111DC301B2010E94E814C090D1
:10332000270CC39C60011124C301B2010E94E81460
:103330008091260CC80ED11CC501B4010E94E8146E
:103340006090270C639C30011124C501B4010E94D8
:10335000E8143090260C630C711CC614D70414F5C5
:10336000061517051CF4C016D106FCF0AB81BC8114
:103370001896ED91FC9119950F900F900F900F906A
:10338000DF91CF911F910F91FF90EF90DF90CF9041
:10339000BF90AF909F908F907F906F905F904F9075
:1033A0003F90089506151705F4F6AB81BC811A9677
:1033B000ED91FC91E0CFCF93DF93CDB7DEB72E97A1
:1033C0000FB6F894DEBF0FBECDBF80911A138230C6
:1033D00021F481E69BE00E94411980913A138230EA
:1033E00021F48DE69BE00E9441198091FA1282300F
:1033F00021F489E79BE00E9441190E942618BE0132
:103400006F5F7F4F80E092E00E948A17811105C0B4
:1034100060E070E08EEF92EC3EC06A8170E0762F43
:103420006627770F770F770F298148E0249F900157
:103430001124262B372B809100028031E1F468851E
:103440006623C9F070E08F81AB01481B5109CA01A6
:103450009695982F8827979587950E949D6BCB010D
:103460008097B90153E0660F771F5A95E1F76078AE
:103470009C01260F371F213854EE35074CF2B90155
:10348000330F880B990B0E94C26920E030E040E0C6
:103490005CE30E94216A60935D0B70935E0B8093E6
:1034A0005F0B9093600B2E960FB6F894DEBF0FBEA5
:1034B000CDBFDF91CF9108958091850D811108C016
:1034C0008091A60D882321F083EB9DE00C94ED0EF6
:1034D00083EB9DE00C940A0FFC012581222339F037
:1034E000F8E02F0290011124820F931F089590E0BD
:1034F00080E00895FC01768765870895DC01ED91F1
:10350000FC91068CF78DE02D199591E0892708959F
:10351000862F089581E08627089521E0FC018485A7
:10352000883008F020E0822F0895FC01DB018C91A7
:1035300081110BC0108211821282138214821582B3
:103540001682178210861186089581E08083119675
:103550007C91119712966C91129713965C91139728
:1035600014964C91149715963C91159716962C919C
:10357000169717969C91179718968C9118977183A8
:103580006283538344833583268397838087199688
:103590008C91818708950F931F93CF93DF9300D071
:1035A00000D000D01F92CDB7DEB78C01FC0126857C
:1035B000CE0101960E948C0DBE016F5F7F4FC80146
:1035C00084960E94951A2A960FB6F894DEBF0FBE15
:1035D000CDBFDF91CF911F910F9108950F931F934E
:1035E000CF93DF9300D000D000D01F92CDB7DEB7CD
:1035F0008C01FC012685CE0101960E948C0DBE0136
:103600006F5F7F4FC8014A960E94951A2A960FB69F
:10361000F894DEBF0FBECDBFDF91CF911F910F9108
:103620000895DF92EF92FF920F931F93CF93DF9352
:103630008C01C62FD42EE52E41E060E2FC01858985
:103640000E94A807F82E10920D0D80930C0D0E9479
:103650002604F801818FCC2369F0CD2DDE2D8091D9
:103660000D0DF81639F00E94260489938111F7CFC9
:103670000E94C106F801818DDF91CF911F910F91BA
:10368000FF90EF90DF900895BF92CF92DF92EF927C
:10369000FF920F931F93CF93DF93CDB7DEB7E097E1
:1036A0000FB6F894DEBF0FBECDBF8C01B62EAE01B3
:1036B0004F5F5F4F61E00E94111B813071F5D801AF
:1036C000ED91FC910480F581E02DBE016F5F7F4F8D
:1036D000C80119956B017C01D8015196ED91FC91BF
:1036E0005297309741F0BB2031F0BC01A6011696ED
:1036F0008D919C911995C701B601E0960FB6F8948B
:10370000DEBF0FBECDBFDF91CF911F910F91FF9014
:10371000EF90DF90CF90BF900895C12CD12C80E81E
:10372000E82E8FEBF82EE7CFCF93DF93EC018F8954
:10373000811118C08D8991E09093780C8093990C39
:1037400010920B0D10920A0D62E78EE09DE00E9430
:103750005D050E94C1068F8991E089278F8BDF91DB
:10376000CF91089561E0CE010E94441BF4CFCF9326
:10377000DF93FC01228D338D21303105E9F02230B9
:10378000310521F0DF91CF910C94941B208D2223E1
:1037900099F0EC0150E040E060E00E94111B8130A4
:1037A00041F48E8D9F8DA8A1B9A18AA39BA3ACA340
:1037B000BDA3188E1B8E1A8EDF91CF910895FF92B4
:1037C0000F931F93CF93DF93EC0101E00093780CEC
:1037D00088E68093990C10920B0D10920A0D60E010
:1037E0008EE09DE00E945D0528818AE0F82E822F00
:1037F0006F2D0E947D6B682F660F680F660F620F3A
:103800008EE09DE00E945D052981822F6F2D0E9430
:103810007D6B682F660F680F660F620F8EE09DE06C
:103820000E945D052A81822F6F2D0E947D6B682F7B
:10383000660F680F660F620F8EE09DE00E945D05C7
:103840006B818EE09DE00E945D052C81822F6F2DA3
:103850000E947D6B682F660F680F660F620F8EE007
:103860009DE00E945D052D81822F6F2D0E947D6B52
:10387000682F660F680F660F620F8EE09DE00E9452
:103880005D052E812E51822F6F2D0E947D6B682F3A
:10389000660F680F660F620F8EE09DE00E945D0567
:1038A0000E94C106C82F0093780C10920B0D109245
:1038B0000A0D6FE08EE09DE00E945D050E94C1064A
:1038C00081110CC041E061E088E60E94A8071092D7
:1038D0000D0D80930C0D0E942604182F81E080931B
:1038E000780C10920B0D10920A0D6FE08EE09DE0A7
:1038F0000E945D05612F6F778EE09DE00E945D055F
:103900000E94C1068C2FDF91CF911F910F91FF90E4
:103910000895CF92DF92EF92FF920F931F93CF9370
:10392000DF93CDB7DEB761970FB6F894DEBF0FBE59
:10393000CDBF19872A873B874C87C984DA84EB84FB
:10394000FC84AE014F5F5F4FC701B6010E940C14AB
:10395000CE0101960E94DF1BC701B6010E94A7128B
:1039600061960FB6F894DEBF0FBECDBFDF91CF9149
:103970001F910F91FF90EF90DF90CF900895BF922D
:10398000CF92DF92EF92FF920F931F93CF93DF932B
:10399000EC01B62EC72E8D85811105C0CE010E9487
:1039A000521781110EC01B861D861C8680E0DF9198
:1039B000CF911F910F91FF90EF90DF90CF90BF902C
:1039C000089540E060EFCE010E94FF1601E0E12C77
:1039D000D12C11E0CE010E94AC16F82ECE010E942F
:1039E000AC1691E0F91218C0813099F51134D8F273
:1039F000DB86D11002C081E08D878B81882399F20C
:103A00002396EB2DFC2DCF01089629912193E817E1
:103A1000F907D9F781E0CBCFEE2DF0E0F8120FC017
:103A20008B851817A0F4DE01AE0FBF1F13968C9183
:103A3000802379F4F12C193008F41C87D12EEC0F77
:103A4000FD1F8381902F9095892383830AC0811362
:103A5000F1CFFE01EE0DF11D8381802B8383FF24C6
:103A6000F3946F2DCE010E94D0161F5F000F11F44A
:103A7000E39401E087E08E1508F0ACCFB7CFFF925A
:103A80000F931F93CF93DF938C01F62EE091780E66
:103A9000F091790E1386158614861286118610868B
:103AA00017821682158214821382C0E0B8018091B9
:103AB000780E9091790E0E94BF1CD82F882329F090
:103AC000FC1629F0CF5FFC1688F7D0E008C067E04D
:103AD000C8010E949516F80197818913F3CF8D2FA5
:103AE000DF91CF911F910F91FF900895EF92FF9278
:103AF0000F931F93CF93DF9300D000D000D0CDB7AA
:103B0000DEB78C01FC018081FF24F394803109F43D
:103B10006FC0BE016F5F7F4FC8010E948A17F82EE9
:103B2000882309F465C08D818F3109F461C08FE16C
:103B30008D838091780E9091790E0E945217B80172
:103B40008091780E9091790E0E94331740E06EE4D8
:103B50008091780E9091790E0E94FF1640E06B8163
:103B60008091780E9091790E0E94FF1640E06C8152
:103B70008091780E9091790E0E94FF16F801808155
:103B8000803141F040E06D818091780E9091790E06
:103B90000E94FF16E090750E8091780E9091790E3C
:103BA000EE2009F462C00E945217882309F1B8017F
:103BB0008091780E9091790E0E94331740916F0E8C
:103BC00068E48091780E9091790E0E94FF168091A2
:103BD0006F0E811131C064E170E080E090E00E94DE
:103BE00080088091780E9091790E0E945217FE2CD9
:103BF00089E08093720E8091760E8230D8F110E0C9
:103C00008091760E1817B0F58091720E8C3091F17C
:103C1000612FCE0101960E943F1D8981803141F1C3
:103C2000CE0101960E94FC179091720E981710F425
:103C30008093720E1F5FE4CF8091700E882329F06D
:103C400060E08091710E0E94F30564E170E080E015
:103C500090E00E9480088091700E882311F261E04C
:103C60008091710E0E94F305BCCF0E945217C0CF05
:103C70008CE0DACF8F2D29960FB6F894DEBF0FBEF9
:103C8000CDBFDF91CF911F910F91FF90EF900895DD
:103C9000CF93DF9300D000D01F92CDB7DEB781E085
:103CA0008093780C88E68093990C10920B0D1092FB
:103CB0000A0D60E08EE09DE00E945D050E94C10655
:103CC00081113BC041E067E088E60E94A80710929E
:103CD0000D0D80930C0D0E9426048F770E9499127F
:103CE00089830E9426040E9499128A830E942604D6
:103CF0008F7B0E9499128B830E9426048C830E94E2
:103D000026040E9499128D830E9426048F770E94B8
:103D100099128E830E9426040E949912825E8F83DC
:103D2000CE0101960E944C1327960FB6F894DEBF81
:103D30000FBECDBFDF91CF91089560E070E0CB0161
:103D4000F3CF009711F481E090E00C94786E1F930C
:103D5000CF93DF93EC01142F798368831A824B830E
:103D600027E0429FC00111240E94A11E212F215053
:103D7000330BA901FC01118210821282148213827A
:103D800016821582379641505109A8F78C839D837E
:103D9000DF91CF911F9108950F931F93CF93DF93DE
:103DA000EC018A859B85892B09F08AC08C819D81D5
:103DB000892B09F485C086E090E00E94786E8C0122
:103DC0004DE0BE010E94A71E1B870A874E815F81BE
:103DD00021E030E06AE875E0C8010E94CA0B48851E
:103DE000598521E030E063E875E08A859B850E9473
:103DF000CA0B63E070E08A859B850E94880B488926
:103E0000598921E030E06BE775E08A859B850E9447
:103E1000CA0B4A895B8921E030E062E775E08A8558
:103E20009B850E94CA0B4D895E8921E030E06FE6D8
:103E300075E08A859B850E94CA0B4F89588D21E0C9
:103E400030E062E675E08A859B850E94CA0B8C890A
:103E5000882359F023E030E0AE014C5E5F4F6AE505
:103E600075E08A859B850E94CA0B898D882359F04D
:103E700024E030E0AE01475E5F4F62E575E08A8581
:103E80009B850E94CA0B8E8580FF06C066E475E0A4
:103E90008A859B850E94AA0B61E070E08A859B85DC
:103EA0000E94880B8A859B850E944E0B6DE376E00D
:103EB0008A859B85DF91CF911F910F910C94AA0B5E
:103EC000DF91CF911F910F9108950F931F93CF937F
:103ED000DF93EC018A859B85892B09F078C08C8162
:103EE0009D81892B09F473C08E859F85892B09F4E8
:103EF0006EC086E090E00E94786E8C014BE0BE01BF
:103F00000E94A71E1B870A874E815F8121E030E057
:103F10006AE875E0C8010E94CA0B4885598521E00E
:103F200030E063E875E08A859B850E94CA0B63E0F8
:103F300070E08A859B850E94880B49895A8921E017
:103F400030E06FE675E08A859B850E94CA0B4E853E
:103F50005F8525E030E066E075E08A859B850E94FC
:103F6000CA0B8B89882359F023E030E0AE014D5E07
:103F70005F4F62E075E08A859B850E94CA0B8C8941
:103F8000882359F023E030E0AE014C5E5F4F6EEFC6
:103F900074E08A859B850E94CA0B61E070E08A8587
:103FA0009B850E94880B8A859B850E944E0B6DE342
:103FB00076E08A859B850E94AA0B6FED75E08A8565
:103FC0009B85DF91CF911F910F910C94AA0BDF91EC
:103FD000CF911F910F9108950F931F93CF93DF936C
:103FE000EC018A859B85892B09F0D5C08C819D8148
:103FF000892B09F4D0C086E090E00E94786E8C0195
:1040000040E1BE010E94A71E1B870A874E815F8187
:1040100021E030E06AE875E0C8010E94CA0B4885DB
:10402000598521E030E063E875E08A859B850E9430
:10403000CA0B63E070E08A859B850E94880B4889E3
:10404000598921E030E06BE775E08A859B850E9405
:10405000CA0B4A895B8921E030E06FE675E08A850A
:104060009B850E94CA0B488D598D21E030E062E6A5
:1040700075E08A859B850E94CA0B8A859B852E895F
:104080003F8949ED54E02130310539F042ED54E0EB
:104090002230310511F050E040E022E030E062EFE4
:1040A00074E00E94CA0B8A859B852E853F8521502E
:1040B000310950E040E02330310538F4220F331F3E
:1040C000F901E158FD4F4081518122E030E06AEE74
:1040D00074E00E94CA0B8A8D882359F024E030E0F6
:1040E000AE01465E5F4F66EE74E08A859B850E9456
:1040F000CA0B8CA1882359F024E030E0AE014C5D5E
:104100005F4F62EE74E08A859B850E94CA0B8EA584
:10411000882359F024E030E0AE01425D5F4F6DED41
:1041200074E08A859B850E94CA0B8C89882359F08C
:1041300023E030E0AE014C5E5F4F62E075E08A85BF
:104140009B850E94CA0B8D89882359F023E030E0BB
:10415000AE014B5E5F4F6EEF74E08A859B850E94D7
:10416000CA0B61E070E08A859B850E94880B8A8576
:104170009B850E944E0B6DE376E08A859B850E94AD
:10418000AA0B6FED75E08A859B85DF91CF911F911A
:104190000F910C94AA0BDF91CF911F910F9108956D
:1041A0000F931F93CF93DF93EC018A859B85892B17
:1041B00009F05FC08C819D81892B09F45AC086E08B
:1041C00090E00E94786E8C0149E0BE010E94A71E1B
:1041D0001B870A874E815F8121E030E06AE875E045
:1041E000C8010E94CA0B4885598521E030E063E888
:1041F00075E08A859B850E94CA0B63E070E08A8522
:104200009B850E94880B4E855F8521E030E06BE73F
:1042100075E08A859B850E94CA0B4889598921E0EF
:1042200030E06FE675E08A859B850E94CA0B8A891B
:10423000882359F024E030E0AE014E5E5F4F62E526
:1042400075E08A859B850E94CA0B61E070E08A85D3
:104250009B850E94880B8A859B850E944E0B6DE38F
:1042600076E08A859B85DF91CF911F910F910C9409
:10427000AA0BDF91CF911F910F910895FB0101903F
:104280000020E9F73197AF01461B570BDC01ED9198
:10429000FC910280F381E02D19946BE673E00C949D
:1042A0003E21FC01858991E09093780C8093990CD4
:1042B00010920B0D10920A0D8EE09DE00E943E219F
:1042C0000C94C106CF93DF93EC016EE673E00E947D
:1042D00051216CE271E080E090E00E94800850E0A3
:1042E00040E060E0CE010E94111B91E0813009F0B6
:1042F00090E0892FDF91CF9108958F929F92AF9296
:10430000BF92EF92FF920F931F93CF93DF93CDB79E
:10431000DEB7A1970FB6F894DEBF0FBECDBF7C010C
:10432000FA01CB0119A2223008F42AE08E010F5DB8
:104330001F4F822E912CB12CA12CBF01A5019401FD
:104340000E943C6BF901CA016A300CF5605DD8012E
:104350006E938D01232B242B252B79F790E080E0A1
:10436000109721F0BD01C7010E943E21A1960FB612
:10437000F894DEBF0FBECDBFDF91CF911F910F919B
:10438000FF90EF90BF90AF909F908F900895695CE1
:10439000DECF462F50E070E060E02AE00C947D21F3
:1043A0008F929F92AF92BF92CF92DF92EF92FF9245
:1043B0000F931F93CF93DF937C018B014C0182E01D
:1043C000880E911C5701E5E0AE0EB11CD0E0C0E0B4
:1043D000F40161914F01C8010E94C9216C016EE294
:1043E000C8010E94470B8C0D9D1DC80FD91F8A1450
:1043F0009B0471F7F7016581C8010E94C9218C0FE8
:104400009D1FDF91CF911F910F91FF90EF90DF9053
:10441000CF90BF90AF909F908F900895CF92DF92F2
:10442000EF92FF920F931F93CF93DF936B01770F60
:10443000EE08FF08F7FE1BC0EC016DE20E94470B7F
:104440008C0144275527BA014C195D096E097F0973
:104450002AE0CE010E947D21800F911FDF91CF9134
:104460001F910F91FF90EF90DF90CF9008952AE079
:10447000B701A601DF91CF911F910F91FF90EF90AF
:10448000DF90CF900C947D212F923F924F925F92BC
:104490006F927F928F929F92AF92BF92CF92DF9254
:1044A000EF92FF921F93CF93DF93EC016A017B01A0
:1044B000722EAB019601CB01B6010E94736E68E7C4
:1044C00073E0811126C046015701E894B7F82FEF39
:1044D0003FEF4FE75FE7C501B4010E94736E8111A2
:1044E0000CC02FEF3FEF4FE75FE7C501B4010E941B
:1044F000BB696CE773E0181664F02FEF3FEF4FE7EE
:104500005FE4C701B6010E946E6E1816B4F460E84D
:1045100073E0CE01DF91CF911F91FF90EF90DF907C
:10452000CF90BF90AF909F908F907F906F905F9053
:104530004F903F902F900C943E212FEF3FEF4FE78D
:104540005FECC701B6010E94BB6987FDE0CF20E0A8
:1045500030E0A901C701B6010E94BB69312C212CB2
:1045600087FF09C06DE2CE010E94470B1C01F7FADC
:10457000F094F7F8F09410E060E070E080E09FE3E2
:10458000711641F020E030E040E251E40E94816D7C
:104590001F5FF6CFA70196010E94156D2B013C010C
:1045A0000E942F6E4B015C012AE0BC01A401CE01E8
:1045B0000E947D217C01E20CF31C1123C1F1C50195
:1045C000B4010E94C0699B01AC01C301B2010E9409
:1045D000146D4B015C016EE2CE010E94470BE80EA8
:1045E000F91E115020F120E030E040E251E4C50115
:1045F000B4010E94216A2B013C010E942F6E4B01E5
:10460000B12CA12C2AE0B501A401CE010E947D218C
:10461000E80EF91EC501B4010E94C0699B01AC01FE
:10462000C301B2010E94146D4B015C01DACFC701D6
:10463000DF91CF911F91FF90EF90DF90CF90BF90CF
:10464000AF909F908F907F906F905F904F903F9032
:104650002F9008950C943E21FF920F931F93CF93B8
:10466000DF938C01EB01F42E64E873E0CE010E942D
:104670002A23F80162817381CE010E940E226AE82A
:1046800073E0CE010E942A23F8018681978161E4BC
:10469000892B09F464E4CE010E94470B66E973E0BC
:1046A000CE010E942A23F8014485558566857785C9
:1046B0002AE0CE010E947D2168EA73E0CE010E94CB
:1046C0002A23F801608970E0CE010E940E2268EB77
:1046D00073E0CE010E942A23FF2041F0CE01DF913A
:1046E000CF911F910F91FF900C944D21DF91CF91AD
:1046F0001F910F91FF900895FF920F931F93CF93F7
:10470000DF938C01EB01F42E64E873E0CE010E948C
:104710002A23F80162817381CE010E940E226BEB85
:1047200073E0CE010E942A23F801618581E06827A9
:1047300070E0CE010E940E2269EC73E0CE010E946F
:104740002A23F801608570E0CE010E940E2266EDFA
:1047500073E0CE010E942A23F801628570E0CE0149
:104760000E940E2268EB73E0CE010E942A23FF20F4
:1047700041F0CE01DF91CF911F910F91FF900C94EA
:104780004D21DF91CF911F910F91FF900895FF92DE
:104790000F931F93CF93DF938C01EB01F42E40E036
:1047A0000E947C2365EE73E0CE010E942A23F8016B
:1047B00047855089618972892AE0CE010E947D2156
:1047C00060E074E0CE010E942A23F80143895489F5
:1047D000658976892AE0CE010E947D216DE174E031
:1047E000CE010E942A23F801678970E0CE010E9461
:1047F0000E226BE274E0CE010E942A23F80140A150
:1048000051A162A173A12AE0CE010E947D216FE334
:1048100074E0CE010E942A23F80163857485CE01DD
:104820000E940E226BE474E0CE010E942A23F8015C
:1048300065857685CE010E940E2268E574E0CE0182
:104840000E942A23F80146A157A170E060E02AE007
:10485000CE010E947D2161E774E0CE010E942A23EF
:10486000F80140A551A570E060E02AE0CE010E9469
:104870007D2164E874E0CE010E942A23F80142A55C
:1048800053A564A575A52AE0CE010E947D2169EBA0
:1048900073E0CE010E942A23FF2041F0CE01DF9178
:1048A000CF911F910F91FF900C944D21DF91CF91EB
:1048B0001F910F91FF900895FF920F931F93CF9335
:1048C000DF938C01EB01F42E40E00E942C2366E97B
:1048D00074E0CE010E942A23F801648970E0CE01C1
:1048E0000E940E2265EA74E0CE010E942A23F8019C
:1048F0004589568970E060E02AE0CE010E947D2162
:1049000064EB74E0CE010E942A23F801678D70A148
:10491000CE010E940E2269EB73E0CE010E942A2391
:10492000FF2041F0CE01DF91CF911F910F91FF90B9
:104930000C944D21DF91CF911F910F91FF9008951D
:10494000FF920F931F93CF93DF938C01EB01F42E13
:1049500068EC74E0CE010E942A23F8016589CE013B
:104960000E94C92166ED74E0CE010E942A23F8015D
:1049700046A157A160A571A522E0CE010E94442264
:104980006BED74E0CE010E942A23F80142A153A1ED
:1049900064A175A122E0CE010E94442264EF74E07C
:1049A000CE010E942A23F801618DCE010E94C92107
:1049B00069EB73E0CE010E942A23FF2041F0CE0173
:1049C000DF91CF911F910F91FF900C944D21DF91BA
:1049D000CF911F910F91FF900895FF920F931F9316
:1049E000CF93DF938C01EB01F42E6DEF74E0CE01D9
:1049F0000E942A23F8016589CE010E94C9216AE03C
:104A000075E0CE010E942A23F80146A157A160A5B6
:104A100071A522E0CE010E9444226FE075E0CE0134
:104A20000E942A23F80142A553A564A575A522E09A
:104A3000CE010E94442265E175E0CE010E942A2346
:104A4000F80146A557A560A971A922E0CE010E94F0
:104A5000442260E275E0CE010E942A23F80142A9B7
:104A600053A964A975A922E0CE010E9444226BEDEE
:104A700074E0CE010E942A23F80142A153A164A14F
:104A800075A122E0CE010E94442264EF74E0CE01C1
:104A90000E942A23F801618DCE010E94C92169EB91
:104AA00073E0CE010E942A23FF2041F0CE01DF9166
:104AB000CF911F910F91FF900C944D21DF91CF91D9
:104AC0001F910F91FF900895FB0101900020E9F7DD
:104AD0003197AF01461B570B0C94B8181F93CF9317
:104AE000DF93E3E3F5E01281112379F0329621811F
:104AF0006213F9CFEC016CE50E94A018612FCE0182
:104B0000DF91CF911F910C94A0186111F9CF64E44B
:104B100075E0DF91CF911F910C9464252F923F9205
:104B20004F925F926F927F928F929F92AF92BF92BD
:104B3000CF92DF92EF92FF920F931F93CF93DF9369
:104B4000CDB7DEB76C970FB6F894DEBF0FBECDBF02
:104B50008C011B01DC0114968C9114978F778630A1
:104B600009F492C268F58230A0F11296ED90FC90A3
:104B70001397CC901196DC90843008F056C2A701B0
:104B8000B601C1010E94B818F101848195816C962B
:104B90000FB6F894DEBF0FBECDBFDF91CF911F914E
:104BA0000F91FF90EF90DF90CF90BF90AF909F90CC
:104BB0008F907F906F905F904F903F902F900895CF
:104BC0008C3069F160F4883009F459C28A3009F4F4
:104BD0003FC26BE475E0C1010E946425E5C18032EB
:104BE00009F4ECC18034A9F76BE5C1010E94A0185B
:104BF000F801008111810115110509F4DAC1B10133
:104C0000C8010E948E25C8010E946C1A8C01892B54
:104C100009F4CFC16CE2C1010E94A018ECCFF801E9
:104C2000C080D180E280F380A7019601C701B60160
:104C30000E94BB698111CDCF20E030E0A901C701FE
:104C4000B6010E94BB69882379F0A7019601C701CC
:104C5000B6010E94156D9B01AC01C701B6010E940F
:104C6000BB69882309F4B5CF20E030E0A901C70172
:104C7000B6010E94BB6987FF08C06DE2C1010E94B6
:104C8000A018F7FAF094F7F8F09420E836E948E134
:104C90005BE4C701B6010E946E6E87FD81C074E1BE
:104CA000A72EB12C00E210E0188E1F8AF501EB57F9
:104CB000FB4F2591359145915491C701B6010E9452
:104CC0006E6E87FD13C0F501EB5AFB4F25913591B0
:104CD00045915491C701B6010E94216A6B017C0184
:104CE0002F89388D200F311F388F2F8B1595079501
:104CF00034E0A31AB1088CEFA8168FEFB806B1F60E
:104D000055245A9420E030E0A901C701B6010E9461
:104D10006E6E18160CF04BC02CEA35EC47E257E3E8
:104D2000C701B6010E94BB6918160CF440C0A52D3E
:104D3000B4E0AB02C0011124B12CA12CFC01E35959
:104D4000FB4F3F019C012B573B4F49013FEF53164F
:104D500071F1F301EA0DFB1D2591359145915491B7
:104D6000C701B6010E94BB6987FF13C0F401EA0DB9
:104D7000FB1D2591359145915491C701B6010E94C3
:104D8000216A6B017C018F89988D801B910B988F14
:104D90008F8B159507955A9494E0A91AB108D6CF30
:104DA00000E210E055E0552E188E1F8AABCFC701E8
:104DB000B6010E942F6E4B015C012B013C0106E005
:104DC00080E492E4AFE0B0E0898F9A8FAB8FBC8F24
:104DD000102F01509AE04916510461047104C8F083
:104DE000698D7A8D8B8D9C8D2AE030E040E050E01B
:104DF0000E943C6B298F3A8F4B8F5C8FC301B201AD
:104E00002AE030E040E050E00E943C6B29013A018A
:104E1000DFCFC501B4010E94C0699B01AC01C7018D
:104E2000B6010E94146D6B017C01698D7A8D8B8DAA
:104E30009C8D0E94C0699B01AC01C701B6010E9414
:104E4000216A2B013C010E942F6E6B017C010E94A4
:104E5000C0699B01AC01C301B2010E94146D9B01AA
:104E6000AC010E94156D0E942F6EC60ED71EE81E63
:104E7000F91E898D9A8DAB8DBC8DC816D906EA06B0
:104E8000FB06D8F09FEF891A990AA90AB90AAF89D7
:104E9000B88DAB2B39F1BAE08B169104A104B104A3
:104EA00008F1EF89F88D3196F88FEF8BC12CD12C5A
:104EB0007601812C912C540183942AE0422E512CAE
:104EC000612C712CC701B601A30192010E943C6BB9
:104ED000672B682B692B51F4111644F469017A0190
:104EE0001150F0CFC12CD12C7601E7CFB501A40130
:104EF000C1010E94DD18112371F14E01F1E18F0E05
:104F0000911C012F54019AE0492E512C612C712CD7
:104F1000015068F0C701B601A30192010E943C6BE9
:104F2000605DD4016E934D0169017A01F1CF812F4B
:104F300090E0BC0160957095F501E81BF90B319785
:104F40008EE2808344275527461B570B6A0D7B1D35
:104F5000C1010E94B818EF89F88DEF2B29F165E6A1
:104F6000C1010E94A0180F89188D17FF07C06DE2BC
:104F7000C1010E94A018119501951109FE017796B3
:104F80009F018AE0E82EF12CC801B7010E94896BCD
:104F9000805D82938B01672BB9F7A9014E1B5F0BD4
:104FA000BF01C1010E94B818D10114968D919C9146
:104FB000EECD6DE5C1010E94A018F6CF6BE7C101EF
:104FC0000E94A018F801008111810115110559F105
:104FD000D8011696CC9016971796DC9062E2C10124
:104FE0000E94A0187601F70161917F01662321F0EC
:104FF000C1010E946E25F7CF62E2C1010E94A01894
:105000006AE3C1010E94A018B101C8010E948E2567
:10501000C8010E946C1A8C01892B29F06CE2C10135
:105020000E94A018D2CF6DE7C5CF62E2C1010E94F5
:10503000A0188601E00EF11EE016F10639F0F80125
:1050400061918F01C1010E946E25F6CF62E2B2CF5D
:10505000CD90DD90ED90FC90B701A601F7FE0BC05E
:105060006DE2C1010E94A01844275527BA014C19CE
:105070005D096E097F09C1010E94DD1885CD4D9142
:105080005D916D917C91F7CF8C9160E575E0811118
:1050900002C065E575E0C1010E94642575CDCF931E
:1050A000DF9300D000D0CDB7DEB749835A836B833E
:1050B0007C831E821D82BE016F5F7F4F0A960E9415
:1050C0008E2526960FB6F894DEBF0FBECDBFDF91BA
:1050D000CF910895EF92FF920F931F93CF93DF9399
:1050E000EC018B01E884F984B701C8010E94B9651D
:1050F00001151105A9F10996E816F90688F1CE0106
:105100000E94BE04882361F18E859F85019629F156
:105110009F878E87EE81FF818F858583EE81FF815A
:105120008E8586836E817F8147E050E0C8010E94B2
:10513000B703EE81FF81E80FF91F10829C01245014
:1051400031094E815F8162E8CE01DF91CF911F91DD
:105150000F91FF90EF900C940B0981E090E0D8CF75
:1051600080E0DF91CF911F910F91FF90EF90089514
:105170006BE575E08091DF149091E0140C946A283F
:10518000EF92FF920F931F93CF93DF93209101151E
:10519000309102159093021580930115892B09F027
:1051A00046C0E091E514F091E614309709F01995A6
:1051B000E091E114F091E214E580F680E114F1044D
:1051C000E1F0C0911A0DD0911B0D2097B1F08085B0
:1051D0000EE216E0882311F006E316E0C8010E94F3
:1051E000AC65AC01B701888199810E94BF08882312
:1051F00021F0B801CE010E94CE0DC0E08091F814DC
:10520000C817F0F48C2F90E0880F991FE091FA14E2
:10521000F091FB14E80FF91F80819181DC01ED9181
:10522000FC910480F581E02D1995CF5FE7CF232B0A
:1052300039F4E091E714F091E814309709F01995EA
:10524000E091E914F091EA14309759F0809101153A
:1052500090910215DF91CF911F910F91FF90EF90E8
:105260001994DF91CF911F910F91FF90EF900895C6
:10527000DF92EF92FF920F931F93CF93DF93DC01A6
:105280001296DC90C2E0D0E0DD2051F18C01CD2DF2
:10529000D0E02196F12CE12CED1410F5D8011396F5
:1052A000ED91FC911497C701880F991FE80FF91F22
:1052B000808191812C91222349F00E94AC65029655
:1052C000C80FD91F3FEFE31AF30AE6CFFC010190A4
:1052D0000020E9F731979F01281B390BC901EFCF57
:1052E000CE01DF91CF911F910F91FF90EF90DF9052
:1052F00008950F931F93CF93DF9361157105C1F14B
:10530000E0911A0DF0911B0D309791F1A785B089AE
:10531000109771F1C281D381209751F18C01FD0169
:1053200001900020E9F73197EA1BFB0BA881B981B6
:10533000ED0109900020E9F72197CA1BDB0BCE0F86
:10534000DF1FCB010E94AC6522968C0F9D1F0115BB
:10535000110541F0F80101900020E9F7801B910B45
:105360008E0F9F1F0196DF91CF911F910F9108958E
:1053700090E080E0F8CF4F925F926F927F928F9291
:105380009F92AF92BF92CF92DF92EF92FF920F93D4
:105390001F93CF93DF937C01DC0112964C906090B9
:1053A0001A0D70901B0DD12CC12C512C02E010E075
:1053B000451409F4BDC0E701AC80BD80AC0CBD1C38
:1053C000F501808191818230910509F455C08330C7
:1053D000910509F472C0019709F080C0838194811E
:1053E0000E94AC65EC012396D50112969C91129710
:1053F000933079F128F4913068F490E080E018C09F
:10540000943081F19530C9F715968D919C910E9449
:1054100038290EC0F501A581B6819130B1F4FD01A6
:1054200001900020E9F73197CF018A1B9B0B029670
:105430008C0F9D1F009709F451C0080F191F5520AC
:1054400009F44CC00F5F1F4F49C0CD010E94AC65ED
:10545000EECF1596ED91FC91808181110AC085E017
:1054600090E0E6CFF501858196810E94EB0B90E0FC
:10547000DFCF84E090E0DCCF83809480C4010E9481
:10548000AC65EC01F501A581B681109751F0FD01E5
:1054900001900020E9F73197CF018A1B9B0B2596DD
:1054A000C7CFD701ED91FC913097C1F0B401848151
:1054B00095810E9479292496BBCF828190E0D30107
:1054C0001296ED91FC918130910569F4838194816C
:1054D000009721F00E94BB29009741F55394D7E033
:1054E000CD0ED11C65CF0397C9F7E701A881B9811B
:1054F0001097A1F314960D90BC91A02DED01099089
:105500000020E9F7CE0101978A1B9B0B21852223FE
:1055100059F00190F081E02DDF010D900020E9F7B6
:105520008E1B9F0B8A0F9B1F0C9684CF069682CFF3
:10553000C801DF91CF911F910F91FF90EF90DF9005
:10554000CF90BF90AF909F908F907F906F905F9023
:105550004F900895CF92DF92EF92FF920F931F9397
:10556000CF93DF93FC018481982F9F7739F4807863
:10557000806284831182108213821282848185FD6D
:105580000BC080E090E0DF91CF911F910F91FF90D1
:10559000EF90DF90CF9008956115710591F3EA01C6
:1055A0007B016F01008111810115110589F1D8017D
:1055B00016966D917C91C7010E94BD70892B31F1C7
:1055C000C8010E946C1A8C01EFCF3897FD83EC83E1
:1055D0003097B9F2E601AA81BB81109791F0CF0113
:1055E0008A1B9B0B23E0959587952A95E1F71596E5
:1055F0008C93FB83EA8315821482F782E682CF01C3
:10560000C2CFF983E883FB83EA83F5CFC801BBCF20
:10561000EC81FD818A819B810896E817F907A8F63D
:1056200081E08887AECF85ED8093BC008091740CBB
:105630009091750CA091760CB091770C0796A11DF6
:10564000B11D23E0B695A795979587952A95D1F733
:105650002091BC0024FD03C01092720C089540916B
:10566000740C5091750C6091760C7091770C452BF1
:10567000462B472B69F30097A105B10541F02AE2BB
:105680002A95F1F700C00197A109B109E1CF8091F6
:10569000730C0C943F06AF92BF92CF92DF92EF92C1
:1056A000FF920F931F93CF93DF9300D01F92CDB73C
:1056B000DEB78C016B017A018091220C8333E9F40F
:1056C0005B016801C40ED51EC016D106A9F10E9467
:1056D000CD108FE00E94D810812F0E94D810802F0B
:1056E0000E94D8100F5F1F4F80E00E94D810F50174
:1056F00081935F010E94C310E7CF843369F50E9454
:10570000CD1019830A838F2D8F778B83EC8264E011
:1057100070E0CE0101960E94A910A70170E060E040
:10572000C6010E94AB70E114F10421F0B701C6017B
:105730000E94A9100E94C310C7010F900F900F90F4
:105740000F90DF91CF911F910F91FF90EF90DF901D
:10575000CF90BF90AF9008950E94CD100F3F1105DC
:1057600009F030F419820A831B8263E070E0D1CF24
:1057700017FD0BC019820A8333E0169507953A95F9
:10578000E1F7007E08600B83F0CFC80126E0969514
:1057900087952A95E1F7807E19830A830115104CBD
:1057A00018F480618B83E1CF8861FCCFCF93DF93C6
:1057B0001F92CDB7DEB72091230C30E0322F222785
:1057C000260F371F90E0982F882741E050E0BE0158
:1057D0006F5F7F4F820F931F0E944B2B89810F9029
:1057E000DF91CF910895CF93C82F462F61E070E0ED
:1057F0000E94EB1161E070E08C2F0E94D62B81118A
:10580000F9CFCF910895CF93C82F80E591E00E9402
:10581000390468E070E08C2FCF910C94F32BCF9378
:10582000C82F80E591E00E94390460E170E08C2F80
:10583000CF910C94F32BCF93DF93EC01888D8830BC
:1058400020F40E940F2C88E0888FDF91CF9108957B
:10585000CF93C82F80E591E00E94390463E070E0A7
:105860008C2FCF910C94D62BCF93DF93EC018C85AA
:105870008830D0F40E94282C843189F0882379F074
:10588000883169F021E08C3159F4E881F981008494
:10589000F185E02DCE01199521E0892B09F420E056
:1058A000822FDF91CF91089580E0FBCFCF92DF92DE
:1058B000EF92FF92CF93DF93EC018C85883068F4F0
:1058C0000E94032C0E94B3086B017C018C850E940E
:1058D000282C811109C088E08C87DF91CF91FF903F
:1058E000EF90DF90CF90089561E070E080E090E06D
:1058F0000E9480080E94B308AB01BC014C195D09ED
:105900006E097F098D859E85B0E0A0E04817590794
:105910006A077B07D8F28C850E940F2CDCCFCF93CF
:10592000FC01C08D80E591E00E94390460E270E0E6
:105930008C2F0E94F32B62E070E08C2F0E94D62BFC
:1059400084FD16C062E070E08C2F0E94D62B83FF8E
:105950000AC048E162E070E08C2F0E94EB1180E009
:1059600090E0CF91089580E591E00E943904E3CF63
:1059700040E162E070E08C2F0E94EB1181E0F0CFFB
:10598000CF93DF931F92CDB7DEB741E050E0BE0169
:105990006F5F7F4F90E080E00E944B2B89810F90DA
:1059A000DF91CF910895CF93DF93C4E1D0E00E94BF
:1059B000C02C882361F061E070E080E090E00E94FC
:1059C00080082197A1F780E0DF91CF91089581E0D1
:1059D000FBCFCF92DF92EF92FF921F93CF93DF9393
:1059E000CDB7DEB76A970FB6F894DEBF0FBECDBF56
:1059F000FA0121E533E03A8329835FEF5B835C831F
:105A00005D831E8238872F83C280D380E480F58037
:105A1000C986DA86EB86FC86FB014281538164816C
:105A200075814F87588B698B7A8B3C8B2B8BFC0154
:105A300082819381A481B5818D8B9E8BAF8BB88F32
:105A40008091240C81119BC060E372E080E090E0C3
:105A50000E9480081FB7F8948091210C811127C003
:105A6000E3E9F6E08491E9EDF6E09491E82FF0E0C7
:105A7000EE0FFF1FEC5EF94FA591B491EC91E92375
:105A800021F461E085E30E94F30561E085E30E9473
:105A900060068CB580618CBD8CB580648CBD61E086
:105AA00084E30E94600661E083E30E9460068091C7
:105AB000210C8F5F8093210C1FBFE8E6F6E0E49194
:105AC000F0E0EE0FFF1FE650FA4F8591949190930E
:105AD000200C80931F0CEEEAF6E0E491E0931E0C9C
