:100000000C9461020C942F270C9404270C94D9268D
:100010000C94AE260C9483260C9458260C942D2612
:100020000C9402260C9492020C9492020C9492026C
:100030000C9492020C9492020C9492020C949202F0
:100040000C9492020C9492020C9492020C949202E0
:100050000C9492020C9492020C9492020C94B82587
:100060000C9492020C9480280C9456280C949202C2
:100070000C9492020C9492020C9492020C949202B0
:100080000C9492020C9492020C9492020C949202A0
:100090000C942C280C9402280C9492020C94942416
:1000A0000C9492020C9492020C9492020C94920280
:1000B0000C9492020C9492020C9492020C94920270
:1000C0000C9492020C9492020C9492020C94D827F5
:1000D0000C94AE270C9492020C9484270C945A270B
:1000E0000C9492020C9495020C9418140C945D16C6
:1000F0000C94B6350C94811F0C947C150C94281428
:100100000C94021E0C94F9030C949E030C948D36EF
:100110000C943C150C94EB030C9456090C94241489
:100120000C941C140C9402370C947E160C94341707
:100130000C944C0A0C9442090C941E040C94180460
:100140000C94D41F0C94E30C0C94D2350C94E8223C
:100150000C949D1E0C94D9080C94FA350C94E4353B
:100160000C9410040C9433090C9400040C94BA09F8
:100170000C9471030C94FD030C94DF150C94220471
:100180000C94EB150C9494020C94EB350C94070A28
:100190000C942C040C944E200C94A8210C946E1CEE
:1001A0000C9465150C9414140C940A040C949B2163
:1001B0000C94A3150C9426040C94FB150C94BA15FE
:1001C0000C9417090C94C1360C9406040C94F33665
:1001D0000C94C6140C94F5030C94EA080C945A037E
:1001E0000C945B030C944E150C9464090C94C2227D
:1001F0000C94E2080C94E40D0C94FB0D0C94D208C2
:100200000C94521E0C9435290C9414040C948616EC
:100210000C942B040C94A1150C94401F0C943004E6
:100220000C94E0080C944F370C9420140C94DE329C
:100230000C946A030C94A83F0C94F1030C9423369D
:100240000C948F190C9496024E414E494E495459C4
:10025000494E46CDCCCC3D0AD7233C17B7D1387791
:10026000CC2B329595E6241FB14F0A0000204100A7
:1002700000C84200401C4620BCBE4CCA1B0E5AAEF1
:10028000C59D7400407A10F35A00A0724E18090000
:1002900010A5D4E80000E87648170000E40B5402EB
:1002A0000000CA9A3B000000E1F505000080969826
:1002B00000000040420F000000A086010000001076
:1002C0002700000000E803000000006400000000B8
:1002D000000A00000000000100000000002C76D899
:1002E00088DC674F0823DFC1DFAE59E1B1B796E57F
:1002F000E3E453C63AE651997696E8E6C28426EBE3
:10030000898C9B62ED407C6FFCEFBC9C9F40F2BAF5
:10031000A56FA5F490055A2AF75C936B6CF9676D8D
:10032000C11BFCE0E40D47FEF520E6B500D0ED90E2
:100330002E0300943577050080841E080000204EAF
:100340000A000000C80C333333330F986E12831148
:1003500041EF8D2114893BE65516CFFEE6DB18D11F
:10036000844B381BF77C1D901DA4BBE424203284F1
:10037000725E228100C9F124ECA1E53D27005EBC3C
:10038000E2613FDD83C29C7E20A3FD1F41009D23CF
:10039000BE46DB65F88C11AF32CA57E97400002104
:1003A00000240027002A002D003000330001010046
:1003B00000040107010A0100002200250028002B8B
:1003C000002E003100340002010000050108010B7D
:1003D0000100000A0B02090C0D0E080703040100BE
:1003E000000000000000000000000000000000000D
:1003F00000000000000000000000000000121110CA
:1004000000000000000000000000000000000000EC
:10041000000000000000000000200023002600294A
:10042000002C002F0032000001000003010601092A
:100430000105050505070508080808020202020A69
:100440000A08080404040401010101010101010377
:1004500003030303030303040707070C0C0C0C0C32
:100460000C0C0C0202020206060606060606060B25
:100470000B0B0B0B0B0B0B0102102020080810209C
:100480004010204080020102010804020101020420
:1004900008102040808040201008040201800402DF
:1004A0000180402010080402010804020101020436
:1004B00008102040800102040810204080003529E7
:1004C000A83F11241FBECFEFD1E2DEBFCDBF00E0B9
:1004D0000CBF15E0A0E0B2E0EAE3F7E900E00BBFF3
:1004E00002C007900D92A43BB107D9F720E1A4EB1D
:1004F000B5E001C01D92AD3DB207E1F712E0C0E6E4
:10050000D2E000E006C021970109802FFE010E9481
:100510004946CF35D10780E00807A9F70E94982FF8
:100520000C948B4B0C940000089508959091C7098A
:100530008091C6092FEF3FEF981748F4E92FF0E0BC
:10054000E558F84F208130E09F5F9093C709C901BB
:1005500008959091C7098091C6092FEF3FEF981732
:1005600048F4E92FF0E0E558F84F208130E09F5F34
:100570009093C709C9010895CF92DF92EF92FF923D
:10058000CF93DF93B091F50EA0E08111AB2F809156
:10059000F60E90E0880F991FAC01495E5B4FC0904A
:1005A000FB0ED090FC0EE090FD0EF090FE0E30E0C1
:1005B00020E0FA01C591D491E881B90190E080E092
:1005C000EB23EA130AC02F5F3F4F6C157D058E05A4
:1005D0009F0578F36FEF7FEFCB01DF91CF91FF9015
:1005E000EF90DF90CF900895ECE7F0E190E02FEFEF
:1005F0003FEF981791F04191242748E0B9016170CD
:10060000772736952795672B21F051E0252750EA6B
:100610003527415099F79F5FECCF922F832F089594
:10062000E82FE295EF70F0E0EE0FFF1FE85BF94F67
:1006300020813181482F4F7081E090E0A0E0B0E050
:1006400004C0880F991FAA1FBB1F4A95D2F76623C3
:1006500029F0822B932B9183808308958095909528
:1006600082239323F8CF20912506260F3327331FAB
:1006700021323105ECF42091C107FC0190E080E0CB
:10068000243069F082E00895A09125062191AC0103
:100690004B5F594FA40FB52FB11D2C9301968617B0
:1006A00098F380912506680F6093250680E00895F1
:1006B00081E008950895E091C7098091C609E8177F
:1006C00030F4F0E0E558F84F808190E008958FEF26
:1006D0009FEF08958091C6099091C709891B990BD6
:1006E0000895CF92DF92EF92FF920F931F93CF93D3
:1006F000DF937C01CB018A012091C707222389F077
:10070000EB016B01C40ED51ECC15DD0569F06991B6
:10071000D701ED91FC910190F081E02DC701199571
:10072000F3CF642F0E943303C801DF91CF911F9153
:100730000F91FF90EF90DF90CF900895CF93DF93CC
:100740001F92CDB7DEB769832091C7072223F9F046
:100750002091C409203258F021E030E0FC013383BD
:10076000228390E080E00F90DF91CF9108958091F7
:10077000C509E82FF0E0E853F84F998190838F5F27
:100780008093C5098093C40981E090E0ECCF61E0DB
:10079000CE0101960E943303F7CF8150823108F0D9
:1007A0005AC0E82FF0E08827E752FC4F8F4F0C9497
:1007B0004946F903FD03EB03F103F5032B040004A1
:1007C00006040A041004140418041E0422042B0452
:1007D00026042C043004809180008F778093800061
:1007E0000895809180008F7DF9CF80918000877F70
:1007F000F5CF84B58F7784BD089584B58F7DFBCF09
:100800008091B0008F778093B00008958091B00000
:100810008F7DF9CF809190008F778093900008951D
:10082000809190008F7DF9CF80919000877FF5CFE8
:100830008091A0008F778093A00008958091A00000
:100840008F7DF9CF8091A000877FF5CF8091200127
:100850008F77809320010895809120018F7DF9CFBB
:1008600080912001877FF5CF1F93CF93DF93282FAF
:1008700030E0F901EF52FC4F8491F901E958FB4F48
:10088000D491F901EF5CFB4FC491CC23A9F0162F52
:1008900081110E94CD03EC2FF0E0EE0FFF1FE95411
:1008A000FC4FA591B4918FB7F894EC91111108C049
:1008B000D095DE23DC938FBFDF91CF911F910895F8
:1008C000DE2BF8CF1092C10781E08093C007109211
:1008D0009B0761E084E10E94340461E085E10E94AD
:1008E0003404E9EBF0E080818E7F808380818D7F0E
:1008F000808388E48093B80085E48093BC000895E9
:10090000CF93DF9391E0909304068823B9F0C091D0
:10091000B800D091BA008091BC008A7B8093BC0063
:1009200060E084E10E94340460E085E10E943404C8
:100930000E946204D093BA00C093B800DF91CF91B7
:100940000895CF93DF9390E0FC01E958FB4F249189
:100950008F5C9B4FFC0184918823C9F090E0880F45
:10096000991FFC01E356FC4FA591B491FC01E95499
:10097000FC4FC591D49161110DC09FB7F8948C9133
:10098000209582238C938881282328839FBFDF9121
:10099000CF910895623051F49FB7F8943C91822F23
:1009A000809583238C93E8812E2BEFCF8FB7F8941B
:1009B000EC912E2B2C938FBFEACFCF93DF93EC01DA
:1009C000862F24EB32E0398328831D821C8218860F
:1009D00019861A861B8648EC50E060E070E04C8770
:1009E0005D876E877F8791E0988B1F821E82282FFC
:1009F00030E03B832A8360E00E94A10486E692E017
:100A000099838883198A1A8A1B8A1C8A84E690E053
:100A10009E8B8D8B1F8A188E198E1A8E1C8E1B8EA4
:100A20001E8E1D8E83E090E098A38F8F62E08A81F6
:100A3000DF91CF910C94A1043FB7F8948091000608
:100A400090910106A0910206B091030626B5A89BDD
:100A500005C02F3F19F00196A11DB11D3FBFBA2F50
:100A6000A92F982F8827BC01CD01620F711D811D10
:100A7000911D42E0660F771F881F991F4A95D1F795
:100A80000895CF92DF92EF92FF920F931F93CF932F
:100A9000DF93D091C40981E0D13208F09CC0C091AD
:100AA000E8070E941C056B017C018091C107811140
:100AB0006CC082E08093C10781E08093C0078FEF14
:100AC0008093BF071092BE07D093BD07A8ECB7E094
:100AD000EDE9F7E080E0D8138DC010929C0780917B
:100AE0009C07CC0FC82BC0939C0780919B0781303B
:100AF00009F084C010929B070E941C056B017C01C9
:100B000080919C078093BB008091C3079091C4079C
:100B1000A091C507B091C607892B8A2B8B2BA1F01A
:100B20000E941C050091C3071091C4072091C507BE
:100B30003091C6076C197D098E099F0906171707A2
:100B40002807390708F442C08091BC0083FDD8CF44
:100B500085EC8093BC000E941C056B017C01809198
:100B6000C107823009F44CC08091BF078F3F09F460
:100B700069C08091BF07803209F466C08091BF07C9
:100B8000803309F463C084E026C08091C30790914C
:100B9000C407A091C507B091C607892B8A2B8B2B60
:100BA00009F483CF0E941C050091C3071091C4076C
:100BB0002091C5073091C6076C197D098E099F09E0
:100BC000061717072807390708F06FCF8091C2076B
:100BD0000E94800485E01092C5091092C409109209
:100BE000C707DF91CF911F910F91FF90EF90DF909A
:100BF000CF9008959D9191938F5F6DCF85EEA9CF92
:100C00008091C3079091C407A091C507B091C60712
:100C1000892B8A2B8B2B09F4A2CF0E941C050091F3
:100C2000C3071091C4072091C5073091C6076C19FE
:100C30007D098E099F09061717072807390708F04D
:100C40008ECFC4CF80E0C7CF82E0C5CF83E0C3CFD3
:100C50008F929F92AF92BF92CF92DF92EF92FF92CC
:100C60000F931F93CF93DF93D82FC62F142F61328A
:100C700008F09CC00E941C056B017C018091C1079B
:100C800081116FC081E08093C1071093C0079FEF6F
:100C90009093BF071092BE079C0F9093BD0780935F
:100CA0009C0780919C07DD0FD82BD0939C078091E7
:100CB0009B07813009F07CC010929B070E941C05A5
:100CC0006B017C0180919C078093BB008091C307DE
:100CD0009091C407A091C507B091C607892B8A2BB4
:100CE0008B2BA1F00E941C050091C3071091C40733
:100CF0002091C5073091C6076C197D098E099F099F
:100D0000061717072807390708F44CC08091BC0064
:100D100083FDD8CF85EC8093BC000E941C056B013D
:100D20007C018091C107813009F444C08091BE07E5
:100D30008C1710F4C091BE07EDE9F7E0ABE7B7E020
:100D400080E08C1359C08C2FDF91CF911F910F91B0
:100D5000FF90EF90DF90CF90BF90AF909F908F90DB
:100D600008958091C3079091C407A091C507B091E1
:100D7000C607892B8A2B8B2B09F480CF0E941C0578
:100D80008090C3079090C407A090C507B090C60795
:100D90006C197D098E099F0986169706A806B90663
:100DA00008F06CCF8091C2070E948004C0E0CBCFD6
:100DB00085EEB1CF8091C3079091C407A091C5077C
:100DC000B091C607892B8A2B8B2B09F4AACF0E94DE
:100DD0001C050091C3071091C4072091C5073091ED
:100DE000C6076C197D098E099F0906171707280782
:100DF000390708F096CFD6CF91919D938F5FA1CF01
:100E00008F929F92AF92BF92CF92DF92EF92FF921A
:100E10006B017C010E941C054B015C01C114D104D3
:100E2000E104F104B9F00E941C05681979098A09E6
:100E30009B09683E73408105910580F321E0C21A49
:100E4000D108E108F10888EE880E83E0981EA11C05
:100E5000B11CE4CFFF90EF90DF90CF90BF90AF90A8
:100E60009F908F9008952FB7F8946091FC05709132
:100E7000FD058091FE059091FF052FBF0895CF924B
:100E8000DF92EF92FF920F931F93CF93DF93CDB733
:100E9000DEB7C054D1400FB6F894DEBF0FBECDBF51
:100EA0000E9433070091F70E1091F80E2091F90E71
:100EB0003091FA0E6B017C01C01AD10AE20AF30AE2
:100EC00097018601003D17402105310590F480917E
:100ED000FF0EC05CDE4F0FB6F894DEBF0FBECDBF75
:100EE000DF91CF911F910F91FF90EF90DF90CF9006
:100EF00008956093F70E7093F80E8093F90E909317
:100F0000FA0E1092F20E1092F10E1092F00E109254
:100F1000EF0E1092EE0E62E08091F30E0E94A1049B
:100F200061E070E080E090E00E94000761E0809165
:100F3000F30E0E94A10460E08091F30E0E9434043D
:100F40008091F40E8551823020F58BE291E101977A
:100F5000F1F762E08091F30E0E94A1048091000FEE
:100F600090E08230910538F0880F991F880F991F03
:100F700005970197F1F7F89480E00E94BC026F3F5B
:100F80007F4F8F4F9F4F61F41092FF0E789480E057
:100F9000A0CF64E170E080E090E00E940007D9CF2C
:100FA00081E00E94BC026F3F7F4F8F4F9F4F61F3E4
:100FB0008E010F5F1F4F6E012FEBC21A2EEFD20A68
:100FC000780180E00E94BC02F70160837183828314
:100FD000938381E00E94BC02F7016483758386835A
:100FE0009783F8E0EF0EF11CEC14FD0451F77894B0
:100FF00030E020E0F801C080D180E280F3804481BD
:10100000558166817781FFEFCF16DF06EF06FF0679
:1010100031F04F3F8FEF58076807780719F41092A7
:10102000FF0EB5CFF90183E0F595E7958A95E1F7D5
:10103000E251F14F8081880FC416D506E606F70607
:1010400010F180832F5F3F4F085F1F4F283231051B
:1010500089F64091F20E2091EE0E8091EF0E280F4E
:101060003327331F8091F00E280F311D8091F10E30
:10107000820F932F911D99274817190681F681E059
:101080008093FF0E26CF8160DCCF1F93CF93DF9339
:1010900000D01F92CDB7DEB71091BC10812F0E94F7
:1010A000F402E12FF0E0EA58FF4E9683E1E0E10F11
:1010B000F0E0EA58FF4E86831E5F1093BC108091CB
:1010C0007910823018F061E00E943404809176102B
:1010D000909177104091BC1050E0DC01ED91FC91B3
:1010E0000280F381E02D6CE770E119958091791011
:1010F000823070F18091761090917710DC01ED9143
:10110000FC910680F781E02D19958091D010909187
:10111000D110A091D210B091D31089839A83AB8360
:10112000BC8389819A81AB81BC81AC01BD014150F6
:1011300051096109710949835A836B837C83892B27
:101140008A2B8B2B71F760E0809179100E94340418
:101150008091761090917710DC01ED91FC910284E2
:10116000F385E02D199597FFF3CF1092BC100E94E4
:1011700033076093CC107093CD108093CE10909372
:10118000CF108091C2109091C31001969093C3101C
:101190008093C2100F900F900F900F90DF91CF911E
:1011A0001F91089582E090E090932D0280932C028D
:1011B000089583E090E090932D0280932C0208958F
:1011C000A89508950895DC01ED91FC910190F081BE
:1011D000E02D1994AF92BF92CF92DF92EF92FF92DF
:1011E0000F931F93CF93DF936C017B018B01040F4F
:1011F000151FEB015E01AE18BF08C017D10759F0EB
:101200006991D601ED91FC910190F081E02DC6012C
:101210001995892B79F7C501DF91CF911F910F9116
:10122000FF90EF90DF90CF90BF90AF90089590E047
:1012300080E00895FC01A089B1898C91A689B789C5
:1012400082FD0FC09C91818D8F5F8F73228D8217DD
:1012500049F0A18DAE0FBF2FB11D5D969C93818F7C
:1012600008958C910895FC01538D448D252F30E015
:10127000842F90E0821B930B541710F0CF960895A3
:1012800001970895FC01918D828D981761F0A28DD0
:10129000AE0FBF2FB11D5D968C91928D9F5F9F7396
:1012A000928F90E008958FEF9FEF0895FC01918D4C
:1012B000828D981731F0828DE80FF11D858D90E0B9
:1012C00008958FEF9FEF0895FC01918D228D892F56
:1012D00090E0805C9F4F821B91098F73992708953E
:1012E00089EE97E00E94640921E0892B09F420E04F
:1012F000822F089586E898E00E94640921E0892BF6
:1013000009F420E0822F089583E299E00E946409A5
:1013100021E0892B09F420E0822F089589ED9FE0D8
:101320000E94640921E0892B09F420E0822F0895AE
:10133000FC01A48DA80FB92FB11DA35ABF4F2C914A
:10134000848D90E001968F739927848FA689B78941
:101350002C93A089B1898C91837080648C93938D38
:10136000848D981306C00288F389E02D80818F7DDB
:1013700080830895EF92FF920F931F93CF93DF9393
:10138000EC0181E0888F9B8D8C8D98131AC0E889C1
:10139000F989808185FF15C09FB7F894EE89FF8990
:1013A0006083E889F98980818370806480839FBF2E
:1013B00081E090E0DF91CF911F910F91FF90EF902E
:1013C0000895F62E0B8D10E00F5F1F4F0F7311273E
:1013D000E02E8C8D8E110CC00FB607FCFACFE88979
:1013E000F989808185FFF5CFCE010E949809F1CF60
:1013F000EB8DEC0FFD2FF11DE35AFF4FF0829FB7ED
:10140000F8940B8FEA89FB8980818062CFCFCF93DC
:10141000DF93EC01888D8823B9F0AA89BB89E8891C
:10142000F9898C9185FD03C0808186FD0DC00FB6C2
:1014300007FCF7CF8C9185FFF2CF808185FFEDCF40
:10144000CE010E949809E9CFDF91CF91089580E005
:1014500090E0892B29F00E948E0981110E940000E2
:1014600080E090E0892B29F00E94840981110E947C
:10147000000080E090E0892B29F00E947A09811118
:101480000E94000080E090E0892B29F00E94700902
:1014900081110C94000008950895CF92DF92EF928D
:1014A000FF920F931F93CF93DF93EC010E943307BA
:1014B0000E811F81288539850617170728073907E8
:1014C00029F16B017C01C01AD10AE20AF30A9701E3
:1014D0008601C880D980EA80FB800C151D052E0589
:1014E0003F05C0F06E837F8388879987EC81FD81FB
:1014F000309781F08A8581110DC0DF91CF911F91C6
:101500000F91FF90EF90DF90CF90199400E010E0E2
:101510009801DFCFDF91CF911F910F91FF90EF9056
:10152000DF90CF900895CF92DF92EF92FF920F93CA
:101530001F93CF93DF93FC012089222349F1EC0113
:101540000E943307088519852A853B856B017C013C
:10155000C01AD10AE20AF30A0C851D852E853F8543
:101560000C151D052E053F0598F4688779878A8735
:101570009B87E881F9810280F381E02DCE01DF9124
:10158000CF911F910F91FF90EF90DF90CF90199422
:10159000DF91CF911F910F91FF90EF90DF90CF904F
:1015A0000895FC01EB59FF4F20813181399640812C
:1015B000442351F03B9740815181452B29F08959B3
:1015C0009F4FFC0120813181C90108950F931F9322
:1015D000CF93DF93EC01FC01E259FF4F8081811131
:1015E0003FC03B97808191810197D1F1CE018196D7
:1015F0000E94930ACE010E94930A2DA98C89811121
:101600001EC02223C1F1FE01EB59FF4F8081918161
:10161000039789F183E090E091838083FE01E5598F
:10162000FF4F008111810115110529F1CE010E94A2
:10163000D10AF801DF91CF911F910F911994FE010A
:10164000EB59FF4F80819181211105C0019799F0DD
:1016500081E090E0E1CF029771F082E090E0DCCF92
:10166000FE01E759FF4F80819181329720813181BE
:101670008217930789F6DF91CF911F910F910895FB
:101680000F931F93CF93DF93EC018B0162307105B1
:10169000E1F06330710539F16130710511F5FC013C
:1016A000ED59FF4F80819181892BD9F0CE010E94A5
:1016B000D10A0197B1F0C759DF4F1983088381E040
:1016C000DF91CF911F910F910895FC01ED59FF4FCC
:1016D00080819181892B29F0CE010E94D10A029745
:1016E00051F780E0EDCFFC01ED59FF4F80819181F2
:1016F000892BB9F3CE010E94D10A0397E1F6F1CF0D
:101700004F925F926F927F928F929F92AF92BF9211
:10171000CF92DF92EF92FF920F931F93CF93DF93BD
:10172000EC012AA13BA188EE93E0289F4001299F6C
:10173000900C389F900C1124092C000CAA08BB08AF
:101740000E943307EE8CFF8C0CA11DA12EA13FA19E
:101750002B013C01401A510A620A730AA30192014B
:10176000C501B4010E94F845CA01B9010E947C4438
:101770004B015C01B70190E080E00E947C449B013A
:10178000AC01C501B4010E94DD442CA93DA94EA9BC
:101790005FA90E94D946688379838A839B838E8D53
:1017A0009F8D99A388A30E9433076CA37DA38EA36A
:1017B0009FA320E030E040E752E4688179818A818C
:1017C0009B810E94D9466B017C01C882D982EA8242
:1017D000FB82AC019B01688579858A859B850E9487
:1017E0006D46688779878A879B8720E030E0A9016A
:1017F000C701B6010E94774420E030E0A9018111C1
:101800004EC06C817D818E819F810E948147181618
:10181000ACF588A599A5AAA5BBA5488959896A8967
:101820007B89481759076A077B0720F4888B998BB7
:10183000AA8BBB8B4C895D896E897F8941155105C7
:101840006105710529F084179507A607B70720F4ED
:101850008C8B9D8BAE8BBF8B6CA57DA58EA59FA51C
:1018600028A939A94AA95BA90E94C645288F398FA2
:101870004A8F5B8F18A619A61AA61BA6DF91CF91D7
:101880001F910F91FF90EF90DF90CF90BF90AF909E
:101890009F908F907F906F905F904F9008956C8194
:1018A0007D818E819F810E94774481110BC088A920
:1018B00099A9AAA9BBA90196A11DB11D88AB99AB95
:1018C000AAABBBAB8AA19BA1092E000CAA0BBB0B38
:1018D00048A559A56AA57BA5480F591F6A1F7B1FFC
:1018E00048A759A76AA77BA74CA55DA56EA57FA5AC
:1018F000840F951FA61FB71F8CA79DA7AEA7BFA7D4
:10190000BDCFFC019B01672BB1F0A8EEB3E00E94B4
:101910001A46638B748B858B968B25A1211109C088
:10192000648F758F868F978F60A371A382A393A313
:1019300021E0822F089520E0FCCFFC019B01672B62
:10194000A9F0A8EEB3E00E941A466787708B818BDE
:10195000928B25A1222361F0648F758F868F978FDC
:1019600060A371A382A393A3822F089520E0FCCFEC
:1019700021E0FACFDC01ED91FC9111970280F38117
:10198000E02D19966C911994CF93DF93EC0181E0CF
:101990008DA3EEA5FFA5309729F02A8599852913F7
:1019A00080E01995CE01DF91CF910C94BA0CDC0147
:1019B00019966C91199721E06227ED91FC910280B4
:1019C000F381E02D199423E030E0FC013687258770
:1019D0000C94D70CFC01258536852230310551F455
:1019E00021E030E03687258725A121110C94BA0C1F
:1019F0000C94D70C0895CF93DF93EC011DA2EEA5B4
:101A0000FFA5309731F081E02A859985291380E080
:101A10001995CE01DF91CF910C94D70C8F929F92A4
:101A2000AF92BF92CF92DF92EF92FF92CF93DF936C
:101A3000EC010E9433076B017C018D859E859C0122
:101A4000225031092230310508F48DC0892B09F468
:101A50008AC08CA18823D9F0C88ED98EEA8EFB8EDD
:101A60008F89882309F48BC08F859889A989BA89C1
:101A70008C8F9D8FAE8FBF8FCE010E94C40C8C8D3A
:101A80009D8DAE8DBF8D88A399A3AAA3BBA3888D7E
:101A9000998DAA8DBB8D812C912C54018C159D059F
:101AA000AE05BF0531F046015701881A990AAA0A06
:101AB000BB0A8C8D9D8DAE8DBF8D88169906AA06AA
:101AC000BB0608F443C04F85588969897A898DA17E
:101AD000882309F460C08AA59BA5ACA5BDA5840F89
:101AE000951FA61FB71F8AA79BA7ACA7BDA78B8969
:101AF0009C89AD89BE898C8F9D8FAE8FBF8F8B8562
:101B00009C85019739F4E881F9810480F581E02D05
:101B1000CE0119958B859C85029789F488A599A596
:101B2000019699A788A72EA13FA18217930739F4A0
:101B3000E881F9810680F781E02DCE011995CE016B
:101B40000E94FB0CC88ED98EEA8EFB8E8C8D9D8DEB
:101B5000AE8DBF8D88199909AA09BB0988A399A3DD
:101B6000AAA3BBA31CA281E0DF91CF91FF90EF90CD
:101B7000DF90CF90BF90AF909F908F9008958B890A
:101B80009C89AD89BE898C8F9D8FAE8FBF8FCE0112
:101B90000E94FB0C74CF4C8F5D8F6E8F7F8FCE01B8
:101BA0000E94C40CCFCF21E0FC0120870C94D70CFD
:101BB000CF93DF93EC0169858A810E943404898583
:101BC0008A87DF91CF9108950F931F93CF938C0154
:101BD000C62FFC018085882319F0C18581E0C827C4
:101BE0006C2FF80182810E943404F801C287CF91E2
:101BF0001F910F910895CF92DF92EF92FF920F9372
:101C00001F93CF93DF93EC012A813B813327F901A6
:101C1000EF52FC4F8491F901E958FB4F0491F9010F
:101C2000EF5CFB4F1491112379F081110E94CD03D9
:101C3000E12FF0E0EE0FFF1FE95EFB4FA591B4919D
:101C4000EC910E2381E009F480E08170898B9B89FF
:101C5000891731F00E9433076F8B788F898F9A8FA5
:101C60000E9433070F89188D298D3A8D6B017C01F5
:101C7000C01AD10AE20AF30A970186014D895E89EA
:101C800070E060E089898B8B40175107620773070A
:101C900018F58C8BEB8DFC8D309711F090E0199539
:101CA0002F8D38A121153105B9F089899A898917B5
:101CB00099F041E050E0992311F042E050E08A8B26
:101CC0002230310591F02330310591F0213031057A
:101CD00019F44130510561F0DF91CF911F910F91BF
:101CE000FF90EF90DF90CF90089542305105A1F71B
:101CF000ED8DFE8D309781F36A817B81DF91CF91ED
:101D00001F910F91FF90EF90DF90CF901994282FA3
:101D100030E094E0359527959A95E1F7922F990F49
:101D2000990F291B220F820F08956093C7057093A6
:101D3000C8058093C9059093CA05645D7E4F8F4F97
:101D40009F4F6093C3057093C4058093C50590931E
:101D5000C60582E090E09093CE058093CD050E9469
:101D600033076093BF057093C0058093C1059093BE
:101D7000C20508950F931F930E9433078B019C01A6
:101D80004091BF055091C0056091C1057091C20599
:101D90008091C7059091C805A091C905B091CA0569
:101DA000041B150B260B370B083E1340210531058C
:101DB000C0F00196A11DB11D8093C7059093C80581
:101DC000A093C905B093CA0548515C4F6F4F7F4F30
:101DD0004093BF055093C0056093C1057093C20541
:101DE000CBCF4091C3055091C4056091C50570915A
:101DF000C60584179507A607B70770F0E091CB05D5
:101E0000F091CC05309741F0199561157105810568
:101E1000910569F00E94950E6091C7057091C80503
:101E20008091C9059091CA051F910F9108958091E5
:101E3000C7059091C805A091C905B091CA05845DF8
:101E40009E4FAF4FBF4F8093C3059093C405A0939F
:101E5000C505B093C60581E090E02091CD05309195
:101E6000CE05232B11F490E080E09093CE05809373
:101E7000CD05D2CF4F925F926F927F928F929F92B9
:101E8000AF92BF92CF92DF92EF92FF920F931F9388
:101E9000CF93DF93FC011681A12FB0E020E833E35C
:101EA00041EE51E00E94E5454B015C01C2EBD7E0F9
:101EB0009D0104E610E080E9E82EFF24F394CE01B2
:101EC000825B9740821793079CF14580512C2E54DA
:101ED000384FC90164E670E00E9435467C01C901B3
:101EE00060E971E00E9435466C010EE312E0C1E04A
:101EF000D0E0390183E068227724C415D5050CF0C1
:101F000040C0C230D10571F56114710459F5E11476
:101F1000F10419F4C114D10429F5B0E88B0EBBE328
:101F20009B1EB6E2AB1EB11C21960F5F1F4FE5CF83
:101F3000CE0183709927892B99F4CE01B8010E94B4
:101F40003546892B31F4CE01B7010E943546892BE5
:101F500039F4A0E88A0EA1E59A1EA1E0AA1EB11CE0
:101F60002196ADCFD8018C91A82FB0E020E831E5C3
:101F700041E050E00E94E545860E971EA81EB91E5E
:101F8000D3CF228130E0A0E1BEE00E941A466B016F
:101F90007C01218130E0ACE3B0E00E941A46C60E1D
:101FA000D71EE81EF91E8081C80ED11CE11CF11C51
:101FB000A481A150BB0B20E831E541E050E00E9434
:101FC000F0456C0D7D1D8E1D9F1D680D791D8A1DB0
:101FD0009B1DDF91CF911F910F91FF90EF90DF90AC
:101FE000CF90BF90AF909F908F907F906F905F90B9
:101FF0004F9008956F927F928F929F92AF92BF926F
:10200000CF92DF92EF92FF920F931F93CF93DF93C4
:102010006B017C01EA018CE3882E912CA12CB12C60
:10202000C701A50194010E94F8456883CA01B9015E
:10203000A50194010E94F8456983C701B60120E11A
:102040003EE040E050E00E94F845CA01B90128E1B5
:1020500030E040E050E00E94F8456A83C701B601D5
:1020600020E831E541E050E00E94F84569017A013D
:10207000CA01B9016C5F7F4F8F4F9F4F27E030E05F
:1020800040E050E00E94F8456F5F6B83812C912CFB
:10209000540140E094E6692E712C00E911E0242FF0
:1020A00030E02E54384FF901E370FF273097F9F4F0
:1020B000C901B3010E943546892B31F4C901B80129
:1020C0000E943546892B99F48EE691E0A0E0B0E0BD
:1020D000880E991EAA1EBB1ED501C401AA27BB27C4
:1020E000C816D906EA06FB0638F04F5FD8CF8DE652
:1020F00091E0A0E0B0E0ECCF4E83C90164E670E06F
:102100000E9435468C01C90160E971E00E943546A4
:10211000309729F401151105E1F40097D1F04DE64F
:1021200051E060E070E0841A950AA60AB70AC81860
:10213000D908EA08FB08AEE3B2E020E0213071F4F0
:10214000309791F50115110511F4009769F54DE1EE
:1021500006C04EE651E060E070E0E5CF4C9150E003
:1021600070E060E031E0320FC416D506E606F706EF
:1021700040F0C41AD50AE60AF70A1196232F3C301C
:10218000E9F62F5F2D83C394CC82DF91CF911F910D
:102190000F91FF90EF90DF90CF90BF90AF909F9006
:1021A0008F907F906F9008954CE1D9CFCF92DF92BE
:1021B000EF92FF92C090BB05D090BC05E090BD05AA
:1021C000F090BE05C616D706E806F90671F06B0159
:1021D0007C0144E757E00E94FA0FC092BB05D09201
:1021E000BC05E092BD05F092BE05FF90EF90DF9038
:1021F000CF9008958F929F92AF92BF92CF92DF922D
:10220000EF92FF920F931F93CF93DF93CDB7DEB77B
:1022100063970FB6F894DEBF0FBECDBF5F87798B93
:10222000F42EE42E41110BC06F5FEE24E3946D3069
:1022300030F02FEFC21AD20AEE24E39461E08989CC
:102240008B831A82198281E08D836E833EE4C30EF4
:10225000CF82CE0101960E943A0F4B015C010F859F
:1022600010E00E94D610809177079801281B310951
:10227000C901079667E070E00E943546DC0137E04F
:10228000E39EA00DB11D1124179720E831E541E030
:1022900050E00E94F045680D791D8A1D9B1DF110CC
:1022A00004C060587A438940910963960FB6F89448
:1022B000DEBF0FBECDBFDF91CF911F910F91FF9079
:1022C000EF90DF90CF90BF90AF909F908F90089548
:1022D0008F929F92AF92BF92CF92DF92EF92FF9236
:1022E0000F931F93CF93DF936C01E090F509F0906B
:1022F000F6090091F7091091F8092091F909309138
:10230000FA094091FB095091FC096091FD09709117
:10231000FE098091FF099091000A0E94FA10C5EF12
:10232000D9E068A379A38AA39BA3E1E0FAE0E08067
:10233000F180028113812481358146815781608536
:102340007185828593850E94FA106B017C01CCA275
:10235000DDA2EEA2FFA2AE89BF892CE330E00E948D
:10236000514608A119A12AA13BA148015901861A89
:10237000970AA80AB90AD501C401888F998FAA8F34
:10238000BB8FAA85BB852CE330E00E945146C61A5C
:10239000D70AE80AF90ACC8EDD8EEE8EFF8EDF9129
:1023A000CF911F910F91FF90EF90DF90CF90BF9052
:1023B000AF909F908F900895CF92DF92EF92FF920F
:1023C0000F931F93CF93DF936B017C018A010E94CF
:1023D000D610C0917A07D0E0CE54D84F60910D0A44
:1023E00070910E0A80910F0A9091100A0E94D610E7
:1023F00080917A0790E08E54984F8C179D0759F082
:10240000C701B6010E94D61080917A0790E08E54E1
:10241000984F0E946811C701B6010E94D610C09162
:102420007A07D0E0CE54D84F60910D0A70910E0A11
:1024300080910F0A9091100A0E94D61080917A071D
:1024400090E08E54984F8C179D0759F0C701B60144
:102450000E94D61080917A0790E08E54984F0E9487
:1024600068114091110A5091120A6091130A7091FB
:10247000140A80910D0A90910E0AA0910F0AB09152
:10248000100A481759076A077B0779F084179507E0
:10249000A607B707A0F4C816D906EA06FB0628F077
:1024A000C416D506E606F706A0F081E09AE0F8012A
:1024B00091838083A0910B0AB0910C0A13C0C416BB
:1024C000D506E606F70628F0C816D906EA06FB0682
:1024D00060F385EF99E0F80191838083A091FF0973
:1024E000B091000A2CE330E00E9451466C0D7D1D36
:1024F0008E1D9F1DDF91CF911F910F91FF90EF9047
:10250000DF90CF900895DC0180E0615090F09D91C4
:102510009827E92FEF70F0E0E358FC4F2491E92F62
:10252000E295EF70F0E0E357FC4FE491822F8E27A5
:10253000ECCF0895DC012C911196ED91FC91F8946B
:102540008181822B81839281322F309593239283D4
:1025500087E090E00197F1F781818323818383E213
:1025600090E00197F1F790817894EFECF0E03197EB
:10257000F1F7922381E009F480E00895FC01908155
:102580000180F281E02D292F209560FF14C0F8947E
:102590008281822382838181892B8183A3E2B0E0BF
:1025A0001197F1F78281982B9283789487ED90E0D0
:1025B0000197F1F70895F8948281822382838181C3
:1025C000892B8183AFEFB0E01197F1F78281982BCF
:1025D000928378948FE090E0EBCFDF92EF92FF92BE
:1025E0000F931F93CF93DF93EC01D62EE42E08E0D8
:1025F00010E0FF24F39461E08D2D8F2109F460E059
:10260000CE010E94BE12FF0C01501109A1F7E1108A
:1026100010C0F894E981FA8191818881809589239D
:102620008183E981FA8192818881809589238283DF
:102630007894DF91CF911F910F91FF90EF90DF90F1
:102640000895EF92FF920F931F93CF93DF938C0126
:102650007B0140E065E50E94ED12E70188E0E80EAD
:10266000F11C699140E0C8010E94ED12CE15DF0512
:10267000C1F7DF91CF911F910F91FF90EF900895D7
:10268000FC0190810180F281E02DF8948181292F55
:1026900020958223818378943DE743E050E03150D8
:1026A00029F1DA011197F1F780818923C1F3F894B8
:1026B0008281822382838181892B81837894ABE715
:1026C000B7E01197F1F7F894818182238183A3E128
:1026D000B1E01197F1F78081982381E009F080E063
:1026E0007894E3E6F6E03197F1F7089580E00895F5
:1026F0006F927F928F929F92AF92BF92CF92DF9212
:10270000EF92FF920F931F93CF93DF938C01EB0116
:102710008091D20E9091D30E0E944013882309F429
:102720003FC0B8018091D20E9091D30E0E94211328
:1027300040E06EEB8091D20E9091D30E0E94ED128C
:102740007E016E0189E0C80ED11C8E01A090D20ED0
:10275000B090D30E88E0882E912C712C662463945F
:10276000C5010E949A1281117628660CE1E08E1A4A
:102770009108B1F7F80171928F01CE16DF0631F79B
:102780008091D20E9091D30E0E944013813041F47B
:10279000F70181917F01811105C0E017F107C1F7B1
:1027A00090E008C068E0CE010E94831291E0288585
:1027B0002813F6CF892FDF91CF911F910F91FF90B2
:1027C000EF90DF90CF90BF90AF909F908F907F90D1
:1027D0006F900895CF93DF9300D000D000D0CDB795
:1027E000DEB7BE016F5F7F4F0E947813882331F000
:1027F0008D818F33A9F020F48F31A1F080E007C0E4
:102800008F3521F08F37D1F78CE001C08BE029960E
:102810000FB6F894DEBF0FBECDBFDF91CF91089504
:102820008AE0F5CF89E0F3CF88EA9EE00C94D70CDC
:1028300088EA9EE00C94BA0C8EEB9EE00C94D70CC8
:102840008EEB9EE00C94BA0C83EB9EE00C94D70CBC
:1028500083EB9EE00C94BA0C3F924F925F926F9282
:102860007F928F929F92AF92BF92CF92DF92EF9220
:10287000FF920F931F93CF93DF9300D01F92CDB79A
:10288000DEB79C838B83DC016D917D918D919C9152
:10289000AE014F5F5F4F0E94DC114B015C01EB8189
:1028A000FC816481758186819781AE014F5F5F4FA6
:1028B0000E94DC112B013C010E94BA0EAE014F5F59
:1028C0005F4F0E94DC116B017C010E94D6100091C9
:1028D00076078CE3382E039D80011124C701B601D1
:1028E0000E94D61080917507080F111DC301B20117
:1028F0000E94D610C0907607C39C60011124C301CA
:10290000B2010E94D61080917507C80ED11CC50176
:10291000B4010E94D61060907607639C30011124A8
:10292000C501B4010E94D61030907507630C711C6C
:10293000C614D70414F5061517051CF4C016D106E5
:10294000FCF0AB81BC811896ED91FC9119950F902C
:102950000F900F900F90DF91CF911F910F91FF90EB
:10296000EF90DF90CF90BF90AF909F908F907F902F
:102970006F905F904F903F90089506151705F4F6FD
:10298000AB81BC811A96ED91FC91E0CF1F93CF9360
:10299000DF93EC98C2EED8E0D0931102C0931002FE
:1029A00081EA9FE00E94800B8091BF0F9091C00F41
:1029B0009093C20F8093C10F1092C00F1092BF0F5F
:1029C000ED98D0931302C093120289E69FE00E9413
:1029D000800B8091870F9091880F90938A0F80933E
:1029E000890F1092880F1092870F6091B80570912F
:1029F000B905C091650FD091660F9091640F11E0F9
:102A0000190F1093640F24E0929FC0011124C80F86
:102A1000D91F90E080E00E947C44688379838A8398
:102A20009B839091620F191710F01092640F8091A0
:102A3000630F891718F48F5F8093630F1092610FF3
:102A400086E896E1909311028093100280916A00CB
:102A5000836080936A00EC9A8EE796E1909313026C
:102A60008093120280916A008C6080936A00ED9AD4
:102A7000DF91CF911F91089584EE9AE00E94D10AD0
:102A80008330910529F49093680A8093670A08952A
:102A900081309105C1F382E090E0F5CF823091055D
:102AA00069F08330910571F0019771F48EEB9EE02F
:102AB0000E94D30D8EEB9EE00C94D80D8EEB9EE021
:102AC0000C94D30D1092C60E08958230910569F0D2
:102AD0008330910571F0019771F488EA9EE00E94BD
:102AE000D30D88EA9EE00C94D80D88EA9EE00C9401
:102AF000D30D1092B00E08958230910599F0833075
:102B00009105C1F00197E1F482E090E09093260EE8
:102B10008093250E88E19EE00E94D30D88E19EE01F
:102B20000C94D80D9093260E8093250E88E19EE09C
:102B30000C94D30D1092200E88E19EE00C94EA0CC8
:102B400008950C947C158230910569F083309105CD
:102B500071F0019771F483EB9EE00E94D30D83EB3B
:102B60009EE00C94D80D83EB9EE00C94D30D109254
:102B7000BB0E08958230910599F083309105C1F024
:102B80000197E1F482E090E09093560E8093550E09
:102B900088E49EE00E94D30D88E49EE00C94D80D5A
:102BA0009093560E8093550E88E49EE00C94D30DBE
:102BB0001092500E88E49EE00C94EA0C08958091E7
:102BC000D40D811104C082E09EE00C94D80D82E007
:102BD0009EE00C94D30D8091920D811108C08091DC
:102BE000F50D882321F08DE09EE00C94BA0C8DE069
:102BF0009EE00C94D70CCF92DF92EF92FF92EB986D
:102C000082EE98E090931B0280931A020E94330791
:102C1000C090B405D090B505E090B605F090B7052A
:102C20006C157D058E059F05B9F10E943307C09094
:102C3000B405D090B505E090B605F090B7059B01BE
:102C4000AC012C193D094E095F09A0EDB7E00E94C7
:102C5000E545605A7F408109910928EE33E040E064
:102C600050E00E94F845213D87E0380720F430937A
:102C7000B9052093B8058DE596E190931B028093EA
:102C80001A0280916900806C80936900EB9AFF9032
:102C9000EF90DF90CF900895C090B405D090B50527
:102CA000E090B605F090B7050E943307A7019601A2
:102CB000261B370B480B590BC8CFCF93DF93EB98EC
:102CC000C0E1D2E082EE98E09B878A870E943307BA
:102CD0006093B4057093B5058093B6059093B705DE
:102CE0008BEF95E19B878A87E9E6F0E080818F731F
:102CF00080688083EB9ADF91CF910895E9E6FFE049
:102D0000868D978D0196978F868F0895E1EAFFE073
:102D1000868D978D0196978F868F0895DF92EF921B
:102D2000FF920F931F93CF93DF938C01C62FD42E66
:102D3000E52E41E060E2FC0185890E942806F82E1C
:102D40001092C7098093C6090E94A902F801818FD9
:102D5000CC2369F0CD2DDE2D8091C709F81639F00E
:102D60000E94A90289938111F7CF0E944105F801C1
:102D7000818DDF91CF911F910F91FF90EF90DF90A8
:102D80000895BF92CF92DF92EF92FF920F931F931D
:102D9000CF93DF93CDB7DEB7E0970FB6F894DEBFE1
:102DA0000FBECDBF8C01B62EAE014F5F5F4F61E00D
:102DB0000E948E16813071F5D801ED91FC9104804E
:102DC000F581E02DBE016F5F7F4FC80119956B0142
:102DD0007C01D8015196ED91FC915297309741F0CA
:102DE000BB2031F0BC01A60116968D919C911995DE
:102DF000C701B601E0960FB6F894DEBF0FBECDBF97
:102E0000DF91CF911F910F91FF90EF90DF90CF90C6
:102E1000BF900895C12CD12C80E8E82E8FEBF82EBE
:102E2000E7CFCF93DF93EC018F89811118C08D8993
:102E300091E09093C7078093E8071092C50910921C
:102E4000C40962E788EC99E00E949E030E94410554
:102E50008F8991E089278F8BDF91CF91089561E071
:102E6000CE010E94C116F4CFCF93DF93FC01228DD7
:102E7000338D21303105E9F02230310521F0DF9129
:102E8000CF910C941117208D222399F0EC0150E082
:102E900040E060E00E948E16813041F48E8D9F8D5F
:102EA000A8A1B9A18AA39BA3ACA3BDA3188E1B8E16
:102EB0001A8EDF91CF910895FF920F931F93CF93B6
:102EC000DF93EC0101E00093C70788E68093E807F1
:102ED0001092C5091092C40960E088EC99E00E9444
:102EE0009E0328818AE0F82E822F6F2D0E942946AA
:102EF000682F660F680F660F620F88EC99E00E94DA
:102F00009E032981822F6F2D0E942946682F660F0C
:102F1000680F660F620F88EC99E00E949E032A8179
:102F2000822F6F2D0E942946682F660F680F660F4B
:102F3000620F88EC99E00E949E036B8188EC99E017
:102F40000E949E032C81822F6F2D0E942946682F9C
:102F5000660F680F660F620F88EC99E00E949E036F
:102F60002D81822F6F2D0E942946682F660F680FD2
:102F7000660F620F88EC99E00E949E032E812E510D
:102F8000822F6F2D0E942946682F660F680F660FEB
:102F9000620F88EC99E00E949E030E944105C82FB1
:102FA0000093C7071092C5091092C4096FE088EC1E
:102FB00099E00E949E030E94410581110CC041E0EE
:102FC00061E088E60E9428061092C7098093C6092E
:102FD0000E94A902182F81E08093C7071092C509AB
:102FE0001092C4096FE088EC99E00E949E03612F63
:102FF0006F7788EC99E00E949E030E9441058C2F18
:10300000DF91CF911F910F91FF900895BF92CF92C2
:10301000DF92EF92FF920F931F93CF93DF93EC0118
:10302000B62EC72E8D85811105C0CE010E9440139A
:1030300081110EC01B861D861C8680E0DF91CF911A
:103040001F910F91FF90EF90DF90CF90BF90089568
:1030500040E060EFCE010E94ED1201E0E12CD12CA6
:1030600011E0CE010E949A12F82ECE010E949A120F
:1030700091E0F91218C0813099F51134D8F2DB864D
:10308000D11002C081E08D878B81882399F223962D
:10309000EB2DFC2DCF01089629912193E817F90714
:1030A000D9F781E0CBCFEE2DF0E0F8120FC08B8581
:1030B0001817A0F4DE01AE0FBF1F13968C9180236A
:1030C00079F4F12C193008F41C87D12EEC0FFD1F78
:1030D0008381902F9095892383830AC08113F1CF38
:1030E000FE01EE0DF11D8381802B8383FF24F39479
:1030F0006F2DCE010E94BE121F5F000F11F4E394EA
:1031000001E087E08E1508F0ACCFB7CFFF920F93A8
:103110001F93CF93DF938C01F62EE091D20EF091A6
:10312000D30E138615861486128611861086178292
:103130001682158214821382C0E0B8018091D20EEB
:103140009091D30E0E940618D82F882329F0FC16E0
:1031500029F0CF5FFC1688F7D0E008C067E0C8010F
:103160000E948312F80197818913F3CF8D2FDF918D
:10317000CF911F910F91FF900895EF92FF920F93BF
:103180001F93CF93DF9300D000D000D0CDB7DEB730
:103190008C01FC018081FF24F394803109F46FC01D
:1031A000BE016F5F7F4FC8010E947813F82E8823FD
:1031B00009F465C08D818F3109F461C08FE18D8381
:1031C0008091D20E9091D30E0E944013B80180914D
:1031D000D20E9091D30E0E94211340E06EE48091B4
:1031E000D20E9091D30E0E94ED1240E06B8180913F
:1031F000D20E9091D30E0E94ED1240E06C8180912E
:10320000D20E9091D30E0E94ED12F8018081803190
:1032100041F040E06D818091D20E9091D30E0E94DA
:10322000ED12E090CF0E8091D20E9091D30EEE2051
:1032300009F462C00E944013882309F1B80180910B
:10324000D20E9091D30E0E9421134091C90E68E4D2
:103250008091D20E9091D30E0E94ED128091C90EF2
:10326000811131C064E170E080E090E00E940007CD
:103270008091D20E9091D30E0E944013FE2C89E0D3
:103280008093CC0E8091D00E8230D8F110E08091E6
:10329000D00E1817B0F58091CC0E8C3091F1612FC3
:1032A000CE0101960E9486188981803141F1CE01BC
:1032B00001960E94EA139091CC0E981710F4809317
:1032C000CC0E1F5FE4CF8091CA0E882329F060E006
:1032D0008091CB0E0E94340464E170E080E090E0C5
:1032E0000E9400078091CA0E882311F261E080914C
:1032F000CB0E0E943404BCCF0E944013C0CF8CE0A0
:10330000DACF8F2D29960FB6F894DEBF0FBECDBF52
:10331000DF91CF911F910F91FF90EF900895CF9380
:10332000DF9300D000D01F92CDB7DEB781E080934D
:10333000C70788E68093E8071092C5091092C40970
:1033400060E088EC99E00E949E030E944105811193
:103350003BC041E067E088E60E9428061092C7095A
:103360008093C6090E94A9028F770E94870E8983E5
:103370000E94A9020E94870E8A830E94A9028F7B65
:103380000E94870E8B830E94A9028C830E94A9024F
:103390000E94870E8D830E94A9028F770E94870E5C
:1033A0008E830E94A9020E94870E825E8F83CE01C7
:1033B00001960E943A0F27960FB6F894DEBF0FBE13
:1033C000CDBFDF91CF91089560E070E0CB01F3CFE6
:1033D00085ED8093BC008091C3079091C407A091B4
:1033E000C507B091C6070796A11DB11D23E0B6958C
:1033F000A795979587952A95D1F72091BC0024FD34
:1034000003C01092C10708954091C3075091C407AB
:103410006091C5077091C607452B462B472B69F372
:103420000097A105B10541F025E32A95F1F70000C9
:103430000197A109B109E1CF8091C2070C948004E2
:10344000CF93DF931F921F92CDB7DEB79A83898304
:1034500042E050E0CE0101960E94AE450F900F90E1
:10346000DF91CF910895CF92DF92EF92FF92CF93A9
:10347000DF93CDB7DEB769970FB6F894DEBF0FBE06
:10348000CDBF82E0898F41E050E070E060E0CE0186
:1034900049960E94AE4580ECC82E8CE3D82E89E96F
:1034A000E82E8AE5F82EC982DA82EB82FC8244E0BB
:1034B00050E061E070E0CE0101960E94AE45CD8201
:1034C000DE82EF82F88644E050E069E070E0CE01F1
:1034D00005960E94AE4590EEC92E99E3D92E9AE941
:1034E000E92E9AE5F92EC986DA86EB86FC8644E059
:1034F00050E065E070E0CE0109960E94AE45CD86B1
:10350000DE86EF86F88A44E050E06DE070E0CE01A0
:103510000D960E94AE4580E795E9A9EEBBE5898B43
:103520009A8BAB8BBC8B44E050E06FE470E0CE0133
:1035300041960E94AE4580E094E1AAEEBBE58D8BFA
:103540009E8BAF8BB88F44E050E061E570E0CE0118
:1035500045960E94AE4561E170E088E097E00E94E8
:10356000201A65E170E088E097E00E94201A67E188
:1035700070E084E893E00E94201A69E170E08CE832
:103580009AE00E94201A69E170E08CE89AE00E94BB
:10359000201A63E270E085E090E00E94201A65E264
:1035A00070E08CE390E00E94201A67E270E085E012
:1035B00090E00E94201A61E270E08AE090E00E94B0
:1035C000201A69E270E08CE390E00E94201A6FE11B
:1035D00070E089E190E00E94201A6DE170E08CE4D7
:1035E00094E00E94201A6BE170E08CE390E00E946E
:1035F000201A6DE270E082E090E00E94201A6BE2F7
:1036000070E082E090E00E94201A65E470E082E0C1
:1036100090E00E94201A67E470E082E090E00E944F
:10362000201A69E470E082E090E00E94201A6BE4C6
:1036300070E082E090E00E94201A6DE470E082E089
:1036400090E00E94201A69960FB6F894DEBF0FBE74
:10365000CDBFDF91CF91FF90EF90DF90CF90089595
:10366000CF93DF9300D01F92CDB7DEB719821A82B5
:103670001B821C8244E050E0BC01CE0101960E94F6
:103680009E4569817A818B819C810F900F900F906C
:103690000F90DF91CF910895CF93DF931F921F92E8
:1036A000CDB7DEB71A82198242E050E0BC01CE01EC
:1036B00001960E949E4589819A810F900F90DF911B
:1036C000CF91089585E090E00E94301B6093D7056C
:1036D0007093D8058093D9059093DA0584E194E13D
:1036E0009093DE058093DD0581E090E00E94301B21
:1036F0006093D3057093D4058093D5059093D60538
:1037000088E194E19093DC058093DB058DE090E007
:103710000E94301B6093E3057093E4058093E505F8
:103720009093E6058CE194E19093EA058093E90596
:1037300089E090E00E94301B6093DF057093E00504
:103740008093E1059093E20580E294E19093E8058F
:103750008093E70581E590E00E94301B6093EF05C0
:103760007093F0058093F1059093F20584E294E163
:103770009093F6058093F5058FE490E00E94301B4E
:103780006093EB057093EC058093ED059093EE0547
:1037900088E294E19093F4058093F30587E190E04B
:1037A0000E944C1BBC0188E49EE00E949D0C89E1B4
:1037B00090E00E944C1BBC0188E49EE00E94810CBA
:1037C00081E190E00E944C1BBC0188E19EE00E94D8
:1037D0009D0C85E190E00E944C1BBC0188E19EE0BD
:1037E0000E94810C8BE190E00E944C1BBC0190E098
:1037F00080E00E947C4420E030E040E251E40E94FE
:10380000D94660935B0A70935C0A80935D0A90933B
:103810005E0A83E290E00E944C1B009721F0909397
:103820006E0A80936D0A85E290E00E944C1B00971F
:1038300021F09093700A80936F0A87E290E00E94D3
:103840004C1B009721F09093720A8093710A8DE2CD
:1038500090E00E944C1B83309105D1F59093680A4B
:103860008093670A85E490E00E944C1BBC018FE0C6
:103870009DE00E94400B87E490E00E944C1BBC013D
:1038800083E59BE00E94400B89E490E00E944C1B82
:10389000BC0180EA9CE00E94400B8BE490E00E9417
:1038A0004C1BBC0181E39CE00E94400B8DE490E046
:1038B0000E944C1BBC0182EC9BE00E94400B8DE2FD
:1038C00090E00E944C1BBC0184EE9AE00C94400BEB
:1038D0008130910519F282E090E0C0CF0E94B0489B
:1038E000FB0101900020E9F73197AF01461B570B10
:1038F000DC01ED91FC910280F381E02D19946AEDD9
:1039000072E00C94701CFC01858991E09093C707CC
:103910008093E8071092C5091092C40988EC99E0D9
:103920000E94701C0C944105CF93DF93EC016DED68
:1039300072E00E94831C6CE271E080E090E00E94E3
:10394000000750E040E060E0CE010E948E1691E05A
:10395000813009F090E0892FDF91CF9108958F9207
:103960009F92AF92BF92EF92FF920F931F93CF93CC
:10397000DF93CDB7DEB7A1970FB6F894DEBF0FBEC9
:10398000CDBF7C01FA01CB0119A2223008F42AE054
:103990008E010F5D1F4F822E912CB12CA12CBF01E7
:1039A000A50194010E94F845F901CA016A300CF59D
:1039B000605DD8016E938D01232B242B252B79F785
:1039C00090E080E0109721F0BD01C7010E94701CBB
:1039D000A1960FB6F894DEBF0FBECDBFDF91CF9199
:1039E0001F910F91FF90EF90BF90AF909F908F909D
:1039F0000895695CDECFAB0170E060E02AE00C94D2
:103A0000AF1C8F929F92AF92BF92CF92DF92EF92B4
:103A1000FF920F931F93CF93DF93EC016A017B0119
:103A2000AB019601CB01B6010E94864767EE72E0BA
:103A3000811126C046015701E894B7F82FEF3FEFF8
:103A40004FE75FE7C501B4010E94864781110CC0B2
:103A50002FEF3FEF4FE75FE7C501B4010E947744C6
:103A60006BEE72E0181664F02FEF3FEF4FE75FE464
:103A7000C701B6010E94814718168CF46FEE72E000
:103A8000CE01DF91CF911F910F91FF90EF90DF90CA
:103A9000CF90BF90AF909F908F900C94701C2FEFA1
:103AA0003FEF4FE75FECC701B6010E94774487FD07
:103AB000E5CF20E030E0A901C701B6010E947744BC
:103AC00010E000E087FF09C06DE2CE010E94E3082C
:103AD0008C01F7FAF094F7F8F0942AE037ED43EA16
:103AE0005BE3C701B6010E946D466B017C010E9439
:103AF00052474B015C010E947C449B01AC01C70111
:103B0000B6010E946C466B017C012AE0B501A4015C
:103B1000CE010E94AF1C080F191F6EE2CE010E9459
:103B2000E308080F191F20E030E040E251E4C7012C
:103B3000B6010E94DD444B015C010E9452476B01BB
:103B4000CE010E94FB1C080F191FB60190E080E017
:103B50000E947C449B01AC01C501B4010E946C46EB
:103B600020E030E040E251E40E94DD440E945247F0
:103B7000CE010E94FB1C800F911FDF91CF911F91FE
:103B80000F91FF90EF90DF90CF90BF90AF909F90FC
:103B90008F900895CF92DF92EF92FF920F931F9331
:103BA000CF93DF936B01770FEE08FF08F7FE1BC082
:103BB000EC016DE20E94E3088C0144275527BA010D
:103BC0004C195D096E097F092AE0CE010E94AF1CE5
:103BD000800F911FDF91CF911F910F91FF90EF9078
:103BE000DF90CF9008952AE0B701A601DF91CF9131
:103BF0001F910F91FF90EF90DF90CF900C94AF1C2E
:103C00000C94701CFF920F931F93CF93DF938C0142
:103C1000EB01F42E63EF72E0CE010E94001EF8016A
:103C200062817381CE010E94CA1D69EF72E0CE01EC
:103C30000E94001EF8018681978161E4892B09F4B6
:103C400064E4CE010E94E30865E073E0CE010E94C7
:103C5000001EF80144855585668577852AE0CE01EA
:103C60000E94AF1C67E173E0CE010E94001EF801C4
:103C7000608970E0CE010E94CA1D67E273E0CE0148
:103C80000E94001EFF2041F0CE01DF91CF911F91D5
:103C90000F91FF900C947F1CDF91CF911F910F919A
:103CA000FF900895FF920F931F93CF93DF938C01A2
:103CB000EB01F42E63EF72E0CE010E94001EF801CA
:103CC00062817381CE010E94CA1D6AE273E0CE0157
:103CD0000E94001EF801618581E0682770E0CE0136
:103CE0000E94CA1D68E373E0CE010E94001EF80125
:103CF000608570E0CE010E94CA1D65E473E0CE01CC
:103D00000E94001EF801628570E0CE010E94CA1D6B
:103D100067E273E0CE010E94001EFF2041F0CE0159
:103D2000DF91CF911F910F91FF900C947F1CDF9139
:103D3000CF911F910F91FF900895FF920F931F93C2
:103D4000CF93DF938C01EB01F42E40E00E94521ED2
:103D500064E573E0CE010E94001EF801478550899A
:103D6000618972892AE0CE010E94AF1C6FE673E080
:103D7000CE010E94001EF801438954896589768925
:103D80002AE0CE010E94AF1C6CE873E0CE010E94D5
:103D9000001EF801678970E0CE010E94CA1D6AE921
:103DA00073E0CE010E94001EF80140A151A162A162
:103DB00073A12AE0CE010E94AF1C6EEA73E0CE012F
:103DC0000E94001EF80163857485CE010E94CA1D01
:103DD0006AEB73E0CE010E94001EF80165857685CE
:103DE000CE010E94CA1D67EC73E0CE010E94001E46
:103DF000F80166A177A1CE010E94FB1C60EE73E082
:103E0000CE010E94001EF80160A571A5CE010E949E
:103E1000FB1C63EF73E0CE010E94001EF80142A577
:103E200053A564A575A52AE0CE010E94AF1C68E2E7
:103E300073E0CE010E94001EFF2041F0CE01DF9111
:103E4000CF911F910F91FF900C947F1CDF91CF9128
:103E50001F910F91FF9008951F93CF93DF93EB0174
:103E6000142F40E00E949D1E112331F0CE01DF91FE
:103E7000CF911F910C947F1CDF91CF911F910895DA
:103E8000FF920F931F93CF93DF938C01EB01F42EDE
:103E900040E00E94021E65E074E0CE010E94001E18
:103EA000F801648970E0CE010E94CA1D64E174E0EB
:103EB000CE010E94001EF80165897689CE010E941C
:103EC000FB1C63E274E0CE010E94001EF801678DC6
:103ED00070A1CE010E94CA1D68E273E0CE010E946B
:103EE000001EFF2041F0CE01DF91CF911F910F9175
:103EF000FF900C947F1CDF91CF911F910F91FF9049
:103F00000895FF920F931F93CF93DF938C01EB01E2
:103F1000F42E67E374E0CE010E94001EF80145898B
:103F200050E070E060E02AE0CE010E94AF1C65E442
:103F300074E0CE010E94001EF80146A157A160A5C1
:103F400071A5CE010E94011D6AE474E0CE010E94B9
:103F5000001EF80142A153A164A175A1CE010E94E7
:103F6000011D63E674E0CE010E94001EF801418D40
:103F700050E070E060E02AE0CE010E94AF1C68E2F1
:103F800073E0CE010E94001EFF2041F0CE01DF91C0
:103F9000CF911F910F91FF900C947F1CDF91CF91D7
:103FA0001F910F91FF900895FF920F931F93CF934E
:103FB000DF938C01EB01F42E6CE674E0CE010E94DD
:103FC000001EF801458950E070E060E02AE0CE0173
:103FD0000E94AF1C69E774E0CE010E94001EF80148
:103FE00046A157A160A571A5CE010E94011D6EE7F3
:103FF00074E0CE010E94001EF80142A553A564A5FD
:1040000075A5CE010E94011D64E874E0CE010E94F6
:10401000001EF80146A557A560A971A9CE010E940E
:10402000011D6FE874E0CE010E94001EF80142A954
:1040300053A964A975A9CE010E94011D6AE474E028
:10404000CE010E94001EF80142A153A164A175A1F6
:10405000CE010E94011D63E674E0CE010E94001EA5
:10406000F801418D50E070E060E02AE0CE010E944E
:10407000AF1C68E273E0CE010E94001EFF2041F0F9
:10408000CE01DF91CF911F910F91FF900C947F1C77
:10409000DF91CF911F910F91FF9008952F923F9242
:1040A0004F925F926F927F928F929F92AF92BF9248
:1040B000CF92DF92EF92FF920F931F93CF93DF93F4
:1040C00000D01F92CDB7DEB78C017C836B8362EA90
:1040D00074E08B819C810E94001E68012EE3C20E59
:1040E000D11CF60140815181628173818B819C8159
:1040F0000E94011D67EA74E08B819C810E94001E72
:104100007801FEE4EF0EF11CF701608171818B8173
:104110009C810E94CA1D66EB74E08B819C810E9489
:10412000001EF801E05BFF4F608171818B819C81F3
:104130000E94FB1C63EC74E08B819C810E94001E3A
:10414000F801EE5AFF4F608171818B819C810E9442
:10415000FB1C64ED74E08B819C810E94001EF801C1
:10416000EC5AFF4F608171818B819C810E94FB1C06
:1041700063EE74E08B819C810E94001EF801E65B77
:10418000FF4F608171818B819C810E94CA1D61EF0C
:1041900074E08B819C810E94001EF801EA5AFF4F57
:1041A000608170E08B819C810E94CA1D64E075E093
:1041B0008B819C810E94001EF80142AD53AD64AD1D
:1041C00075AD8B819C810E94011D69E075E08B813A
:1041D0009C810E94001E1801F2E42F0E311CF10197
:1041E00080809180A280B38020E030E0A901C501E9
:1041F000B4010E94774498012A5B3F4F3A83298398
:1042000081112FC0F90180809180A280B38020E0CD
:1042100030E0A901C501B4010E947744811108C0B2
:104220008DEC882E8CEC982E8CE4A82E8DE3B82E85
:10423000F6014080518062807380F7018081918116
:10424000892B09F06FC0A501940160E070E080E85F
:104250009FE30E946C46A30192010E94DD444B0142
:104260005C01B501A4018B819C810E94011D69E163
:1042700075E08B819C810E94001EF101408151817B
:10428000628173818B819C810E94011D62E275E0D5
:104290008B819C810E94001EE981FA8140815181BD
:1042A000628173818B819C810E94011D61E375E0B5
:1042B0008B819C810E94001EF801E95AFF4F6081AA
:1042C00070E08B819C810E94CA1D67E475E08B8140
:1042D0009C810E94001E61E070E0F801928581855A
:1042E000981711F070E060E08B819C810E94CA1DDC
:1042F0008B819C810F900F900F900F90DF91CF9149
:104300001F910F91FF90EF90DF90CF90BF90AF90F3
:104310009F908F907F906F905F904F903F902F90E5
:104320000C947F1C20E030E040E85FE3C501B4015D
:104330000E946D4690CFCF93DF93EC01CB010E949A
:1043400078406EA37FA388A799A7DF91CF910895A6
:10435000CF93DF93EC01CB0164E575E00E947C40D4
:104360000E9478406EA37FA388A799A764E575E0B3
:1043700090E080E00E947C400E9478406AA77BA782
:104380008CA79DA764E575E090E080E00E947C40EA
:104390000E9478406EA77FA788AB99AB64E575E073
:1043A00090E080E00E947C400E9478406AAB7BAB4A
:1043B0008CAB9DAB6EA17FA188A599A5DF91CF9114
:1043C00008950F931F93CF93DF93CDB7DEB7E09798
:1043D0000FB6F894DEBF0FBECDBF8C0166E575E069
:1043E0000E94831C6CE271E080E090E00E94000774
:1043F000AE014F5F5F4F61E0C8010E948E168130B1
:10440000F1F464E575E0CE0101960E947C400E94C3
:10441000784064E575E090E080E00E947C400E9476
:1044200078400E944B47CB01E0960FB6F894DEBF70
:104430000FBECDBFDF91CF911F910F9108958FEFE8
:104440009FEFF2CF0F931F93CF93DF93CDB7DEB7DC
:10445000E0970FB6F894DEBF0FBECDBF8C016CE5C0
:1044600075E00E94831C6CE271E080E090E00E94A5
:104470000007AE014F5F5F4F61E0C8010E948E16DA
:104480008130A9F464E575E0CE0101960E947C407C
:104490000E94784064E575E090E080E00E947C40F6
:1044A0000E947840F80162A373A384A395A3E096C9
:1044B0000FB6F894DEBF0FBECDBFDF91CF911F9135
:1044C0000F9108958F929F92AF92BF92CF92DF92F9
:1044D000EF92FF920F931F93CF93DF93CDB7DEB789
:1044E00064970FB6F894DEBF0FBECDBF7C014A01C2
:1044F0005B0182E090E0F701938F828F87898823A8
:1045000031F060E0C7010E94C116F701178A6E0101
:10451000FBE0CF0ED11C860121E044E0C501B401CF
:104520000E94B63FDF92CF9280E695E09F938F93F3
:104530000A5011091F930F930E94B548B801C70193
:104540000E94831C81E0F701808F868E978EA0A247
:10455000B1A20F900F900F900F900F900F90649654
:104560000FB6F894DEBF0FBECDBFDF91CF911F9184
:104570000F91FF90EF90DF90CF90BF90AF909F9002
:104580008F900895409128025091290260912A024B
:1045900070912B028091BA05882389F082E090E027
:1045A00090932D0280932C0281E09FE00E94622272
:1045B0008091BA0591E089278093BA05089583E038
:1045C00090E090932D0280932C0287E39FE0EECF42
:1045D000CF92DF92EF92FF921F93CF93DF9300D0A1
:1045E00000D000D0CDB7DEB781E39CE00E94D10AB5
:1045F000039721F483ED95E00E942C1480EA9CE05F
:104600000E94D10A039721F48FED95E00E942C14AB
:104610008BEE95E00E942C148091D20E9091D30ED7
:104620000E94401340E06CEC8091D20E9091D30E2A
:104630000E94ED124091C90E64E48091D20E9091D7
:10464000D30E0E94ED128091CD0E8823F9F0809157
:10465000CE0E882371F18091C90E81112AC00E946B
:1046600033076B017C018091D20E9091D30E0E9492
:104670009A12813059F00E9433076C197D098E0916
:104680009F096E3E72408105910568F30E943F07C5
:10469000882351F08091F40E8B3030F08D3088F10A
:1046A0008551823008F462C060E070E080EC9FE7E2
:1046B00044C0E091CC0EE9508EEE92E0E33038F445
:1046C000F0E0EE0FFF1FE85CFD4F808191816C01EF
:1046D000F12CE12C8091CA0E882329F060E08091B2
:1046E000CB0E0E943404C701B6010E9400078091DE
:1046F000CA0E882359F261E08091CB0E0E943404E7
:10470000C5CF6091EF0E70E090E080E00E947E44A3
:104710002DEC3CEC4CEC5DE30E94DD446B017C0134
:104720006091EE0E70E090E080E00E947E449B017C
:10473000AC01C701B6010E946D46609324027093DC
:10474000250280932602909327020E943F07882328
:1047500041F08091F40E8C3009F471C0C8F48B30B4
:1047600081F160E070E080EC9FE753C06091EE0E55
:104770007091EF0E76276727762790E080E00E9401
:104780007C442DEC3CEC4CEC5DE30E94DD44D5CF49
:104790008551823030F71091F00E612F70E0762F46
:1047A000662766277F778091F10E682B90E080E086
:1047B0000E947C442DEC3CEC4CEC5DE30E94DD441B
:1047C0005AC06091F00E70E090E080E00E947C445E
:1047D0006B017C011091F10E17FF0AC0AC019B0127
:1047E00060E070E080E89FEB0E946C466B017C010A
:1047F0001F70612F70E090E080E00E947E442DECFD
:104800003CEC4CEC5DE30E94DD44A70196010E9464
:104810006D46609320027093210280932202909350
:104820002302BE016F5F7F4F80E092E00E94781309
:10483000811125C060E070E08EEF92EC5FC01091B6
:10484000F00E612F70E090E080E00E947C446B01EC
:104850007C016091F10E6F7070E090E080E00E944A
:104860007E442DEC3CEC4CEC5DE30E94DD44A70162
:1048700096010E946D4617FFCCCF9058CACF6A812F
:1048800070E0762F6627770F770F770F298148E042
:10489000249F90011124262B372B80910002803118
:1048A000E1F468856623C9F070E08F81AB01481B95
:1048B0005109CA019695982F8827979587950E9448
:1048C0003546CB018097B90153E0660F771F5A95A3
:1048D000E1F760789C01260F371F213854EE350729
:1048E0000CF4A8CFB901330F880B990B0E947E44BA
:1048F00020E030E040E05CE30E94DD446093280269
:104900007093290280932A0290932B0229960FB666
:10491000F894DEBF0FBECDBFDF91CF911F91FF9006
:10492000EF90DF90CF9008951F920F920FB60F92E5
:1049300011240BB60F922F933F934F935F936F9376
:104940007F938F939F93AF93BF93EF93FF93809148
:10495000B900887F803609F44DC008F040C0883225
:1049600009F4A9C028F5803109F49DC0C8F4882352
:1049700009F4FBC0883009F496C0FF91EF91BF9114
:10498000AF919F918F917F916F915F914F913F91E7
:104990002F910F900BBE0F900FBE0F901F90189588
:1049A000883109F488C0803241F78093BF0714C072
:1049B000803409F49DC040F48033B9F38833E9F6BC
:1049C0008093BF0785ECB0C0803509F485C0883579
:1049D00009F496C0883489F60E94E819CECF883948
:1049E00009F48CC038F5883729F050F4883611F076
:1049F000803719F683E08093C1071092470657C0AD
:104A0000883809F47BC0803919F0803809F0B5CFB7
:104A100080914706803208F071C0E091470681E03E
:104A20008E0F809347068091BB00F0E0E95DF94F5F
:104A300080833DC0803B39F0E0F4803A09F479C0CE
:104A4000883A09F09ACF84E08093C1071092260635
:104A500010922506E091C209F091C3091995809141
:104A6000250681110FC081E080932506109205066E
:104A700009C0803C09F4A6CF883C09F4A3CF883B49
:104A800009F07BCFE091260681E08E0F8093260609
:104A9000F0E0EB5FF94F80818093BB009091260698
:104AA0008091250629C080919C078093BB0085ECEE
:104AB0008093BC0062CF9091BE078091BD0798178C
:104AC00058F5E091BE0781E08E0F8093BE07F0E0BD
:104AD000E356F84F8081E9CFE091BE0781E08E0F69
:104AE0008093BE078091BB00F0E0E356F84F8083CF
:104AF0009091BE078091BD079817C8F285E8D8CF7E
:104B0000E091BE0781E08E0F8093BE078091BB00CD
:104B1000F0E0E356F84F80838091C00781115CCFAD
:104B200081E080939B0784EA8093BC001092C107C8
:104B300024CF85EC8093BC001092C107809147067A
:104B4000803230F4E0914706F0E0E95DF94F1082E1
:104B50006091470670E0E091C009F091C10987E2D9
:104B600096E019951092470608CF1092BF0734CFF0
:104B70001F920F920FB60F9211242F933F938F9392
:104B80009F93AF93BF938091FC059091FD05A091F9
:104B9000FE05B091FF053091FB0523E0230F2D3773
:104BA00058F50196A11DB11D2093FB058093FC05CE
:104BB0009093FD05A093FE05B093FF05809100063C
:104BC00090910106A0910206B09103060196A11DE5
:104BD000B11D8093000690930106A0930206B09346
:104BE0000306BF91AF919F918F913F912F910F90AD
:104BF0000FBE0F901F90189526E8230F0296A11D57
:104C0000B11DD2CF1F920F920FB60F9211240BB687
:104C10000F922F933F934F935F936F937F938F9355
:104C20009F93AF93BF93EF93FF93E0911E02F09198
:104C30001F021995FF91EF91BF91AF919F918F91B5
:104C40007F916F915F914F913F912F910F900BBE8C
:104C50000F900FBE0F901F9018951F920F920FB6D6
:104C60000F9211240BB60F922F933F934F935F93A4
:104C70006F937F938F939F93AF93BF93EF93FF9324
:104C8000E0911C02F0911D021995FF91EF91BF91E7
:104C9000AF919F918F917F916F915F914F913F91D4
:104CA0002F910F900BBE0F900FBE0F901F90189575
:104CB0001F920F920FB60F9211240BB60F922F93E3
:104CC0003F934F935F936F937F938F939F93AF9394
:104CD000BF93EF93FF93E0911202F09113021995A5
:104CE000FF91EF91BF91AF919F918F917F916F91C4
:104CF0005F914F913F912F910F900BBE0F900FBE80
:104D00000F901F9018951F920F920FB60F921124BB
:104D10000BB60F922F933F934F935F936F937F93B5
:104D20008F939F93AF93BF93EF93FF93E091100204
:104D3000F09111021995FF91EF91BF91AF919F9161
:104D40008F917F916F915F914F913F912F910F9034
:104D50000BBE0F900FBE0F901F9018951F920F92D1
:104D60000FB60F9211240BB60F922F933F934F93D0
:104D70005F936F937F938F939F93AF93BF93EF93C3
:104D8000FF93E0911A02F0911B021995FF91EF91A8
:104D9000BF91AF919F918F917F916F915F914F9153
:104DA0003F912F910F900BBE0F900FBE0F901F9051
:104DB00018951F920F920FB60F9211240BB60F92F7
:104DC0002F933F934F935F936F937F938F939F9313
:104DD000AF93BF93EF93FF93E0911802F091190204
:104DE0001995FF91EF91BF91AF919F918F917F9115
:104DF0006F915F914F913F912F910F900BBE0F904C
:104E00000FBE0F901F9018951F920F920FB60F9222
:104E100011240BB60F922F933F934F935F936F9391
:104E20007F938F939F93AF93BF93EF93FF93E09103
:104E30001602F09117021995FF91EF91BF91AF9172
:104E40009F918F917F916F915F914F913F912F91A2
:104E50000F900BBE0F900FBE0F901F9018951F92D2
:104E60000F920FB60F9211240BB60F922F933F9310
:104E70004F935F936F937F938F939F93AF93BF9362
:104E8000EF93FF93E0911402F09115021995FF91B1
:104E9000EF91BF91AF919F918F917F916F915F91B2
:104EA0004F913F912F910F900BBE0F900FBE0F901F
:104EB0001F9018951F920F920FB60F9211240BB6E8
:104EC0000F922F933F934F935F936F937F938F93A3
:104ED0009F93AF93BF93EF93FF9389EE97E00E9468
:104EE0009809FF91EF91BF91AF919F918F917F9121
:104EF0006F915F914F913F912F910F900BBE0F904B
:104F00000FBE0F901F9018951F920F920FB60F9221
:104F100011240BB60F922F933F934F935F936F9390
:104F20007F938F939F93AF93BF93EF93FF9389EEFC
:104F300097E00E941A09FF91EF91BF91AF919F9165
:104F40008F917F916F915F914F913F912F910F9032
:104F50000BBE0F900FBE0F901F9018951F920F92CF
:104F60000FB60F9211240BB60F922F933F934F93CE
:104F70005F936F937F938F939F93AF93BF93EF93C1
:104F8000FF9386E898E00E949809FF91EF91BF9106
:104F9000AF919F918F917F916F915F914F913F91D1
:104FA0002F910F900BBE0F900FBE0F901F90189572
:104FB0001F920F920FB60F9211240BB60F922F93E0
:104FC0003F934F935F936F937F938F939F93AF9391
:104FD000BF93EF93FF9386E898E00E941A09FF9130
:104FE000EF91BF91AF919F918F917F916F915F9161
:104FF0004F913F912F910F900BBE0F900FBE0F90CE
:105000001F9018951F920F920FB60F9211240BB696
:105010000F922F933F934F935F936F937F938F9351
:105020009F93AF93BF93EF93FF9383E299E00E9426
:105030009809FF91EF91BF91AF919F918F917F91CF
:105040006F915F914F913F912F910F900BBE0F90F9
:105050000FBE0F901F9018951F920F920FB60F92D0
:1050600011240BB60F922F933F934F935F936F933F
:105070007F938F939F93AF93BF93EF93FF9383E2BD
:1050800099E00E941A09FF91EF91BF91AF919F9112
:105090008F917F916F915F914F913F912F910F90E1
:1050A0000BBE0F900FBE0F901F9018951F920F927E
:1050B0000FB60F9211240BB60F922F933F934F937D
:1050C0005F936F937F938F939F93AF93BF93EF9370
:1050D000FF9389ED9FE00E949809FF91EF91BF91A6
:1050E000AF919F918F917F916F915F914F913F9180
:1050F0002F910F900BBE0F900FBE0F901F90189521
:105100001F920F920FB60F9211240BB60F922F938E
:105110003F934F935F936F937F938F939F93AF933F
:10512000BF93EF93FF9389ED9FE00E941A09FF91CF
:10513000EF91BF91AF919F918F917F916F915F910F
:105140004F913F912F910F900BBE0F900FBE0F907C
:105150001F9018951F93CF93DF93EC01862F142F88
:105160002EE432E0398328831F821E8218861D8236
:105170001C82262F30E03B832A8361E00E94A10439
:1051800086E592E09983888381E08A871987CE013A
:10519000DF91CF911F910C94D70CCF93DF93EC014B
:1051A000862F24EB32E0398328831D821C821886E7
:1051B00019861A861B8648EC50E060E070E04C8748
:1051C0005D876E877F8791E0988B1F821E82282FD4
:1051D00030E03B832A8360E00E94A10486E692E0EF
:1051E00099838883198A1A8A1B8A1C8A84E690E02C
:1051F0009E8B8D8B1F8A188E198E1A8E1C8E1B8E7D
:105200001E8E1D8E83E090E098A38F8FDF91CF914B
:105210000895CF93DF93EC0160E00E94CD2860E019
:10522000CE0181960E94CD2860E0CE018E5B9F4F1B
:105230000E94CD28FE01EB59FF4F11821082329659
:10524000118210823296118210823296118210825F
:10525000329610823A9781E090E091838083C25920
:10526000DF4F8883DF91CF9108958F929F92AF9205
:10527000BF92CF92DF92EF92FF920F931F93CF9343
:10528000DF93CDB7DEB768970FB6F894DEBF0FBED9
:10529000CDBF1092CB091092CA0988EE93E0A0E02E
:1052A000B0E08093CC099093CD09A093CE09B09340
:1052B000CF092EE632E03093C9092093C809109235
:1052C000EC071092EB078093ED079093EE07A09305
:1052D000EF07B093F00720E832E03093EA0720931D
:1052E000E90745E351E05093F6074093F50744E39F
:1052F00051E05093F8074093F70740E351E0509393
:10530000FA074093F90741E351E05093FC074093BB
:10531000FB0742E351E05093FE074093FD0746E34D
:1053200051E0509300084093FF071092020810923A
:105330000308109204081092050810928908109230
:10534000880880938A0890938B08A0938C08B09368
:105350008D08309387082093860845ED50E05093E0
:1053600093084093920844ED50E050939508409381
:10537000940840ED50E0509397084093960841ED13
:1053800050E0509399084093980842ED50E05093B4
:105390009B0840939A0846ED50E050939D08409337
:1053A0009C0810929F081092A0081092A1081092D9
:1053B000A20810922609109225098093270990933C
:1053C0002809A0932909B0932A093093240920932E
:1053D00023094DEC50E05093300940932F094CECD9
:1053E00050E0509332094093310948EC50E050931B
:1053F00034094093330949EC50E050933609409307
:1054000035094AEC50E050933809409337094EEC87
:1054100050E050933A094093390910923C09109298
:105420003D0910923E0910923F091092DC0F109234
:10543000DB0F8093DD0F9093DE0FA093DF0FB0930F
:10544000E00F3093DA0F2093D90F85EC90E0909322
:10545000E60F8093E50F84EC90E09093E80F809343
:10546000E70F80EC90E09093EA0F8093E90F81ECD6
:1054700090E09093EC0F8093EB0F82EC90E0909390
:10548000EE0F8093ED0F86EC90E09093F00F8093F9
:10549000EF0F1092F20F1092F30F1092F40F109280
:1054A000F50F1092C7091092C6091092C509109203
:1054B000C4090E94620484E992E09093C309809336
:1054C000C20985E992E09093C1098093C00981E007
:1054D000809378101092791088EE93E09093C71023
:1054E0008093C6101092D0101092D1101092D2104A
:1054F0001092D31089ED9FE09093771080937610EF
:105500001092C50F1092C60F1092C70F1092C80FBD
:10551000C12CD12C40E8E42E4FE3F42EC092D50FDD
:10552000D092D60FE092D70FF092D80F82E090E0A1
:105530009093BE0F8093BD0F60E00E94A104109273
:10554000C90F1092CA0F1092CB0F1092CC0F01E02E
:1055500010E01093C40F0093C30F1092A10F10928C
:10556000A20F1092A30F1092A40F1092A50F1092E9
:10557000A60F1092A70F1092A80F1092C00F1092B2
:10558000BF0F1092C20F1092C10F1092AD0F109268
:10559000AE0F1092AF0F1092B00F1092A90F109291
:1055A000AA0F1092AB0F1092AC0F1092B10F109285
:1055B000B20F1092B30F1092B40F1092B50F109259
:1055C000B60F1092B70F1092B80F1092B90F109239
:1055D000BA0F1092BB0F1092BC0F1092CD0F109209
:1055E000CE0F1092CF0F1092D00F1092D10F1092B9
:1055F000D20F1092D30F1092D40F10928D0F1092E1
:105600008E0F10928F0F1092900FC0929D0FD0921C
:105610009E0FE0929F0FF092A00F83E090E0909396
:10562000860F8093850F60E00E94A1041092910F75
:105630001092920F1092930F1092940F10938C0F60
:1056400000938B0F1092690F10926A0F10926B0FDC
:1056500010926C0F10926D0F10926E0F10926F0FD0
:105660001092700F1092880F1092870F10928A0F6D
:105670001092890F1092750F1092760F1092770F7B
:105680001092780F1092710F1092720F1092730F88
:105690001092740F1092790F10927A0F10927B0F64
:1056A00010927C0F10927D0F10927E0F10927F0F40
:1056B0001092800F1092810F1092820F1092830F20
:1056C0001092840F1092950F1092960F1092970FD0
:1056D0001092980F1092990F10929A0F10929B0FA0
:1056E00010929C0F85E08093620F84E190E00E940D
:1056F0008B479093660F8093650F85E090E00E9442
:105700008B479093680F8093670F1092630F1092EE
:10571000640F1092610F80E09091620F891748F436
:10572000E091670FF091680FE80FF11D80838F5FA4
:10573000F3CF10923C0F10923B0F10923F0F10923C
:10574000400F1092410F1092420F11E01093470F3B
:1057500082E0E82EF12CF0923E0FE0923D0F4FEFE9
:105760005FEF50933A0F4093390F1092490F109208
:10577000480F24E833E030934B0F20934A0F1092E8
:105780004E0F10924F0F1092520F1092510F109215
:10579000550F1092560F1092570F1092580F1092EB
:1057A000590F10925A0F10925B0F10925C0F84E603
:1057B00090E090934D0F80934C0F88E893E1A0E028
:1057C000B0E08093430F9093440FA093450FB093A4
:1057D000460F6CEB72E07093380F6093370F1092A6
:1057E0005D0F10925E0F10925F0F1092600F10927B
:1057F000060F1092050F1092090F10920A0F1092C7
:105800000B0F10920C0F1093110FF092080FE092F3
:10581000070F5093040F4093030F1092130F109231
:10582000120F3093150F2093140F1092180F10922F
:10583000190F10921C0F10921B0F10921F0F109235
:10584000200F1092210F1092220F1092230F10920E
:10585000240F1092250F1092260F25E630E030938A
:10586000170F2093160F80930D0F90930E0FA09398
:105870000F0FB093100F8AEA92E09093020F80937B
:10588000010F1092270F1092280F1092290F1092DB
:105890002A0F10922B0F10922C0F10922D0F109296
:1058A0002E0F10922F0F1092300F1092310F109276
:1058B000320F1092330F1092340F1092350F109256
:1058C000360F85E08093F30E86E18093F40EECE7CB
:1058D000F4E0E491E093F50EE6E3F4E0E491E09384
:1058E000F60E80E89EE3A0E0B0E08093FB0E90937C
:1058F000FC0EA093FD0EB093FE0E60E086E00E94C9
:10590000A104EDE7F4E0E491E093E00EE7E3F4E0D6
:10591000E491F0E0EE0FFF1FE95EFB4F859194915B
:105920009093E20E8093E10E1092EB0E1092ED0E2A
:105930001092EC0E1092EA0E1092E90E1092E80E00
:105940001092E70E1092E60E1092E50E1092E40E01
:105950001092E30E1092DF0E1092DE0E1092CA0E1D
:1059600080EE9EE09093D30E8093D20E1092D00ED4
:105970001092D10E1092C90E89E08093CC0E109334
:10598000CD0E1093CE0E1093CF0E40E06FE18EEB54
:105990009EE00E94AA2840E063E283EB9EE00E9422
:1059A000AA2840E060E288EA9EE00E94AA2840E03F
:1059B0006DE088E79EE00E94AA282EE9C22E22E030
:1059C000D22ED092790EC092780E1092900E109234
:1059D000910E1092920E1092930E1092940E1092BD
:1059E000950E1092960E1092970E1092980E10929D
:1059F000990E10929A0E10929B0E10939C0E10927C
:105A00009D0E10929F0E10929E0E1092A10E10925B
:105A1000A00E1092A20E1092A30E1092A40E10923D
:105A2000A50E30ED832E37E0932EA12CB12C809261
:105A3000870E9092880EA092890EB0928A0E809264
:105A40008B0E90928C0EA0928D0EB0928E0E1093B3
:105A50008F0E1092860E1092850E1092840E109268
:105A6000830E1092A70E1092A60E40E061E288E429
:105A70009EE00E94AA28D092490EC092480E109231
:105A8000600E1092610E1092620E1092630E1092D0
:105A9000640E1092650E1092660E1092670E1092B0
:105AA000680E1092690E10926A0E10926B0E10938F
:105AB0006C0E10926D0E10926F0E10926E0E109270
:105AC000710E1092700E1092720E1092730E109250
:105AD000740E1092750E80EA9BEBADE0B0E08093FF
