:100000000C94B3010C94E4010C94E4010C94E4010D
:100010000C94E4010C94E4010C94E4010C94E401CC
:100020000C94E4010C9471040C9471040C9471040C
:100030000C94E4010C94E4010C94E4010C94E401AC
:100040000C94E4010C94E4010C94E4010C94E4019C
:100050000C94E4010C94E4010C94E4010C94590711
:100060000C94E4010C9447040C941D040C94E401DA
:100070000C94E4010C94E4010C94E4010C94E4016C
:100080000C94E4010C94E4010C94E4010C94E4015C
:100090000C94F3030C94C9030C94E4010C94E40154
:1000A0000C94E4010C94E4010C94E4010C94E4013C
:1000B0000C94E4010C94E4010C94E4010C94E4012C
:1000C0000C94E4010C94E4010C94E4010C949F035F
:1000D0000C9475030C94E4010C944B030C942103D1
:1000E0000C94E4011D0B1D0B410B410BEA09380B6D
:1000F000560B560B560B560B560B560B560B560BF8
:100100001D0B410B0C0A0C0AC50BC50BFF0B3D0C5C
:10011000450A450A450A450A450A450A450A450A67
:100120004D0CA70C9604990488048C049204D00406
:100130009D04A104A704AB04AF04B504B904BD0435
:10014000D004C304C704CB04D705DC05E105EB05E7
:10015000F5056E06FF0507060F06190623062D0690
:100160003C0646066E0650065A0664060C942202A9
:100170000C94AF040C9407060C94AB040C94C304C9
:100180000C94450A0C940C0A0C941D0B0C946406F8
:100190000C943D0C0C940F060C94A70C0C940E02BE
:1001A0000C942D060C94CF0C0C94560B0C9450060A
:1001B0000C94A1040C94D1040C949D040C94190685
:1001C0000C948C040C94FF010C94B5040C94B904A9
:1001D0000C943C060C94CB040C9488040C94D70526
:1001E0000C94F5050C94C7040C9492040C94300202
:1001F0000C94EB050C94D0040C94FF050C9499041A
:100200000C94E1050C945A060C946E060C94C50BE4
:100210000C94FF0B0C94410B0C9485020C944D0C28
:100220000C94380B0C94CC020C9423060C944606C8
:100230000C94EA090C94BD040C9496040C94A70445
:100240000C94DC0500002100240027002A002D006A
:100250003000330001010000040107010A01000021
:100260002200250028002B002E003100340002015E
:100270000000050108010B010000200023002600FA
:1002800029002C002F0032000001000003010601AC
:10029000090105050505070508080808020202020C
:1002A0000A0A080804040404010101010101010112
:1002B0000303030303030303040707070C0C0C0CDD
:1002C0000C0C0C0C020202020606060606060606C6
:1002D0000B0B0B0B0B0B0B0B010210202008081053
:1002E00020401020408002010201080402010102A6
:1002F000040810204080804020100804020180047F
:1003000002018040201008040201080402010102D9
:1003100004081020408001020408102040800000E2
:100320000A0B02090C0D0E0807030401000000006F
:1003300000000000000000000000000000000000BD
:10034000000000000000000000001211100000007A
:10035000000000000000000000000000000000009D
:1003600000000000CF0C11241FBECFEFD1E2DEBF92
:10037000CDBF00E00CBF12E0A0E0B2E0E2E1FBE1A3
:1003800000E00BBF02C007900D92AA31B107D9F768
:1003900025E0AAE1B2E001C01D92AE30B207E1F75C
:1003A00011E0C3EBD1E000E006C021970109802FE6
:1003B000FE010E947A0DC23BD10780E00807A9F731
:1003C0000E94A3070C94870D0C940000FC01A089E7
:1003D000B1898C91A689B78982FD0FC09C91818DCE
:1003E0008F5F8F73228D821749F0218DDF01A20F5D
:1003F000B11D5D969C93818F08958C910895FC01A9
:10040000538D448D252F30E0842F90E0821B930B79
:10041000541710F0CF96089501970895FC01918D1F
:10042000828D981761F0828DDF01A80FB11D5D9656
:100430008C91928D9F5F9F73928F90E008958FEFC4
:100440009FEF0895FC01918D828D981731F0828D78
:10045000E80FF11D858D90E008958FEF9FEF0895CF
:10046000FC01918D228D892F90E0805C9F4F821B33
:1004700091098F739927089583E392E00E943002D7
:1004800021E0892B09F420E0822F089580ED92E08D
:100490000E94300221E0892B09F420E0822F089588
:1004A0008DE693E00E94300221E0892B09F420E0E0
:1004B000822F08958AE094E00E94300221E0892B87
:1004C00009F420E0822F0895FC01848DDF01A80F3C
:1004D000B11DA35ABF4F2C91848D90E001968F736C
:1004E0009927848FA689B7892C93A089B1898C918B
:1004F00080648C93938D848D981306C00288F38951
:10050000E02D80818F7D80830895EF92FF920F937D
:100510001F93CF93DF93EC0181E0888F9B8D8C8DAF
:10052000981305C0E889F989808185FD24C0F62EDD
:100530000B8D10E00F5F1F4F0F731127E02E8C8D76
:10054000E8120CC00FB607FCFACFE889F989808160
:1005500085FFF5CFCE010E946402F1CF8B8DFE01A5
:10056000E80FF11DE35AFF4FF0820B8FEA89FB89F8
:100570008081806207C0EE89FF896083E889F989FC
:1005800080818064808381E090E0DF91CF911F9132
:100590000F91FF90EF900895CF93DF93EC01888D3A
:1005A0008823C9F0EA89FB89808185FD05C0A88977
:1005B000B9898C9186FD0FC00FB607FCF5CF8081FD
:1005C00085FFF2CFA889B9898C9185FFEDCFCE0147
:1005D0000E946402E7CFDF91CF91089580E090E020
:1005E000892B21F00E945A02811119C080E090E00D
:1005F000892B21F00E945002811114C080E090E00C
:10060000892B21F00E94460281110FC080E090E00A
:10061000892B81F00E943C0281110AC008950E943A
:100620000000E4CF0E940000E9CF0E940000EECF5E
:100630000C9400000895089580E090E008950E94D1
:10064000820D1F920F920FB60F9211240BB60F92CC
:100650002F933F934F935F936F937F938F939F93CA
:10066000AF93BF93EF93FF9383E392E00E94640202
:10067000FF91EF91BF91AF919F918F917F916F917A
:100680005F914F913F912F910F900BBE0F900FBE36
:100690000F901F9018951F920F920FB60F92112472
:1006A0000BB60F922F933F934F935F936F937F936C
:1006B0008F939F93AF93BF93EF93FF9383E392E066
:1006C0000E94E601FF91EF91BF91AF919F918F91B1
:1006D0007F916F915F914F913F912F910F900BBE42
:1006E0000F900FBE0F901F9018951F920F920FB68C
:1006F0000F9211240BB60F922F933F934F935F935A
:100700006F937F938F939F93AF93BF93EF93FF93D9
:1007100080ED92E00E946402FF91EF91BF91AF9152
:100720009F918F917F916F915F914F913F912F9109
:100730000F900BBE0F900FBE0F901F9018951F9239
:100740000F920FB60F9211240BB60F922F933F9377
:100750004F935F936F937F938F939F93AF93BF93C9
:10076000EF93FF9380ED92E00E94E601FF91EF91FD
:10077000BF91AF919F918F917F916F915F914F91B9
:100780003F912F910F900BBE0F900FBE0F901F90B7
:1007900018951F920F920FB60F9211240BB60F925D
:1007A0002F933F934F935F936F937F938F939F9379
:1007B000AF93BF93EF93FF938DE693E00E946402A3
:1007C000FF91EF91BF91AF919F918F917F916F9129
:1007D0005F914F913F912F910F900BBE0F900FBEE5
:1007E0000F901F9018951F920F920FB60F92112421
:1007F0000BB60F922F933F934F935F936F937F931B
:100800008F939F93AF93BF93EF93FF938DE693E006
:100810000E94E601FF91EF91BF91AF919F918F915F
:100820007F916F915F914F913F912F910F900BBEF0
:100830000F900FBE0F901F9018951F920F920FB63A
:100840000F9211240BB60F922F933F934F935F9308
:100850006F937F938F939F93AF93BF93EF93FF9388
:100860008AE094E00E946402FF91EF91BF91AF9102
:100870009F918F917F916F915F914F913F912F91B8
:100880000F900BBE0F900FBE0F901F9018951F92E8
:100890000F920FB60F9211240BB60F922F933F9326
:1008A0004F935F936F937F938F939F93AF93BF9378
:1008B000EF93FF938AE094E00E94E601FF91EF91AD
:1008C000BF91AF919F918F917F916F915F914F9168
:1008D0003F912F910F900BBE0F900FBE0F901F9066
:1008E00018951F920F920FB60F9211240F900FBE02
:1008F0000F901F90189590E0FC013197E231F105BF
:1009000008F04EC08827EE56FF4F8F4F0C947A0D9B
:10091000809180008F7703C0809180008F7D8093CD
:100920008000089580918000877FF9CF84B58F770C
:1009300002C084B58F7D84BD08958091B0008F770B
:1009400003C08091B0008F7D8093B00008958091A6
:1009500090008F7707C0809190008F7D03C08091B9
:100960009000877F8093900008958091A0008F77FA
:1009700007C08091A0008F7D03C08091A000877F79
:100980008093A0000895809120018F7707C0809107
:1009900020018F7D03C080912001877F80932001FB
:1009A0000895CF92DF92EF92FF920F931F93CF9310
:1009B000DF936C017A018B01C0E0D0E0CE15DF053A
:1009C00089F0D8016D918D01D601ED91FC910190D6
:1009D000F081E02DC6011995892B11F47E0102C02A
:1009E0002196ECCFC701DF91CF911F910F91FF901E
:1009F000EF90DF90CF90089540EB54E0FA012FEF95
:100A00003FEF9E2F941B981788F49191292798E027
:100A1000B9016170772736952795672B21F061E042
:100A2000262760EA3627915099F7EBCF922F832F34
:100A30000895CF93DF93282F30E0F901E25EFC4F59
:100A40008491F901E852FD4FD491F901EE56FD4F22
:100A5000C491CC2391F081110E947B04EC2FF0E033
:100A6000EE0FFF1FE858FD4FA591B491EC91ED23D7
:100A700081E090E021F480E002C080E090E0DF912E
:100A8000CF9108951F93CF93DF93282F30E0F90182
:100A9000E25EFC4F8491F901E852FD4FD491F901D7
:100AA000EE56FD4FC491CC23C9F0162F81110E9440
:100AB0007B04EC2FF0E0EE0FFF1FE25AFD4FA591F3
:100AC000B4918FB7F894111105C09C91ED2FE0956A
:100AD000E92302C0EC91ED2BEC938FBFDF91CF9116
:100AE0001F910895CF93DF9390E0FC01E852FD4FF2
:100AF0002491FC01EE56FD4F8491882361F190E032
:100B0000880F991FFC01EC5BFD4FC591D491FC014E
:100B1000E25AFD4FA591B491611109C09FB7F894B5
:100B20008881209582238883EC912E230BC062302C
:100B300061F49FB7F8943881822F8095832388834E
:100B4000EC912E2B2C939FBF06C08FB7F894E881B1
:100B50002E2B28838FBFDF91CF9108951F93CF93C2
:100B6000DF93182FEB0161E00E947205209711F4CA
:100B700060E004C0CF3FD10539F461E0812FDF91FF
:100B8000CF911F910C944205E12FF0E0E25EFC4F03
:100B9000E4914E2F50E0FA013197E231F10508F06F
:100BA0009DC08827EC55FF4F8F4F0C947A0D84B56C
:100BB000806884BDC7BD97C084B5806284BDC8BD50
:100BC00092C080918000806880938000D0938900DB
:100BD000C093880088C080918000806280938000EC
:100BE000D0938B00C0938A007EC080918000886083
:100BF00080938000D0938D00C0938C0074C080914E
:100C0000B00080688093B000C093B3006CC0809146
:100C1000B00080628093B000C093B40064C0809143
:100C20009000806880939000D0939900C0939800C2
:100C30005AC080919000806280939000D0939B0076
:100C4000C0939A0050C0809190008860809390007B
:100C5000D0939D00C0939C0046C08091A000806806
:100C60008093A0008091A0008F7B8093A000D09300
:100C7000A900C093A80037C08091A0008062809333
:100C8000A000D093AB00C093AA002DC08091A0001B
:100C900088608093A000D093AD00C093AC0023C0C7
:100CA00080912001806880932001D0932901C09316
:100CB000280119C080912001806280932001D09387
:100CC0002B01C0932A010FC080912001886080937E
:100CD0002001D0932D01C0932C0105C0C038D1054F
:100CE0000CF04BCF45CFDF91CF911F910895863304
:100CF00008F0865390917B00282F2870977F922BC5
:100D000090937B008770806480937C0080917A0050
:100D1000806480937A0080917A0086FDFCCF809178
:100D200078002091790090E0922B08952FB7F894E5
:100D300060910A0570910B0580910C0590910D054D
:100D40002FBF0895CF93C091F0048C2F0E94FC0414
:100D5000EC2FF0E0E955FB4F9187E1E0EC0FF0E07C
:100D6000E955FB4F8187CE5FC093F0048091AD04BD
:100D7000823020F18091AC04823051F0833071F0E8
:100D8000813091F48091C80080648093C80011C0C4
:100D90008091D00080648093D0000BC0809130019E
:100DA00080648093300105C08091C000806480938E
:100DB000C00061E08091AD040E9442058091AC04C6
:100DC0004091F004843028F48091A7049091A80405
:100DD00004C08091A9049091AA04DC01ED91FC91DA
:100DE00050E00280F381E02D60EB74E01995809172
:100DF000AD048230F0F09091AC04923049F0933021
:100E000061F0913079F49091C80096FFFCCF0EC04C
:100E10009091D00096FFFCCF09C09091300196FFD1
:100E2000FCCF04C09091C00096FFFCCF60E00E9410
:100E300042058091AC04843070F58091A7049091B4
:100E4000A804DC01ED91FC910284F385E02D199555
:100E500097FFF3CF1092F0040E9496062091FA04B7
:100E60003091FB04DC01CB01820F931FA11DB11D4A
:100E70008093000590930105A0930205B0930305AC
:100E80008091F6049091F70401969093F704809373
:100E9000F604CF9108958091A9049091AA04DC01F1
:100EA000ED91FC910284F385E02D199597FFF3CF26
:100EB000D1CF1F920F920FB60F9211242F933F9311
:100EC0008F939F93AF93BF9380910A0590910B05E9
:100ED000A0910C05B0910D053091090523E0230F79
:100EE0002D3720F40196A11DB11D05C026E8230F62
:100EF0000296A11DB11D2093090580930A059093C8
:100F00000B05A0930C05B0930D05809105059091FC
:100F10000605A0910705B09108050196A11DB11D18
:100F20008093050590930605A0930705B0930805E7
:100F3000BF91AF919F918F913F912F910F900FBED5
:100F40000F901F901895CF93DF931F92CDB7DEB708
:100F5000789484B5826084BD84B5816084BD85B594
:100F6000826085BD85B5816085BD80916E008160A0
:100F700080936E0010928100809181008260809346
:100F80008100809181008160809381008091800048
:100F90008160809380008091B10084608093B10073
:100FA0008091B00081608093B00080919100826058
:100FB0008093910080919100816080939100809155
:100FC00090008160809390008091A1008260809366
:100FD000A1008091A10081608093A1008091A00078
:100FE00081608093A0008091210182608093210123
:100FF0008091210181608093210180912001816095
:101000008093200180917A00846080937A0080919F
:101010007A00826080937A0080917A008160809368
:101020007A0080917A00806880937A001092C100E3
:1010300060E082E00E94720560E083E00E94720539
:1010400060E084E00E94720560E085E00E94720525
:1010500061E086E00E94720561E087E00E9472050F
:1010600061E088E00E94720561E089E00E947205FB
:1010700061E08AE00E94720561E08BE00E947205E7
:1010800061E08DE00E94720560E086E00E9442050A
:1010900060E087E00E94420560E088E00E9442052F
:1010A00060E089E00E94420561E08DE00E94420517
:1010B00060E070E08AE00E94AE0560E070E08BE0E6
:1010C0000E94AE058091AC04823039F0833041F04B
:1010D000813049F48DE693E008C080ED92E005C0D0
:1010E00083E392E002C08AE094E09093A8048093A6
:1010F000A704E091A704F091A804A089B18982E037
:101100008C93A485B5851C92A685B78587E68C93BC
:10111000108EA489B58986E08C93A289B3898C91BD
:1011200080618C93A289B3898C9188608C93A28909
:10113000B3898C9180688C930288F389E02D80813B
:101140008F7D80838091AD04823040F061E00E9409
:10115000720560E08091AD040E9442058091A70471
:101160009091A804DC01ED91FC910284F385E02DBF
:10117000199597FFF3CF1092F0041092F10410929A
:10118000F9041092F8041092F7041092F6041092E9
:10119000F5041092F4040E949606DC01CB018C59F0
:1011A0009F4FAF4FBF4F80931C0290931D02A0939F
:1011B0001E02B0931F0261E08DE00E94420519E01B
:1011C000A12E80E092E008E0B02EB80E83E0382E29
:1011D00016E0C12CD12C7601C394B1E26B2EB2E0A3
:1011E0007B2E7092F3046092F204A0920405809129
:1011F000AC04843028F48091A7049091A80404C022
:101200008091A9049091AA04DC01ED91FC910084E5
:10121000F185E02D19958823A9F09091F1048917A3
:1012200099F08093F1040E949606DC01CB010596AB
:10123000A11DB11D8093FC049093FD04A093FE04B6
:10124000B093FF0400E021C10E9496064090FC0488
:101250005090FD046090FE047090FF0464157505C5
:101260008605970578F31092F1048091AD048230E1
:1012700018F060E00E9442051092F0048091AC04E6
:1012800000E0843008F043C08091A7049091A80446
:10129000DC01ED91FC910084F185E02D1995892BFD
:1012A00009F442C08090F004912C8091A7049091A1
:1012B000A804DC01ED91FC910284F385E02D1995E1
:1012C000F401E955FB4F81878091F0048F5F809393
:1012D000F0048034C8F201E0D7CF8090F004912C64
:1012E0008091A9049091AA04DC01ED91FC91028403
:1012F000F385E02D1995F401E955FB4F8187809125
:10130000F0048F5F8093F004803408F001E0809156
:10131000A9049091AA04DC01ED91FC910084F1856F
:10132000E02D1995892BC9F68091F4049091F5046C
:1013300001969093F5048093F404002359F0809172
:10134000F8049091F90401969093F9048093F804BD
:101350000DEF02C00091F0040093AF0407300CF4CD
:1013600094C09091B0048091AB0498136BCF80919E
:10137000F004882E912C82500E94FC04F401E9555F
:10138000FB4F478150E0542F44273085432B84176F
:10139000950759F08091F8049091F9040196909383
:1013A000F9048093F8042FEF33C03091B104E0E0EA
:1013B000F2E08191831709F432C1BE12FACF809115
:1013C000F8049091F90401969093F9048093F8043D
:1013D00021E013C08091B20490E0982F88274091BB
:1013E000B304842BB4E096958795BA95E1F7909174
:1013F0000405981708F05AC122E030583093B10420
:101400002093B2043092F00429830E94A20629811D
:101410002093AF04022F39C02091B20430E0322F64
:1014200022278091B304282B4091B40450E0542F1C
:1014300044278091B504482BCA0163E096958795AF
:101440006A95E1F7682FFA01E770FF27309711F0EE
:1014500061E0680F6093B2043092F004420F531FB2
:1014600083E090E02417350709F046C18093F0042B
:10147000EF2B19F08F5F8093F0042091F004F2E0DD
:101480009F2E920E0E94A206092D00932002053085
:101490009CF00E949606DC01CB01C296A11DB11DF5
:1014A00080931C0290931D02A0931E02B0931F0212
:1014B00061E08DE00E9442050E94960640901C0269
:1014C00050901D0260901E0270901F024616570633
:1014D0006806790620F460E08DE00E94420582E013
:1014E0000E9419052091210230912202892B11F0CE
:1014F000216001C02E7F309322022093210283E0DD
:101500000E9419052091210230912202892B11F0AD
:10151000226001C02D7F309322022093210284E0BB
:101520000E9419052091210230912202892B11F08D
:10153000246001C02B7F309322022093210285E09A
:101540000E9419052091210230912202892B11F06D
:10155000286001C0277F30932202209321026091EE
:101560002302617086E00E9442056091230270911F
:10157000240276956795617087E00E94420560912C
:101580002302709124027695679576956795617030
:1015900088E00E944205609123027091240223E0BA
:1015A000769567952A95E1F7617089E00E9442057A
:1015B00060912502709126028AE00E94AE0560913A
:1015C0002702709128028BE00E94AE0580E00E9405
:1015D000770690932A028093290281E00E94770681
:1015E00090932C0280932B028091F4049091F50447
:1015F00090932E0280932D028091F6049091F7042F
:101600009093300280932F028091F8049091F90416
:1016100090933202809331020E94EE02DECD832F3E
:1016200090E0FC013197E031F10508F03FC08827D8
:10163000EE58FF4F8F4F0C947A0D8091B20490E0DA
:10164000982F88274091B304842B44E09695879582
:101650004A95E1F74091B40450E0542F442760913B
:10166000B504462B74E0569547957A95E1F71BC073
:101670008091B20490E0982F88274091B304842B86
:10168000B6CE8091B40490E0982F88274091B5049D
:101690003C01642AA3018091B20490E0982F88272E
:1016A0006091B304862B840F951FA1CE0E949606ED
:1016B0002091FA043091FB04DC01CB01820F931FCF
:1016C000A11DB11D8093000590930105A093020513
:1016D000B09303051092AF04E091B1048E2F90E017
:1016E000FC013197E031F10508F0CFCE8827EE57A5
:1016F000FF4F8F4F0C947A0DD90103E0B695A79553
:101700000A95E1F7AE7FB170AF5DBD4F0D90BC9112
:10171000A02D622F6F7002C0B695A7956A95E2F76B
:10172000682F70E0A0FF14C0DB01A955BB4F1996CC
:101730006C91199726013701092E04C0440C551CE1
:10174000661C771C0A94D2F7462A19964C9215C04B
:10175000DB01A955BB4F26013701092E04C0440CFB
:10176000551C661C771C0A94D2F7409419967C91FC
:101770001997642D672319966C939F5F983010F02A
:101780008F5F90E02F5F3F4F6DCE2091B20430E02D
:10179000322F22278091B304282B322F8091B4045A
:1017A00090E0982F88274091B504842B482F440F50
:1017B0004093B204E3E09927820F911D42E0942EFA
:1017C0009E0E432F50E048175907B4F4440F551F9D
:1017D000DA01AF5DBD4F2C9111964C91AE2FB0E068
:1017E000A955BB4F19964C93EF5FF0E0E955FB4FBD
:1017F00021873F5FE92DE2CFE093F00443CE809153
:10180000B20490E0982F88272091B304822BFC012A
:1018100094E0F695E7959A95E1F78F709091B4046E
:10182000FF27EE0FFF1FEF5DFD4F9F3F81F4B701D4
:10183000A60104C0440F551F661F771F8A95D2F773
:1018400080819181482B592B5183408313C0A7017C
:10185000960104C0220F331F441F551F8A95D2F7EB
:10186000DA01C901809590952081318182239323EB
:10187000918380831093F0048EC0E091B304F0E074
:10188000EE0FFF1FEF5DFD4F8091B40490E0982FA5
:1018900088272091B504822BEBCF8091B20490E091
:1018A000982F88272091B304822B2091B40430E034
:1018B000322F22274091B504242B280F391FA0E096
:1018C000B7E082179307B1F2682F6F70EB2FF0E04B
:1018D000E955FB4F418550E00A2E02C055954795CA
:1018E0000A94E2F7FC0104E0F695E7950A95E1F722
:1018F000FF27EE0FFF1FEF5DFD4F40FF0EC02601DB
:10190000370104C0440C551C661C771C6A95D2F73D
:10191000408151814429552911C03601470104C035
:10192000660C771C881C991C6A95D2F7B401A30138
:1019300040955095608171814623572351834083A0
:10194000AF5FA83010F0BF5FA0E00196BACF209142
:10195000B3047091B5041092B4041093F00430E015
:10196000220F331F40E050E060E06717A1F0FA015A
:10197000E955FB4F808990E0982F8827E1898E2BCD
:10198000FA01E20FF31FEF5DFD4F918380836F5FDC
:101990004E5F5F4FEACF0E94A20608E076CDE3E3F8
:1019A000F2E01382128248EE53E060E070E044837C
:1019B0005583668377838CE092E09183808325E36F
:1019C00031E03587248724E331E03787268720E319
:1019D00031E0318B208B21E331E0338B228B22E30A
:1019E00031E0358B248B26E331E0378B268B118E4B
:1019F000128E138E148EE0EDF2E013821282448375
:101A00005583668377839183808325ED30E0358726
:101A1000248724ED30E03787268720ED30E0318BB6
:101A2000208B21ED30E0338B228B22ED30E0358BA3
:101A3000248B26ED30E0378B268B118E128E138E81
:101A4000148EEDE6F3E0138212824483558366839D
:101A50007783918380832DEC30E0358724872CECCD
:101A600030E03787268728EC30E0318B208B29EC5B
:101A700030E0338B228B2AEC30E0358B248B2EEC3C
:101A800030E0378B268B118E128E138E148EEAE087
:101A9000F4E01382128244835583668377839183B3
:101AA000808385EC90E09587848784EC90E097872D
:101AB000868780EC90E0918B808B81EC90E0938B1B
:101AC000828B82EC90E0958B848B86EC90E0978BF8
:101AD000868B118E128E138E148EE7EAF4E081E06D
:101AE00084831582168288EE93E09093FB048093A2
:101AF000FA040895EE0FFF1F881F8BBF0790F69121
:101B0000E02D199481E090E0F8940C94870DF894FE
:021B1000FFCF05
:101B12000102030405060F10000000008502D10433
:0A1B2200FF01CC0230020E02220285
:00000001FF
